:020000040100F9
:10000000D80D002105100001713D0001F10F000124
:10001000F10F0001F10F0001F10F000100000000DD
:10002000000000000000000000000000A910000116
:10003000F10F000100000000F10F0001F10F0001BD
:10004000CD110001CD110001CD110001CD11000134
:10005000CD110001CD110001CD110001CD11000124
:10006000CD110001CD110001CD110001CD11000114
:10007000CD110001CD110001CD110001CD11000104
:10008000CD110001CD110001CD110001151B0001A2
:10009000CD110001CD110001CD110001CD110001E4
:1000A000CD110001CD110001CD110001CD110001D4
:1000B000CD110001CD110001000000000000000082
:1000C0000000000000000000000000000000000030
:1000D0000000000000000000000000000000000020
:1000E0000000000000000000000000000000000010
:1000F0000000000000000000000000000000000000
:1001000000000000000000000000000000000000EF
:1001100000000000000000000000000000000000DF
:1001200000000000000000000000000000000000CF
:1001300000000000000000000000000000000000BF
:1001400000000000000000000000000000000000AF
:10015000000000000000000000000000000000009F
:10016000000000000000000000000000000000008F
:10017000000000000000000000000000000000007F
:10018000000000000000000000000000000000006F
:10019000000000000000000000000000000000005F
:1001A000000000000000000000000000000000004F
:1001B000000000000000000000000000000000003F
:1001C000000000000000000000000000000000002F
:1001D000000000000000000000000000000000001F
:1001E000000000000000000000000000000000000F
:1001F00000000000000000000000000000000000FF
:10020000DEE61E284CBBCE8F023500003C0000000D
:10021000405100000100000000000001000000014A
:10022000FFFF02910000000000000000000000003D
:1002300000000000000000000000000030B44FF09B
:10024000000310F8014B11F8015B013A84EA050440
:1002500043EA0403F5D1A3F101034FEAD37030BCA4
:10026000704700BF4FF0000310F8012B013943EA3B
:100270000203F9D1A3F101034FEAD370704700BF25
:1002800030B411F8014B12F8015B6C4000F8014BDF
:10029000013BF6D130BC70472DE9F04F90E8F00FEC
:1002A00000F140004FF0040E59E0F0B4826BC36BD4
:1002B00004680525242687593C444FEA724787EA9B
:1002C000F24787EA92273C4442684FEAF21787EAEE
:1002D000B24787EAD2073C4440F8044B032D08BFDD
:1002E0006FF01B0687593A444FEA734787EAF34792
:1002F00087EA93273A4443684FEAF31787EAB347FC
:1003000087EAD3073A4440F8042B87593B444FEA25
:10031000744787EAF44787EA94273B4444684FEAE6
:10032000F41787EAB44787EAD4073B4440F8043B14
:10033000013DC0D1A0F13C00076A3C444FEA72473E
:1003400087EAF24787EA92273C4402684FEAF217AD
:1003500087EAB24787EAD2073C44C463F0BC4FF057
:10036000020288EA781C8CEAF84C0BEBBC1C8AEA87
:10037000090303EA080383EA0A039C4450F8043B98
:100380009C4451F8043B9C44674444EA050B0BEA47
:10039000060B04EA05034BEA030BE34484EAF42367
:1003A00083EA34530BEBB30B87EA771C8CEAF74CE8
:1003B0000AEBBC1C89EA080303EA070383EA090382
:1003C0009C4450F8043B9C4451F8043B9C446644D4
:1003D0004BEA040A0AEA050A0BEA04034AEA030A9A
:1003E000E2448BEAFB2383EA3B530AEBB30A86EA37
:1003F000761C8CEAF64C09EBBC1C88EA070303EA7E
:10040000060383EA08039C4450F8043B9C4451F8DB
:10041000043B9C4465444AEA0B0909EA04090AEAD8
:100420000B0349EA0309E1448AEAFA2383EA3A53CF
:1004300009EBB30985EA751C8CEAF54C08EBBC1C8A
:1004400087EA060303EA050383EA07039C4450F89E
:10045000043B9C4451F8043B9C44644449EA0A0828
:1004600008EA0B0809EA0A0348EA0308E04489EAB3
:10047000F92383EA395308EBB30884EA741C8CEA45
:10048000F44C07EBBC1C86EA050303EA040383EA89
:1004900006039C4450F8043B9C4451F8043B9C44A4
:1004A000E34448EA090707EA0A0708EA090347EAB2
:1004B0000307674488EAF82383EA385307EBB30756
:1004C0008BEA7B1C8CEAFB4C06EBBC1C85EA040324
:1004D00003EA0B0383EA05039C4450F8043B9C4465
:1004E00051F8043B9C44E24447EA080606EA090640
:1004F00007EA080346EA0306664487EAF72383EA25
:10050000375306EBB3068AEA7A1C8CEAFA4C05EB01
:10051000BC1C84EA0B0303EA0A0383EA04039C4439
:1005200050F8043B9C4451F8043B9C44E14446EAA7
:10053000070505EA080506EA070345EA03056544D9
:1005400086EAF62383EA365305EBB30589EA791C7C
:100550008CEAF94C04EBBC1C8BEA0A0303EA09039E
:1005600083EA0B039C4450F8043B9C4451F8043B41
:100570009C44E04445EA060404EA070405EA06034D
:1005800044EA0304644485EAF52383EA355304EB23
:10059000B304013A7FF4E5AEA0F14000BEF1010ED4
:1005A0007FF483AEA0F1400C9CE80F0000194919BC
:1005B0009219DB19ACE80F009CE80F004044494455
:1005C00052445B44ACE80F00BDE8F08F2DE9F043E6
:1005D00085B0304803F0C8FE30B92F4803F060FA08
:1005E000002005B0BDE8F0834FF408414FF0807063
:1005F00003F004FE28B1294803F052FA01F038FF55
:10060000EEE701F02FFF054601F03AFFE8B903F0ED
:1006100031FE04460146284603F01EFE10B921466D
:100620001F4805E01B4801F04FFF014618B11D4867
:1006300003F036FAE2E72946284603F00DFE10B132
:1006400001F068FFFEE72946EAE74FF45E311648FD
:1006500003F0D4FD014608B11448E9E70446DFF889
:100660005090DFF8508001AF59F8046B98E807000C
:100670002E4487E807000C223946304603F0B2FECC
:1006800000B91EB90134072CEED10026304601F026
:1006900025FDA5E748450001C8480001E0480001E4
:1006A0000E49000138490001008800015749000146
:1006B000E8460001A0460001B2F5802F2DE9F04187
:1006C0000CD2042A20D83F4940F21A223E4803F0B7
:1006D000FDF940F21A213B4803F0EFF90823D21A42
:1006E000CC1D114424F0070421F00701091B172930
:1006F0004FEAD1060AD8334940F22322324803F0A8
:10070000E5F940F22321E6E70423E8E70025046049
:1007100031462046A660E56003F06FF9B6F5004F5C
:100720002CBF08230423421D92000833D11DDB088F
:1007300003EBD103B3424FEAD10739D80130294640
:10074000A2F1100204F11000B8BF2A4603F042FEE5
:100750003A462946204603F04CF92B462A462946BC
:10076000204603F01DF9A6EB070820462946012282
:1007700003F027F94246394603F03BF93B462A4647
:100780003946204603F00CF93146204603F031F992
:1007900043462A463146204603F002F931462046B8
:1007A000012203F00EF93946BDE8F04103F034B9F7
:1007B00004494FF40E72044803F088F94FF40E71A7
:1007C00089E700BF794900019C490001014B1B6882
:1007D000184700BF28000021014B1860704700BF78
:1007E0002800002130B585B004460D4610220021B6
:1007F000684603F0EFFD02238DF80230044B2A46D1
:1008000021466846019302F065FE05B030BD00BF89
:10081000CD0700012DE9F0471646028B044610076C
:1008200012D4022902F007025BD1204603F05BF9E3
:1008300088B10138042800F21081DFE810F052007E
:100840000E017400B300E00001290CBF42F0100259
:1008500042F02002228386F31188BFF36F8FBDE838
:10086000F08703F00701481F01281ED80020062941
:100870002768C4E9000014D1394603E0608B0130D9
:10088000608309680029F9D123F0070343F00201CE
:100890002046218303F027F990B341F02001218302
:1008A0002EE023F0070399B2F2E7042930D123F0B8
:1008B000070399B22046218303F015F910B141F0E6
:1008C00020012183238B03F00709914540F0CE805E
:1008D000228BD10640F1F48022F01003238302F032
:1008E0000702D4F81480238BB8F1000FB9DA002185
:1008F000276823F00703C4E9001143F001032383B1
:10090000238B03F00709914500F0E380002536E0D2
:100910007B4940F21B127B4803F0D8F840F21B11D0
:10092000774803F0CAF842B175494FF4AB72754885
:1009300003F0CCF84FF4AB71F2E7236843B9704988
:1009400040F257126F4803F0C1F840F25711E7E741
:1009500023691D6845B96A494FF4AD72694803F0CF
:10096000B5F84FF4AD71DBE7174690464FF0060936
:10097000238B23F0070343F006039BB22383A26873
:10098000002A76D1002F40F0A880002DA0D043F09F
:100990000803238386F31188BFF36F8F20465A49DB
:1009A000A84781E0022A08D0554940F25D12554817
:1009B00003F08CF840F25D11B2E7678B47B1504904
:1009C0004FF4AF724F4803F081F84FF4AF71A7E7CF
:1009D00023695D6845B94A4940F26112494803F00C
:1009E00075F840F261119BE7238BB84623F00703AB
:1009F00043F004039BB24FF004092383BFE7012AAD
:100A000008D03F494FF4B2723E4803F05FF84FF40C
:100A1000B27185E7236843B9394940F26512394814
:100A200003F054F840F265117AE723699D6845B9EF
:100A300033494FF4B472334803F048F84FF4B471BB
:100A40006EE70027238BB84623F0070343F0050326
:100A50009BB24FF00509238391E7294940F26B12BD
:100A6000284803F033F840F26B1159E700273D4660
:100A700085E743F00803238386F31188BFF36F8F64
:100A8000A16889B30E6879B343464A462046D1F837
:100A900004A0D0471EB1336831461E46F3E7334603
:100AA000FAE7002D7FF47AAFEFF31186202383F36A
:100AB0001288BFF36F8F238B23F00803238307E78C
:100AC00093067FF5C8AE22F02003238302F00702CD
:100AD000ABE6002F3FF4FCAE002543F00803238370
:100AE00086F31188BFF36F8F002FDAD03E68394646
:100AF00043464A46204603F022F83746F4E700BF53
:100B0000B44900019C4900016B3B000170B50546EA
:100B10000E4603F004F8041E14DBEFF311822023C9
:100B200083F31288BFF36F8F4FF6FF716B8B2C8BA3
:100B30008B4204F0070407D182F31188BFF36F8F53
:100B40006FF00A04204670BD022C0CD101336B8378
:100B500082F31188BFF36F8F002322463146284667
:100B600002F0EDFFEEE7062C11D8DFE804F0041EDA
:100B7000101004250400002333606B6893B9C5E9A5
:100B8000006604BB02212846FFF744FEDAE710495D
:100B900010484FF4E47202F099FF4FF4E4710C48EE
:100BA00002F08BFF1E606E60EBE782F31188BFF3EB
:100BB0006F8F6FF00404C5E782F31188BFF36F8F66
:100BC0006FF08504BEE782F31188BFF36F8FB9E73A
:100BD000B44900019C49000108B54268034602F08F
:100BE0000302032A816002D02AB1002000E00068DD
:100BF00000225A6008BD04490448452202F066FFFD
:100C00004521014802F059FFD94900019C490001E2
:100C10002DE9F7430D46DDE90A9790461E46044646
:100C200010B96FF00D003DE00029FAD0002AF8D08D
:100C30008B680846DB6898470368B6FBF3F203FB52
:100C40001262002AEDD1B9FBF3F203FB1292002AE3
:100C5000E7D1002FE5D0B7FBF3F103FB11710029B9
:100C6000DFD1C4E90086C4E905972161A160E56090
:100C700003686A4663620C9BC4E907314379CDE996
:100C800000612846094984F8283003F067F9019A81
:100C9000002AC6D0D4E905310B449A422CBF00206B
:100CA0006FF00D0003B0BDE8F08300BFE93B000129
:100CB00008B5044802F0F4FE034802F0F1FE0020FB
:100CC00008BD00BFFF490001354A000108B50348CF
:100CD000034A0021121A03F03DF808BD500000211C
:100CE000D8010021074808B5074A0849121A03F03D
:100CF00033F8BDE808400648064A0749121A03F0CF
:100D00002BB800BF28000021500000211451000121
:100D10000000002128000021EC50000130BFFFF747
:100D2000FDBF00BF154B9A6A12F0007F9A6A14BF8C
:100D30001E201D2012F0807F9A6A18BF1F2012F417
:100D4000801F9A6A18BF022012F4002F9A6A18BFF7
:100D5000212012F4802F9A6A18BF222012F4003F3B
:100D60009A6A18BF232012F4803F9A6A18BF242081
:100D70006FEA02426FEA12429A62704700ED00E0A9
:100D800010B5164B9A6A9C6A12F4805F14BF172242
:100D9000162214F4006F9C6A18BF1822A40509D506
:100DA0009A6B9A6A120404D518B19A6A22F4004226
:100DB0009A621922094B986A10F4806F986A18BFDA
:100DC0001A2210F4807F986A40F47F4098624FF0B6
:100DD00000030CBF10461B200B7010BD00ED00E09F
:100DE00010B51E4B0246986A9C6A10F0100F14BF93
:100DF0001120102014F0080F9C6A18BF1220A407BD
:100E000009D5586B986A000604D51AB19A6A22F07F
:100E100080029A621320114B9A6A12F0010F9A6AAB
:100E200018BF1420D40602D49B6A9A070ED50B4B28
:100E30009B6ADB060AD50A490A4840F22D1202F0E5
:100E400045FE40F22D11064802F037FE034A936A30
:100E500043F0FF03936200230B7010BD00ED00E030
:100E6000634A00019C490001F0B5564B04465B689B
:100E700000258BB0C3F3080385F31188BFF36F8F90
:100E800002F07F40B0F17F4F08D102F00C0008283B
:100E900004D012074CBF0C46012554B94A4940F210
:100EA00014424A4802F012FE40F21441464802F051
:100EB00004FE0022033B8DF80720032B7BD8DFE8DC
:100EC00003F00272765D3F4AD36A13F0020372D1D7
:100ED000D16A00291ADBD36A5B005BD55369A1692B
:100EE00043F480735361BFF34F8FBFF36F8F536928
:100EF00031F8021C23F480735361BFF34F8FBFF3AB
:100F00006F8F4DF60273994220D123689DF8072018
:100F1000D2B9224602AE04F1200734461068516867
:100F2000083203C4BA422646F7D1099A002D44D0AC
:100F3000C2F3080121B96FEA52226FEA42220992F4
:100F4000184602A902F00AFF0BB0F0BD936ADBB2AB
:100F500033B101200DF10701FFF742FF0346D5E74A
:100F6000936A13F47F4F05D001200DF10701FFF7BD
:100F700007FFF3E7936AB3F5803F02D3FFF7D2FE92
:100F8000ECE7114940F2ED22104802F09FFD40F2DB
:100F9000ED218BE70C494FF43C720C4802F096FDB2
:100FA0004FF43C7182E700200DF10701D4E70020E7
:100FB0000DF10701DBE70023A8E722F4FF7222F01E
:100FC0000102BCE700ED00E0634A00019C4900011A
:100FD000064B5A6942F010025A615A6942F4806223
:100FE0005A615A6922F008025A61704700ED00E028
:100FF000EFF30880EFF3098101B57246FFF734FF84
:1010000001BD00BF002080F31488BFF36F8F002064
:1010100080F30A8880F30B880F4880F3088801F07A
:1010200041FB00200D490860BFF34F8F00F01AF814
:10103000202080F311880A484FF40061401880F3A3
:101040000988EFF314800221084380F31488BFF36A
:101050006F8F02F099FE0000D80D002194ED00E0A2
:10106000D801002172B6002383F313884FF0FF30BC
:101070000C4A03F120010133102B42F82100F8D172
:1010800000234FF0FF30074A03F160010133102BBA
:1010900042F82100F8D162B6BFF34F8FBFF36F8FD4
:1010A000704700BF00E100E01EF0040F0CBFEFF33B
:1010B0000880EFF30980816911F8021C0229FFD032
:1010C00001B5724602F050FE01BD00BF40B20028DB
:1010D00007DB01234109034A00F01F00834042F867
:1010E0002130704700E100E0054B420953F822200F
:1010F000012300F01F0003FA00F01040704700BF0A
:1011000000E100E00131072908B508D90D490E4872
:101110006B2202F0DBFC6B210A4802F0CEFC40B2ED
:101120000028ACBF00F16040084B4FEA4111C9B242
:10113000ABBF00F5614000F00F0080F800131954B8
:1011400008BD00BF954A00019C49000114ED00E074
:10115000044B054A23F07F039360BFF34F8FBFF327
:101160006F8F70470000000100ED00E0154680B56C
:1011700006460C46002282F30B880A4FA7F58068CA
:1011800088F30B8887F309880020044988472046A4
:1011900029461A46B04702488047FEE79F3D0001B6
:1011A000AD3D0001D80D00211022014B1A6170479E
:1011B00000ED00E0002320210348C21801331E2B5C
:1011C00082F80013F9D1704700E100E008B5EFF3B1
:1011D0000583064A103B02EBC30152F8330049680D
:1011E0008847BDE8084002F0CABD00BF6445000161
:1011F00008B5024B1B689847002008BDF800002185
:10120000034B044A1860937843F0020393707047CD
:10121000F80000212C00002108B50649064821F0FD
:101220000701C1F1045202F58032FFF745FA0020B0
:1012300008BD00BFDF0D0021FC000021064AD2F8E6
:10124000AC3123F00043C2F8AC310022034BC3F8A9
:101250004C21D3F84C31704700200141006001411E
:1012600073B5354BD3E84F3F00233449CDE9003304
:10127000334BD3F80445BFF35F8FD1F80465BFF358
:101280005F8FD3F804259442F3D16B4622460121A7
:101290002B4802F0B6FD324605460F21274801AB28
:1012A00002F0AFFDE0B1019B0DB9009302E0009A9E
:1012B0009342FAD3009B22481C44013CD0F84C35A1
:1012C00024F07F449C421F4932D0FFF7B7FFC0F89B
:1012D0004C451D4B009A9A4218D901230B7001E02E
:1012E000002DE7D1194AD2F8AC3143F00043C2F8DF
:1012F000AC31134BD3F84C2132B90121144A51605F
:10130000D3F84C3103B1116001230DE0BFF35F8FBF
:10131000D0F80435E41A24F07F440E4B033C9C4281
:10132000DBD900230B7000230B4A137002B070BD91
:101330000B78002BF7D0D5E7D40100210010014134
:1013400000600141D2010021FEFF7F000020014129
:1013500000B00041FBFF7F00D3010021F8B51E491A
:101360000023C1E8423F52BB1C4B1D783DB305230F
:101370001B4E1C4F34780134B4FBF3F303EB8303AF
:10138000E41A02F037FF184A137823B157F82430D3
:10139000C01A072813D9154BD3F8141141B10021F5
:1013A000C3F81411D3F8143134700CB9012313703D
:1013B000347802F01FFF47F824002846F8BD0C4A95
:1013C0000025D2F8AC3123F00043C2F8AC31012241
:1013D000084B5A60F1E700BFD4010021D30100217E
:1013E000D101002108010021D0010021005000415D
:1013F0000020014100B000410122024BC3F840250A
:10140000704700BF000008415023142213B5234C3D
:101410000021C4F80C35224B0846C3F820214FF4B4
:101420000062204BC3F8BC254FF48062C3F8382516
:101430000DF1070201F0A4F900280ADA1A491B4845
:1014400040F23B2202F042FB40F23B21164802F000
:1014500034FB9DF80710164802F059FF9DF807105D
:10146000144802F054FF9DF80710134802F04FFF94
:101470009DF80710204602F04AFF9DF8070001F092
:101480009DF94FF400220D4BC3F844230022C3F80A
:101490004C21D3F84C3102B010BD00BF00B0004168
:1014A0000030204100200141CC4A00019C4900014C
:1014B0004C610141282001412C2101410060014182
:1014C00048B1054B054A1B68B3FBF2F35843044B84
:1014D00043F00103184770473C00002140420F00D1
:1014E000E0460001BFF34F8F0549064BCA6802F47E
:1014F000E0621343CB60BFF34F8F00BFFDE700BF37
:1015000000ED00E00400FA0508B54FF0FF323F237C
:101510000348C0E9002301F02DF9002008BD00BFF9
:101520001C010021402373B50B4C0093041B0B4698
:101530000D460A49A41061430646094A094802F0CB
:1015400091FC011E05DA30462B4602B0BDE8704022
:10155000184702B070BD00BF38010021B76DDBB67F
:10156000D33E000110450001C9B2012908B508D9D0
:10157000084909487E2202F0A9FA7E21054802F0B6
:101580009CFA0C22036901FB0233186C00F007007F
:1015900008BD00BFF64A00019C49000170B5C9B200
:1015A000012903690AD9184918484FF4E87202F072
:1015B0008DFA4FF4E871144802F07FFAEFF31185C9
:1015C000202484F31288BFF36F8F0C2606FB0134AE
:1015D000246C14F0C00408D0A24206D085F3118810
:1015E000BFF36F8F4FF0FF3070BD012271430B448A
:1015F0001A6485F31188BFF36F8F43680B445B68EF
:1016000098470020F0E700BFF64A00019C4900011E
:10161000084B70B5C31A0D4607499B100446594341
:1016200040220648FFF7BAFF2B4601462046BDE898
:101630007040184738010021B76DDBB61045000136
:10164000F8B50022012105460520FFF75BFD104893
:1016500001F0C8F80446B8B901F0E4F82F690D4963
:10166000384602F08FFA031E09DB01263E642D691D
:10167000084905F11C0002F085FA031E02DA1C4637
:101680002046F8BDEE64FBE76FF00404F8E700BF06
:10169000191700010447000110B5EFF3118420234E
:1016A00083F31288BFF36F8F074A136823F0020198
:1016B000DB07116002D4012001F0FEF884F31188E9
:1016C000BFF36F8F10BD00BF880100210C22104BAB
:1016D000014602FB0033002030B4D3E90E52986378
:1016E000EFF31180202484F31288BFF36F8F1C6CFA
:1016F00004F0C00444F002041C6480F31188BFF3BA
:101700006F8F1DB12B4630BC0248184730BC704764
:101710003801002110450001012808B506D007282E
:1017200008D090B90E4B1B6C5B0717D1BDE8084081
:10173000FFF7CCBF0B4940F2FA220B4802F0C6F982
:1017400040F2FA21074802F0B8F906494FF4417215
:10175000054802F0BBF94FF44171F3E708BD00BF43
:1017600038010021F64A00019C49000110B4EFF352
:101770001182202383F31288BFF36F8F174801680B
:1017800041F002040460C80707D482F31188BFF354
:101790006F8F012010BC01F065B81149D1F80C041D
:1017A000D1F80C14C907F0D5EFF3118083F3128838
:1017B000BFF36F8F0B490B6C03F0C00343F00203C0
:1017C0000B6480F31188BFF36F8F82F31188BFF32E
:1017D0006F8F002010BCFFF779BF00BF8801002188
:1017E00000500041380100212DE9F843012206464E
:1017F0003D49D1E8EF3FC1E8E02F0028F9D19BB97E
:101800003A493B484B60CB608A60FFF77FF900287C
:101810000ADA384940F2A322374802F057F940F279
:10182000A321344802F049F96EB3731E012B52D83C
:10183000012E06D1314BD3F81C3403F00303022BE5
:1018400021D002F09CFD0546F8B92D4B1B78E3B181
:1018500002220746294BC3F808234FF00008274C03
:10186000DFF8A090D4F81824D4F81834D20315D592
:1018700003F00303022B01D0012E0FD135B387F300
:101880001188BFF36F8FBDE8F883EFF31187202332
:1018900083F31288BFF36F8F0125DEE7384602F02D
:1018A0008DFAD4F81835DBB2012BDBD1D4F8042142
:1018B000002AD7D0C4F80481D4F804210222C4F845
:1018C00018252022C9F88021A360CBE702220B4B08
:1018D000C3F80423D7E7074940F2B522064802F0CF
:1018E000F5F840F2B5219CE73401002124010021E4
:1018F00054010021F64A00019C49000100500041BA
:10190000D701002100E100E008B5074802F02CFDF6
:1019100038B10648FFF774FC0448FEF75DFF00206D
:1019200008BD6FF01200FBE72C45000131190001E2
:101930000A2838B50446074D04D1AB680D21284666
:101940005B689847AB6803485B68E1B298472046FC
:1019500038BD00BF2C450001024B0B600123136012
:10196000704700BF8C0100210048704728470001E4
:1019700010B502F0F3FC034C206002F0ECFC606058
:10198000002010BD8C010021F8B50E4619463046E6
:1019900017461C4602F017FBC8B106F1807646EAEE
:1019A000040515F0030512D154B124F00304A54237
:1019B00006EB050006D1074AD2F80034DB07FBD559
:1019C0000020F8BD795901F045F90435EFE76FF0D3
:1019D0001500F6E70000084108B5036802465909FA
:1019E00013D0012906D14FF6FF7103F01F03D94030
:1019F000C80711D40A490B484FF4747202F066F814
:101A00004FF47471064802F058F84FF0FF31D94096
:101A1000C907EFD5044800E00448136008BD00BFC3
:101A2000684B00019C49000100058C4100088C4175
:101A30002DE9F04F9346824640F2FF17DFF8CC9035
:101A400085B000EB8106B24503D1002005B0BDE8AA
:101A5000F08FDAF80030C3F3C322082AC3F3080476
:101A60004DD82B491B0EBC4208BF4FF0FF348D5C94
:101A7000032B47D8DFE803F002093336CBF80C45D7
:101A8000631C32D10AF1040ADDE7CBF81445621C6D
:101A9000F8D00021DAF8003003A803F40042002A4D
:101AA00016BF002188464FF001080193009103946E
:101AB000FFF792FF039C019B00EB8400D0F80042EB
:101AC000C3F3412C00992B0243EA8C030B4304EA35
:101AD0000904234343EA4803C0F80032D2E7CBF8B5
:101AE0000845CDE7CBF81045D1E703A80394FFF7ED
:101AF00073FF0121039B01FA03F38360CAE76FF0D0
:101B00001500A3E76FF08500A0E700BFF0F0FCFF31
:101B10009B4B0001684620F007018D4601B5134B31
:101B2000D3F80423D20517D5D3F82021A2B1EFF3BF
:101B30001182202181F31288BFF36F8FD3F8201117
:101B400031B10021C3F82011D3F820110121D9604F
:101B500082F31188BFF36F8F044BD3F8583102F032
:101B60000EF9BDE801408546704700BF00300141D5
:101B70002DE9F04104460D46476802F000FC88B1AB
:101B80004FF02008EFF31186314688F31288BFF337
:101B90006F8F606802F092FA30BB86F31188BFF352
:101BA0006F8FEFE71D4B1B78002BE9D04FF020081B
:101BB0006426606802F082FA50B9012002F06CFBE2
:101BC000013EF6D1F4E786F31188BFF36F8FEFE79C
:101BD000EFF31186314688F31288BFF36F8F606888
:101BE00002F06CFA0028EED0FB6900201D706368DB
:101BF000FA691B68C3F844250122C3F84825C3F8D5
:101C00002001D3F82041C3F85801D3F858019A6055
:101C100081F31188BFF36F8FBDE8F081D7010021F8
:101C20000D4B1868010A0006BFF35F8F0B4BD3F80A
:101C30000435181841F10001B3F5801F0AD2084B92
:101C4000D3E90023904271EB030303D210F18070BB
:101C500041F10001704700BFA8010021006001416F
:101C6000680000212DE9F74302F0FAF82E4BD3F873
:101C7000042390070BD5D3F8042142B10022C3F806
:101C800004212A4AD3F80431136801331360264A29
:101C9000D2F80433D90326D5254BD3E8EF1F21F022
:101CA0000100C3E8E40F002CF7D1CB0702D4D2F82F
:101CB0004031C3B100251C4CC4F84051D4F8403128
:101CC000FFF7AEFFEFF31182202383F31288BFF3F7
:101CD0006F8F184BD3E90267B042B94106D282F345
:101CE0001188BFF36F8F03B0BDE8F0834FF0FF386A
:101CF000D3E900104FF0FF391D60C3E902894FF4AA
:101D00008033C4F84833C4F84051D4F8403182F3EA
:101D10001188BFF36F8F0029E5D0009032463B4613
:101D200028468847DFE700BF00600141A801002185
:101D3000A0010021500000212DE9F74F4FF00108CC
:101D400008FA00F8144606461D466FEA0802DFF856
:101D500030A1DAE8EF3F03EA0201CAE8E01F0028F9
:101D6000F7D14FF48037DFF81C91B740C9F80873FA
:101D7000BFF35F8FBFF36F8F08EA03030093FFF792
:101D80004FFFA04271EB05034BD23F4B201A65EB8E
:101D90000101984271F1000156D23C4B03EB06134E
:101DA000D3E902239D4208BF944243D04FF0000B79
:101DB00024F07F4EF446032006F150039B009BB2B3
:101DC00003F1824303F5B033C9F84873C3F800B098
:101DD0001A6806F5A872019201992CF07F4249F821
:101DE00021206FF00202C9F84473D9F80415521A81
:101DF0006244DFF89CC022F07F4262451AD91A681B
:101E00005AB1D9F80415A1EB0E0222F07F42B2F5C7
:101E1000000F0FD9C3F800B01A6800EB010C0130B5
:101E2000DAE71C4BD3E8EF1F41EA0801C3E8E21FE1
:101E3000002AF7D1154918483301C850002301EB97
:101E40000612C2E902455360009BABB1DAE8EF3FEE
:101E500043EA0803CAE8E23F002AF7D1094BC3F876
:101E600004730C4BD3E8AF3FF340DB0742BF4FF4A2
:101E700080020A4BC3F8002103B0BDE8F08F00BF19
:101E8000A4010021006001410100800050000021F8
:101E9000FDFF7F00A0010021211F000100E100E003
:101EA00070B54FF0FF3000254FF0FF31174C184B45
:101EB0000226C4F80833C4F84833164BC4F8085552
:101EC000C3E902014FF480334FF48002C4F80433B5
:101ED000114B0121C4F804631620C3F880212A465F
:101EE000FFF710F91620FFF7F1F801230B4AA36062
:101EF0002846236013604FF480720023FFF71CFF15
:101F00003046FFF771FC284670BD00BF00600141FC
:101F100003000F005000002100E100E0A4010021B7
:101F2000F8B5144922F07F45D1E90063921B140AE9
:101F300022F0FF02921943F10003C1E90023A5F545
:101F40000011B1F5400F0AD20B4909684FEA112C74
:101F500009064E1909494CF10007C1E9006712F55D
:101F6000807243F10003FFF7E7FE2046BDE8F8402A
:101F700000F088BF60000021A80100216800002156
:101F800030B5024600240B490B4D0B6805EB0310DE
:101F9000D0F80808C0B218B904B10B60002007E0FF
:101FA0000133072B4FF00104F0D96FF01B000B60D9
:101FB000136030BDAC01002100000841F7B5434D6E
:101FC0000646D5F820320C46B3F5006F174608D008
:101FD0003F494048212201F079FD21213C4801F090
:101FE0006CFD01A8FFF7CCFF002867D1D5F82022AF
:101FF000B6FBF2F302FB1363002B61D1D5F820226C
:10200000B4FBF2F302FB1343002B59D1D5F8202285
:10201000D5F824325343A34252D3002C50D0019B15
:10202000072B07D92C4977222A4801F04FFD772149
:102030002948D4E7D5F82012B6FBF1F201FB126271
:1020400032B125497822234801F040FD7821EFE79D
:10205000D5F82022D5F824124A43944206D91E49C5
:1020600079221C4801F032FD7921E1E7D5F82012F0
:10207000B4FBF1F201FB124232B117497B22154841
:1020800001F024FD7B21D3E71B0103F1824101F51F
:102090000021C1F80068C1F80448C1F80878D1F8F7
:1020A000002896420FD1D1F8042894420BD1D1F8E0
:1020B0000838DBB29F4218BF6FF00D0003B0F0BDCF
:1020C0006FF01500FAE76FF00D00F7E70000FF0171
:1020D000B24B00019C490001DE4B000130B50446C3
:1020E000816985B04C4801F0DBFC0121204600F0FD
:1020F00069FA28B9494805B0BDE8304001F0D0BCC4
:1021000000226846464B474DC3F80025D3F80C150E
:102110000091D3F814150191D3F808150291D3F862
:102120001035039350F8043B591C1DD059090CD0AD
:10213000012967D03C493D484FF4747201F0C6FC58
:102140004FF47471384801F0B8FC4FF0FF31D940BA
:10215000C907EFD5364901EB8303D3F800122940B4
:1021600041F00201C3F800120132042ADAD14FF023
:10217000FF32304BC3F80823BFF36F8F72B60023D2
:102180002D4903F120000133102B41F82020F8D114
:1021900000234FF0FF30284A03F160010133102B78
:1021A00042F82100F8D14FF0E02300221A61D3F861
:1021B000042D03F5506342F000725A605A6A22F40B
:1021C000E0225A62EFF31482920707D5EFF31482EC
:1021D00022F0020282F31488BFF36F8FBFF34F8F98
:1021E000BFF36F8FA2699A60A269002383F30B8803
:1021F00083F30A88116881F3088883F309880F4BF9
:10220000506898474FF6FF7103F01F03D940C90784
:1022100090D50B499FE700BF104C0001224C0001F4
:1022200000300141F0F0FCFF684B00019C490001C7
:1022300000058C410050004100E100E00100002158
:1022400000088C411FB50446074A01AB07CA83E862
:1022500007000C221946204602F0C4F800280CBFE3
:102260002046002004B010BDAC46000170B5054604
:102270000024054E56F8040B2844FFF7E3FF10B97D
:102280000134072CF6D170BD784700012DE9F04FDD
:10229000814685B010460E4614461F46D568D2F8D2
:1022A0001080FFF7CFFF40B91FB945215D4801F00D
:1022B0008EFC002005B0BDE8F08FA069484504D031
:1022C000002FF6D145215848F1E727B9B0422CD06C
:1022D00045215648EBE73046FFF7C8FF8442E8D176
:1022E000226A534B9A42E4D12D19E2D218EB06032D
:1022F000DFD2A642DDD89C42DBD2013DAE42D8D827
:102300009D42D6D218EB0908E3693BD24B4539D33D
:10231000434537D23344A3EB09035B684B4536D2C0
:10232000002FC6D145214348C1E7FFF79FFF8442F4
:1023300002D045214048BAE7226A3D4B9A420FD16C
:102340002D192CBF4FF0010A4FF0000A49213B48DC
:1023500001F03DFCBAF1000F07D045213848A6E74F
:102360004521384801F033FCA3E718EB0903F4D208
:10237000A145F2D89C42F0D2013DAE42EDD89D423B
:10238000C0D3EAE7002F94D145212F488FE743457A
:10239000C6D2D4F81090DFF8B4A009EB060505F119
:1023A000050B0DF104089AE8070088E807000C22E5
:1023B0004146284602F016F800B91DBB0135AB4571
:1023C000F1D1002F7FF475AF452121486FE7002F31
:1023D0007FF46FAF45211F4869E705F110024946B8
:1023E000304601F01DFF024628B1002F7FF461AF97
:1023F00045211948B6E71FB94921184801F0E7FB04
:10240000012057E7EA68A3699A42E0D101F001FF91
:1024100002460028E1D0002F7FF44BAF4521104841
:10242000A0E700BF574C00017A4C0001B04C0001FE
:10243000FFFF0291B94D0001E04C0001364D000153
:102440005A4D00010C4D00018A4D0001B8460001B3
:10245000E94D00011D4E0001764E0001A54E000120
:10246000534E0001014BD3F8A805704700800001CE
:102470004FF00053014A1A60704700BF15FCBA259F
:102480004FF0005318680D4B984210D003F11C53C5
:10249000A3F58B13A3F6CC5398420AD0084B98426D
:1024A00009D0084B98420CBF04200220704700203E
:1024B0007047032070470120704700BFB6B3B4B522
:1024C0005DCE03F1EC49F2B610B54FF00054104B5D
:1024D000226801469A42ADF5107D16D14FF45E3365
:1024E0000022CDE90132E36810AA009305A84FF459
:1024F0000073FEF78DFB28B9D4E90112012305A86A
:1025000001F0E4FB0DF5107D10BD6FF00D00F9E753
:10251000B6B3B4B54FF00053014A1A60704700BF1C
:102520005DCE03F12DE9F043224885B001F0A6FE0F
:10253000002604461F4B204FD3F83880DFF87C90EC
:10254000B04503D8002005B0BDE8F083636A97E882
:1025500007001D6801AB83E807000C2219462846D6
:1025600001F040FF78B975B122692B699A420AD10E
:10257000AB69A2699A4206D8E2699A4203D96369B3
:102580006A6993430CD0256A75B10D4801F088FA49
:10259000002383F31188BFF36F8F0423184602DFF3
:1025A000E36801361C44CBE7484601F079FA636AD8
:1025B0001D60F5E700020001C4460001F94E00016C
:1025C000D04E00012DE9F04F87B00646009198B338
:1025D00001F054FE00270446B36BBB424ED94FF0C6
:1025E0000008DFF8ACA04FF000095AF8043BDFF810
:1025F000A4B05BF8045B01931D44274B93E80700EC
:1026000003AB83E8070019460C22284601F0EAFED6
:10261000019B00B9A5B909F10109B9F1070FE8D18A
:102620001E4B08F101089845DDD3009B13B1002231
:10263000636A1A60236A3BB3002007B0BDE8F08FDD
:102640002B6A174A9342EBD1AE42E9D0696B05F190
:102650003C038842E4D025691A6995420AD19A69F7
:10266000A569954206D8E569954203D962695D6915
:10267000AA4305D0DA6801301344EAE70120DCE719
:10268000009A0AB1626A1360E36801371C44A3E749
:10269000E850000194470001D0460001010000000D
:1026A000FFFF02910022D30003F1FF7303F5803393
:1026B000D3F80013013107D0D3F800130132D3F857
:1026C0000433202A0B60EED1224BD3E94C32072B86
:1026D00026D1023A032A204B28D9D3F80024D10767
:1026E00032D41C4BD3F83021072A19D1D3F8343116
:1026F000023B032B02D8194AD35C8BB17F23184AC3
:102700001849C2F818310023C1F8043EC1F8083E48
:10271000C2F82431C2F82C3102F57F22C2F8103100
:10272000114B1A68114BC3F84425704710498A5C55
:10273000002AD2D0D3F80024D207CED50022C3F885
:102740001421C3F81821C8E76FF00102C3F8002470
:10275000C7E700BF0000FF01005000412C4F0001FF
:1027600000200041000008410080FF01006000419E
:10277000304F0001014B1860704700BFB0010021CD
:1027800010B50B4B1446186850B90A490A484FF463
:10279000F37201F09BF94FF4F371064801F08DF9E3
:1027A00001F07CFD0028A4BF2070002010BD00BFF8
:1027B000B0010021344F00019C4900010123024A6D
:1027C0008340C2F80435704700F00041014B0020FF
:1027D0001B681847B4010021014B1B68184700BF54
:1027E000B401002110B50C4C237993B90123237156
:1027F0000A4B0028206018BF184600F0A5F850B911
:1028000023680748002B08BF1846BDE8104000F0B9
:1028100023B96FF0770010BDB4010021CD2700016E
:10282000D927000108B50C4B1A7942B90B490C485D
:10283000B12201F04BF9B121084801F03EF91B68C3
:1028400043B10520FEF750FC20B9BDE80840052043
:10285000FEF73CBC08BD00BFB4010021714F000170
:102860009C49000108B5114B1B7953B9104940F23E
:102870000512104801F02AF940F205110C4801F048
:102880001CF950B101280CD009494FF49272094843
:1028900001F01CF94FF49271F0E7BDE8084000F038
:1028A000EDB8BDE8084000F061B800BFB4010021F8
:1028B000714F00019C49000108B5114B1B7953B9B8
:1028C000104940F22B12104801F000F940F22B1190
:1028D0000C4801F0F2F828B1012807D1BDE8084002
:1028E00000F070B8BDE8084000F01AB905494FF48F
:1028F000A572054801F0EAF84FF4A571E8E700BFBA
:10290000B4010021714F00019C49000138B5012339
:102910000C4C42F21075C4F8083363600023C4F80D
:102920000031D4F80031D4F80C24D4F80C34D2039C
:1029300006D5DB0704D5012001F0AEFC013DF2D144
:1029400038BD00BF00500041064B0246187930B92F
:102950001A6001221A71044BC3F8142570476FF0F6
:1029600077007047BC0100210050004108B51149B3
:102970000B7943B910491148772201F0A7F8772164
:102980000D4801F09AF800220D4BC3F80021D3F84E
:10299000002101221A60096811B1C3F8042308BD9F
:1029A000D3F80021002AFBD00022C3F80021D3F87D
:1029B0000031F4E7BC010021AE4F00019C49000149
:1029C0000050004108B5084B1B7943B90749084836
:1029D000892201F07BF88921044801F06EF8BDE8F6
:1029E0000840FFF793BF00BFBC010021AE4F0001BC
:1029F0009C490001094BD3F80423D2070DD5D3F825
:102A0000002152B10022C3F80021D3F80021012295
:102A1000C3F80823024B1B68184770470050004159
:102A2000BC01002138B502230A4C42F21075C4F8EB
:102A300008330123E3600023C4F80431D4F80431DF
:102A4000D4F81834DB0304D5012001F025FC013D46
:102A5000F6D138BD00500041064B0246187930B916
:102A60001A6001221A71044BC3F8182570476FF0E1
:102A700077007047C40100210050004110B5244C7C
:102A8000237943B923492448E52201F01FF8E521C1
:102A9000204801F012F8214BD3F81814D3F8182469
:102AA000C90319D502F00302022A04D0012A01D079
:102AB000FFF7B8FF0122194BC3F818250022C3F80D
:102AC0000421D3F8042101229A6022688AB9D3F83C
:102AD0000421002AFBD014E0D3F81424D207E9D54E
:102AE000D3F81C2402F00302013A012AE0D822683C
:102AF0001AB10222C3F8042310BDD3F80421002A1E
:102B0000FBD00022C3F80421D3F80431F4E700BF5E
:102B1000C4010021F14F00019C4900010050004117
:102B200008B5094B1B7953B9084909484FF491720C
:102B300000F0CCFF4FF49171044800F0BEFFBDE8F7
:102B40000840FFF76FBF00BFC4010021F14F000133
:102B50009C490001F8B501261F4C204FD4F80453BE
:102B600005F0820505B9F8BDB5FA85F0C0F11F0082
:102B7000830003F580739BB203F1824303F5A04306
:102B8000196806FA00F225EA02050029EAD00021B8
:102B9000012819601B68C4F8082311D1D4F818342F
:102BA000D4F8183403F00303012B02D03B68984794
:102BB000D8E70222C4F81825C4F80423A360D1E79B
:102BC000074908484FF4F57200F080FF4FF4F571A3
:102BD000034800F072FF00BF00500041C401002113
:102BE000F14F00019C490001044AD2F80834DB0788
:102BF000FBD50160BFF35F8F704700BF0000084145
:102C000008B500F17F43B3F5802F05D2C0F30A0366
:102C10005BB16FF00C0016E00B490C48D12200F0BC
:102C200055FFD121084800F048FF0222084BC3F8A5
:102C300004254FF0FF320260D3F80024D207FBD501
:102C40000020C3F8040508BD345000019C49000170
:102C500000000841F8B50D460121044601F064FB6F
:102C600050B9104940F27F120F4800F02FFF40F298
:102C70007F110C4800F021FF14F0030708D0094928
:102C80004FF4C072084800F021FF4FF4C071F0E724
:102C9000064E2046C6F804152946FFF7A5FFC6F8DC
:102CA0000475F8BD345000019C4900010000084142
:102CB00010B5436904463BB90020E26840425378AE
:102CC00043F00103537010BD98470028F4D000F181
:102CD000FF03FE2B08D906490648212200F0F6FE24
:102CE0002121034800F0E9FEE36840421870E4E760
:102CF000705000019C49000138B50446EFF311857E
:102D0000202383F31288BFF36F8F01F07AFA042C2B
:102D100008D107490748872200F0D8FE87210448D8
:102D200000F0CBFE85F31188BFF36F8F38BD00BF75
:102D3000935000019C49000138B50A4B53F82040DC
:102D4000013053F82050A54200D838BD606830B13A
:102D5000037EDB0701D4FFF7ABFF0834F3E72368FA
:102D60009847FAE7B0470001012208B5094B032054
:102D70001A70FFF7E1FFFEF747FB01F01DFB04208F
:102D8000FFF7DAFFFDF722FC034A137B23F0010370
:102D9000137308BDD70100217000002108B5002081
:102DA000FFF7CAFF1E4B03F5006282F3088883F326
:102DB0000A88E0231B4C84F822300023E377237633
:102DC0006376A37684F82030626A42F4E02262627D
:102DD00084F82330FEF7FCF8FEF7E6F94FF0FF33F6
:102DE000114AA362E362114B93420AD91049114878
:102DF000CC2200F06BFECC210D4800F05EFE1C33AF
:102E0000F2E7FCD3FEF7F8FA0120FFF795FF022066
:102E1000FFF792FF002308481A461946FEF7A6F965
:102E2000D801002100ED00E06445000110450001DB
:102E3000B55000019C490001692D0001024B186842
:102E4000984208BF002070474000002130B570B1A3
:102E50000B4B5B6898420AD0036843B1D3E9042165
:102E6000D0E90445121941EB0501C3E90421D0E979
:102E7000003213605A600023C0E9003330BD00BF48
:102E8000400000212DE9F047EFF31185202383F363
:102E90001288BFF36F8FDFF89C900026C9F80000FE
:102EA0000027FFF7CBFFDFF89080D9F80030D8E992
:102EB00000ECD91750B1D0E90442A34271EB020AE9
:102EC00019DAE41A62EB0102C0E90442002413EBB0
:102ED0000E034CEB01012046C8E90031C9F800405F
:102EE00001F053FA214601F084F985F31188BFF30C
:102EF0006F8FBDE8F08714EB0E024CEBE473C0E972
:102F00000467C8E90023FFF7A1FF85F31188BFF329
:102F10006F8F83689847EFF31185202383F312881E
:102F2000BFF36F8FD9F800301B1BC9F80030FFF7D3
:102F300085FFBAE7CC010021F00000213F2A2DE9EE
:102F4000F041904652D905460C46A2F1400626F0C3
:102F50003F064036274F0E44236840341BBA2B648B
:102F600054F83C3C39461BBA6B6454F8383C28464C
:102F70001BBAAB6454F8343C1BBAEB6454F8303CD5
:102F80001BBA2B6554F82C3C1BBA6B6554F8283CD3
:102F90001BBAAB6554F8243C1BBAEB6554F8203CD3
:102FA0001BBA2B6654F81C3C1BBA6B6654F8183CD1
:102FB0001BBAAB6654F8143C1BBAEB6654F8103CD1
:102FC0001BBA2B6754F80C3C1BBA6B6754F8083CCF
:102FD0001BBAAB6754F8043C1BBAEB67FDF75CF90E
:102FE000B442B9D108F03F00BDE8F0811046BDE819
:102FF000F08100BFC84700010A4610B514681A499D
:1030000024BA0464546824BA4464946824BA846476
:10301000D46824BAC464146924BA0465546924BA0F
:103020004465946924BA8465D46924BAC465146A71
:1030300024BA0466546A24BA4466946A24BA84663C
:10304000D46A24BAC466146B24BA0467546B24BAD5
:103050004467946B24BA8467D26B12BAC267FDF7D7
:103060001BF9002010BD00BFC84700012DE9F04149
:103070000027B54CB54BB2B0CDE90043B44BB54ECB
:103080000293B54B1446CDE90363B44B0546059353
:10309000B34B3097069303F17453A3F52303A3F6C0
:1030A000924331920793002A40F0848080224FF0AF
:1030B0003A0C01236E460DEB02078DF880200020AC
:1030C0004FEA9C0203F1800E012A06EB0E0146F83E
:1030D0000E0024D0022A486021D0032A88601ED026
:1030E000042AC8601BD0052A086118D0062A486146
:1030F00015D0072A886112D0082AC8610FD0092A82
:1031000008620CD00A2A486209D00B2A886206D0CD
:103110000C2AC86203D00E2A086308BF48631CF05B
:10312000030F16D02CF0030C6344002103F1C802F6
:103130006A443A2B02F8481C0BD003F1C9026A44D6
:10314000392B02F8481C04D0CA330DEB030202F8F5
:10315000481C0023620F62F30703620D62F30F2322
:10316000620B62F317436209394662F31F6330460C
:10317000E400CDF8BB308DF8BF40FFF73DFFDDE93F
:103180000001DDE9022306BA14BA18BA09BADDE96A
:10319000042312BA69602A6119BADDE9062312BA5A
:1031A0001BBA2E60AC60E8606961AA61EB6132B065
:1031B000BDE8F0816E4630468846FFF7BFFE241A10
:1031C00008EB0403002800F0F580421E022A53D9C0
:1031D00058F8042020928208012A00F0E6805968FD
:1031E000022A219100F0BE809968032A229100F002
:1031F000E780D968042A239100F0E7801969052A3D
:10320000249100F0E7805969062A259100F0E780B3
:103210009969072A269100F0E780D969082A279141
:1032200000F0E780196A092A289100F0ED80596AB8
:103230000A2A299100F0B180996A0B2A2A9100F09C
:10324000F480D96A0C2A2B9100F00381196B0D2AA6
:103250002C9100F00981596B0E2A2D9106D00F2A6E
:10326000996B18BFDA6B2E9118BF2F9220F00307CD
:1032700082073B4400F0DE80197807F1C8026A44F7
:1032800002F8481C7A1C90420FD9591C0978C832A0
:1032900002376A44B84202F8481C06D99B7807F105
:1032A000C8020DEB020707F8483C8021431C00F1DF
:1032B000C8026A44382B309002F8481C6AD93F2B68
:1032C0002CD80022C8336B443E2803F8482C25D064
:1032D00000F1CA030DEB03013D2801F8482C1DD075
:1032E00000F1CB036B443C2803F8482C16D000F1C6
:1032F000CC036B443B2803F8482C0FD000F1CD03DE
:103300006B443A2803F8482C08D000F1CE036B44F4
:10331000382803F8482C01D18DF8BF2020AF39465A
:103320003046FFF769FE3A2803463CD8319CC3F18A
:103330003A02022A7FF6F9AE5A1C3B2AC3F13B0C33
:1033400088BF4FF0010CBAE667E6096A85AE67BB35
:1033500072F36E3C3AF54FA57F520E518C68059B77
:10336000ABD9831F082854D008273B4419467A1C40
:1033700011F801CB07F1C8046C44904204F848CC22
:1033800084D8802100F1C8030DEB03023090431C68
:1033900002F8481C319C20AFC9E7282800F088803B
:1033A00028273B44E2E7319CD3E6042826D00427B3
:1033B0003B44DBE78022012330908DF88020E9E751
:1033C0000C282CD00C273B44D0E710283BD01027EA
:1033D0003B44CBE7142841D014273B44C6E71828C8
:1033E00047D018273B44C1E71C2849D01C273B4441
:1033F000BCE7202850D020273B44B7E78022052394
:1034000030908DF88420C5E724283FD024273B4402
:10341000ACE78022092330908DF88820BAE780221B
:103420000D2330908DF88C20B4E72C283AD02C272F
:103430003B449BE7802100F1C8026A443090431C62
:1034400002F8481C3BE78022112330908DF8902031
:10345000A0E7302832D030273B4487E7802215236D
:1034600030908DF8942095E734282DD034273B44B4
:103470007CE718218022192330918DF8982089E764
:1034800080221D2330908DF89C2083E78022252305
:1034900030908DF8A4207DE78022212330908DF894
:1034A000A02077E780222D2330908DF8AC2071E7A3
:1034B0008022292330908DF8A8206BE780223123C9
:1034C00030908DF8B02065E78022352330908DF85C
:1034D000B4205FE72DE9F04F43688DB01546804674
:1034E000029383789A0740F10D8100240E78002E14
:1034F00000F00A81252E0BD04B1C0393013441466A
:103500003046029B98470028C0F2F6800399EDE709
:103510004E788B1C252E0393F0D00027B946BB466E
:10352000BBF11F0F38D8A6F12003102B0AD8DFE813
:1035300003F02A0909300909092109090928092D77
:1035400009091F00A6F13003092B33D92A2E37D1E0
:103550001BF0400F55F8043B40F08280002BA7BFC2
:103560004BF0200B9946C3F100094BF0280B01E00A
:103570004BF0010B039B13F8016B0393002ECFD18B
:1035800030E04BF0020B4BF0040BF3E74BF0080B71
:10359000F0E74BF0100BEDE7BBF17F0F19D8A6F168
:1035A0003003092BD2D81BF0400F03D00A2101FBB6
:1035B0000737DFE70A214BF0200B01FB0939D9E778
:1035C0002E2E06D11BF0400F40F09E804BF0400B9A
:1035D000D0E76C2E31D02BD8682E36D06A2E3CD056
:1035E0004C2E3AD0002F46F02003B8BF2BF04002FB
:1035F000A3F16501BCBF00271FFA82FB022901D994
:10360000612B2FD107350727DFF8ACA225F007057E
:1036100008351BF0080F66D00AEB070B56465E45CF
:1036200063D1A4EB0A0AA9EB070906EB0A026FE1D2
:10363000742E9FD07A2E9DD0D4E71BF0800F18BF38
:103640004BF4007B4BF0800B94E71BF4807F18BF9A
:103650004BF4007B4BF4807B8CE74BF4207B89E7B9
:103660001F4687E7A6F16301122900F2F080DFE828
:1036700011F013004F00EE00EE00EE00EE004F00E0
:10368000EE00EE00EE00EE00EE00FE00E900EE00BF
:10369000EE001B00EE00AF0055F8043B01270DF1D2
:1036A000180A8DF81830B4E755F804AB834BBAF11B
:1036B000000F08BF9A461BF0400F504614BF394612
:1036C0004FF0FF3100F09EFE0746A2E74146202062
:1036D000029B984700280FDB013EB742F6D34C44CB
:1036E000B146A41B98E74E46F7E7414616F8010B92
:1036F000029B9847002892DA98F8023043F00403BE
:1037000088F802304FF0FF3420460DB0BDE8F08F4E
:103710001BF0800F34D01BF4007F2CD0073525F030
:103720000705AA4669685AF8080B2BF0100500290E
:10373000ADB237DA404245F4806561EB41010DF1ED
:10374000180B0A235A4600F069FEA0EB0B03019305
:103750006B0662D5019B25F001019F4289B240F3BF
:10376000A180002E00F0998015F0100240F09C809E
:10377000BB460D4623E0AA465AF8040BC117D4E70E
:10378000AA461BF4807F5AF8041B01D10846F5E7CE
:103790001BF4007F19BF48B241F3C01108B241F3D6
:1037A000C031C2E750EA0103C9D11BF0400FC6D0B7
:1037B000002FC4D12BF01102BB46019795B240F205
:1037C000064115EA01021CBF0BF1010B00222CE09F
:1037D0002BF010020A231FFA82FB1BF0800C49D049
:1037E0001BF4007115BF0735AA4625F007055AF8E6
:1037F000040B1EBFAA4669685AF8080B50EA010577
:1038000045D12BF016051BF0400FADB242D0002F72
:1038100040D12BF01702019795B215F0100248D055
:10382000019B002E42D103F1010B29075AD4EB076B
:1038300006D5D9456FDDA9EB0B030199CB465F187F
:103840005B4649E04BF0100B10237826C5E7782B38
:1038500004D1C6F1780343F01003BEE741462520AA
:10386000029B98470028FFF647AF023447E608233B
:103870000026B2E7AA461BF480715AF8040BBDD0AB
:103880001BF400711ABFC0B2614680B2B6E72BF0DC
:10389000060295B20DF1180B54E725F01105BB4651
:1038A000ADB28CE70D46B8E73B460D4603F1020B7F
:1038B000BBE7DDF804B082E7DD500001D65000011F
:1038C000CDE9043241462020029B98470028FFF6AC
:1038D00013AF049B059A01339945F1DCA4EB0B016E
:1038E0009B46CC180AB341463020029B98470028DB
:1038F000FFF602AF8EB901342744391B019B994270
:1039000024DC1D4655BB019AA9EB0B095546224400
:103910001446914433E0019F92E702344146304619
:10392000029B98470028E7DAE6E640F206410D429E
:10393000E2D015F0020F04F10104414614BF2B2020
:10394000202015F4806F18BF2D20E9E74146302074
:10395000029B013498470028CFDACDE606AB013D43
:103960004146585D029B98470028CBDAC4E64146A1
:103970002020029B013498470028FFF6BDAEA9EB3A
:103980000403002BF3DCC1E57047836800EBC10141
:10399000B3F5004F2CBF51F8220031F812007047E8
:1039A00000EBC1018068B0F5004F2CBF41F8223018
:1039B00021F812307047012208B5FFF7E6FFD0402A
:1039C00008BD836800EBC101B3F5004F08D34B6815
:1039D0001AB143F001034B60704723F00103FAE78B
:1039E0004B881AB143F001034B80704723F0010369
:1039F000FAE753000122FFF7D3BF8368481CB3F5F1
:103A0000004F34BF042308230833A0EBD300B0FADF
:103A100080F0C0F11F0070472DE9F0410D46866827
:103A20000446FFF7C8FFB6F5004F014601D3012851
:103A300032D02046FFF7E1FF04EB80010E6996B912
:103A40000122E36882401343E36002220D612B46AA
:103A500029462046FFF7A4FF032229462046BDE859
:103A6000F041FFF79DBF022231462046FFF78DFF50
:103A70000746034629462046FFF792FF03223346B6
:103A800029462046FFF78CFF39462B462046FFF794
:103A900087FF02223146E1E7BDE8F0810020704750
:103AA0000FB407B504A951F8040B0191FCF79AFE75
:103AB00003B05DF804EB04B07047002383F3118872
:103AC000BFF36F8F0423184602DF70470FB407B5AA
:103AD00004A951F8040B0191FCF784FE03B05DF8D2
:103AE00004EB04B07047038B13F0070305D10368A0
:103AF000002B0CBF002003207047022B05D1408B08
:103B0000B0FA80F0400980007047012B05D10368AE
:103B1000002B0CBF0020052070470020704710B517
:103B20000C4600B111B96FF0150010BD081D00F072
:103B30003CF80028F9D1A368032BF6D9F3E72DE967
:103B4000F0410D4607461946281D90461E46FDF7D2
:103B500043F8044638B13346424629463846A4461F
:103B6000BDE8F0416047BDE8F08110B4EFF3118289
:103B7000202484F31288BFF36F8F416110BC0121B0
:103B8000FCF748BE38B50C46054658B151B10B6834
:103B900043B14B6833B11C22002100F01BFC002014
:103BA0002C6138BD6FF01500FBE7034658B1426841
:103BB00002F00302012A03D0032A04D1026812B1E1
:103BC0000020986070476FF01500704770470FB481
:103BD00007B504A951F8040B0191FCF703FE03B0EB
:103BE0005DF804EB04B0704743680A689A428FBFDF
:103BF00000234A6801209B1888BF18464B60704715
:103C0000F0B58368044685B0002B3CD0D0E904674A
:103C1000016A33448B4215D98269934235D8C06812
:103C200001AA394400F096F9002835D1DDE90112E6
:103C3000E06883689B6863B3984768BB236A029A0D
:103C400013442362626AA368B3FBF2F502FB1535E5
:103C50003DB12068551B2A4694F82810184400F0FE
:103C6000B9FBA368E06822683E442B4481684D6834
:103C70003146A84758B9E369ABB92369A268134430
:103C800023610023A360002001E06FF0210005B054
:103C9000F0BD6FF05700FAE70028F8DBD2E7135CBD
:103CA000DB4313540130A36822688342F7D8E068ED
:103CB00081680D683146A8470028E8D13246E3699B
:103CC000A168206898470028D7D0E0E72DE9F047A1
:103CD000894616469846044698B382680369134499
:103CE00082693344934230D80025D4E90170A6EBB1
:103CF000050A3F1ABA4515D2B54209D22368524681
:103D0000184409EB050100F058FBA3685344A36075
:103D1000B8F1000F1CD0A068A8B12046BDE8F0475C
:103D2000FFF76EBF23683A46184409EB050100F01F
:103D300044FB63682046A360FFF762FF18B93D4467
:103D4000D3E76FF00D00BDE8F0876FF00B00FAE7E6
:103D50004046F8E700F03EBB00F02FBB012801D140
:103D6000EFF30583FEF7C8BF01460068FFF7F6BF13
:103D700008B5FCF7D3FFBDE8084000F000B8704775
:103D800000210120FFF7EABF08B5FDF7E1F9FCF7D4
:103D90009DFFFCF7A7FFFDF70DFAFEF7FFFF61B6E9
:103DA00062B680F31188BFF36F8F7047EFF3118015
:103DB000202383F31288BFF36F8F704710B504463A
:103DC000FDF74EFA72B6002383F31188BFF36F8FAD
:103DD000FDF7C4FA50B1BFF34F8F20BF00BF00BF43
:103DE00000BF00BF00BF00BF00BF00BF84F3118849
:103DF000BFF36F8F62B610BD08B5FDF7F9F900206B
:103E000008BDF0B5D0F80473064617F002001CBFD9
:103E1000C2F1807018604FF0000518BF01204FF00C
:103E2000010C4FF4803E0CFA05F40C4214D00EFA4B
:103E300005F43C4210D005F5A87456F82440A41AA5
:103E400034F07F4408BF4FF0807408B91C6002E072
:103E50001868A042FAD801200135042DE3D1F0BD45
:103E6000FDF7ECB9F8B5069F0469C9B2EFF3118606
:103E7000202585F31288BFF36F8F0C2569430C440E
:103E8000256C05F0070CBCF1010F0BD1276486F3FC
:103E90001188BFF36F8FC4E90E2343685B589847BE
:103EA0000020F8BD05F0C005AF4286F31188BFF3CE
:103EB0006F8F0CBF6FF077004FF0FF30F1E713B555
:103EC00080240094FFF7CEFF02B010BD6FF0850094
:103ED000704710B41C240069CBB203FB040000211E
:103EE00010BC1047FEF71CBEFEF7C8BD8022FDF7D0
:103EF00055BBF7B51C460023164682682360A360B5
:103F00000D465369694601AA9847019B5A1E0192C2
:103F10001BB96FF0150003B0F0BD0098A2684768A8
:103F20002168676085B9B31AD0F800C0634528BF1F
:103F3000634603FB07111A442160A26002689A429B
:103F400006D808300090E0E76B1AB3FBF7F3EBE715
:103F50000020E0E713460022FFF7CBBF2DE9F04732
:103F60000024836886B0884691465B6902AA01A94D
:103F70009847A2462546029BAB4202D806B0BDE850
:103F8000F0870026019F07EBC5077B6804933A681A
:103F90000AEB0603B24202D89A460135EBE74946DE
:103FA0000394059303A8C0470028E7D0049B01367B
:103FB0001C44ECE710B50C4600F0CAF90023C4E934
:103FC0000003184610BD38B505460C4600F0C0F990
:103FD000002D07DBA84205D9401B84428CBF00207E
:103FE000012038BD0020FCE770B50C46154600F0F6
:103FF000B2F9294606462046FFF7E5FFC8B1B4FBF3
:10400000F6F306FB1343A3B9B5FBF6F306FB135314
:104010007BB9AE4201D9002070BD00F09CF9064684
:1040200004F180742046FEF7EBFDAD1B3444F9D15A
:10403000F1E76FF01500EFE770B50D461946284619
:1040400016461C46FFF7BFFF40B12CB12246304652
:1040500005F1807100F0B1F9002070BD6FF015001E
:10406000FBE730B543681360057A446804EBC50488
:10407000A34202D36FF0010030BD5C798C4201D0C5
:104080000833F0E70020F7E743681B68D3F88004A3
:10409000C3F88004704742681368D3F8100150B128
:1040A0000020126A12780A70C3F81001D3F81021A8
:1040B00001221A6070474FF0FF30704702680346D4
:1040C000D2F8580140B95B68DB0706D4D2F820016A
:1040D000003818BF012070470120704713B501AAAE
:1040E0000446FFF7BEFF002805DB019B2268197913
:1040F0001868FDF79DFC02B010BD2DE9F0410546A2
:10410000002201211320FCF7FDFF1320FCF7DEFF46
:104110006C680121E068FFF7E1FF6B6819682369AB
:10412000C1F82435A27D637D207D1343228B024399
:104130001343C1F86C356E68D6E9004313F00103F0
:104140003DD00027D5F8108004F10C01C4F8A0710F
:1041500008F10802C4F88C7004F5907000F0B8F80B
:1041600000282ADB98F80800FEF728FB0823C4F88B
:104170000035F369C4F844350123C4F84875A360D9
:10418000D4F85831002BFBD00021C4F800156D681D
:10419000E8682C68FFF7A2FF0823C4F800352A7AE4
:1041A00052B92B6AC4F834350123C4F83835C4F841
:1041B0001021D4F8102123600020BDE8F0810822EE
:1041C000C4F80025F269C4F84425C4F84835012331
:1041D000A360D4F82031002BFBD00023C4F8203199
:1041E000D4F820310123E3604FF48073C4F8043322
:1041F000C6E7704708B5FDF713FD08BD0222FDF7BD
:10420000DDBE002008B5FDF76DF9002070470020E5
:10421000704708B5FFF7F9FF08B9FFF7F8FF08BDC9
:1042200030B589B0154601230A460146684600F0BC
:104230000EF8044640B9202269462846FBF7FEFFE7
:10424000002808BF6FF06404204609B030BD08B5EF
:10425000FEF70CFF002008BD70B5054608460C4669
:10426000FEF704F82146024601232846BDE87040C7
:10427000FEF70CB84FF000535868704703465A6B6E
:1042800000233C309A4200D17047C1680133084492
:10429000F8E703460020184700F062B8024610B560
:1042A000116891B1B1FA81F3C3F11F00012383407A
:1042B00021EA0303D2E8EF4F8C4204D1C2E8EC3F7D
:1042C000BCF1000FF6D1EBD110BD6FF00B00FBE796
:1042D00070B5D0F880300646002B0C46154613DB2F
:1042E000D1F88030002B0FDB00210846FEF748FA9A
:1042F00048B92B7843F00043C6F880302B7843F060
:104300000043C4F8803070BD6FF01500FBE741F04A
:104310000041C0F880100020704708B5FEF76AFB26
:10432000BDE80840FEF716BC034603F17F42B2F534
:10433000802F08460AD351B103F17E4000F50040BA
:10434000B0F5607F2CBF002001207047012070472E
:104350004FF4802070474FF4006070478020704712
:1043600008B1FDF7ADB8704740B1C368587810F098
:1043700001001EBF1878B0FA80F040097047EFF3D3
:104380000580003818BF0120704708B50246FEF7C7
:1043900055FD70B1D0E904319B1A61EBE272B3F1C3
:1043A000004F72F1000104DA002AACBF1846002069
:1043B00008BD6FF00040FBE770470A44431E91427E
:1043C00000D1704710B511F8014B914203F8014F2D
:1043D000F9D110BD02440346934200D1704703F85F
:1043E000011BF9E70139024410B5904201D10020C8
:1043F00005E0037811F8014FA34201D0181B10BD4E
:104400000130F2E70246014410B58A42134603D058
:104410001C780132002CF8D1181A10BDF0B5C3F188
:104420003707044603F01F031046FFB2082BE6B21D
:1044300032D0102B3DD06508A40845EAC17544EA86
:1044400081748A082D1942EB5102290941EA02714F
:104450006D1842EB1212290A41EA02616D1842EB13
:104460001222290C41EA02416D1842EB1242AD18AA
:1044700042F10002EC0844EA4274D10804EB8402E1
:10448000A6EB4205EDB2092D0CD90134A5F10A05C0
:1044900041F10001EDB212E0E40806F0070544EA3C
:1044A0004174C908303554EA010200F8015BBDD1FE
:1044B000F0BD240906F00F0544EA01740909092D2D
:1044C00084BFED19EDB2EDE7091500010000000011
:1044D0000000000010450001000000002C45000114
:1044E0000919000100000000A11E000100000000E9
:1044F0001912000100000000000000004845000102
:104500002525000100000000B10C000100000000A2
:10451000334B0001104700016C46000148000021A8
:10452000380100214116000100000000A44B0001E9
:1045300030470001884600014C0000219401002111
:10454000FB400001000000004E4B00010000000095
:10455000544600014A0000210000000071190001CA
:104560000000000000000000813D0001000000008C
:10457000813D000100000000813D000100000000BD
:10458000813D000100000000813D00011B4300014E
:104590009342000100000000813D00010000000086
:1045A000813D000100000000813D0001000000008D
:1045B000813D000100000000813D0001000000007D
:1045C000813D000100000000813D0001000000006D
:1045D000813D000100000000813D0001000000005D
:1045E000813D000100000000813D0001000000004D
:1045F000813D000100000000813D0001000000003D
:10460000813D000100000000813D0001000000002C
:10461000813D000100000000651C00010000000059
:10462000813D000100000000813D0001000000000C
:10463000813D000100000000813D000100000000FC
:10464000813D000100000000813D000100000000EC
:10465000813D00013940000189190001E93F000155
:1046600069190001B53F000159190001CD3E000153
:10467000ED3E0001BF3E0001000000006915000191
:10468000000000000000000097400001711B0001C5
:0C46900089400001C24E00010300000040
:1046A000DEE61E284CBBCE8F02350000DEE61E285B
:1046B0004CBBCE8F02350000DEE61E288384518677
:1046C00002350100DEE61E28EAAC45B802350000DE
:1046D000DEE61E284CBBCE8F023500000000000035
:1046E0000338FDD870470000000000000002000001
:1046F000000400000006000000080000000E00009A
:104700000010000025150001111600010000000036
:104710006D17000199160001424B0001E93E0001AE
:10472000E53E0001484B00010400000000FF0000CE
:10473000003001410100000000000000544700016A
:104740000000D6010000000000000000D60100219A
:10475000D501002100300141604700010100000047
:104760006847000104000000210000000B00000267
:10477000200600010A0600030000000000020000FD
:10478000000400000006000000080000000E000009
:104790000010000000000000000200000004000003
:1047A0000006000000080000000E000000100000DD
:1047B000C8440001D0440001E8440001F044000175
:1047C0000845000110450001982F8A429144377135
:1047D000CFFBC0B5A5DBB5E95BC25639F111F15984
:1047E000A4823F92D55E1CAB98AA07D8015B8312C6
:1047F000BE853124C37D0C55745DBE72FEB1DE8072
:10480000A706DC9B74F19BC1C1699BE48647BEEFA0
:10481000C69DC10FCCA10C246F2CE92DAA84744A2B
:10482000DCA9B05CDA88F97652513E986DC631A8A1
:10483000C82703B0C77F59BFF30BE0C64791A7D580
:104840005163CA0667292914850AB72738211B2E08
:10485000FC6D2C4D130D385354730A65BB0A6A76F0
:104860002EC9C281852C7292A1E8BFA24B661AA8FC
:10487000708B4BC2A3516CC719E892D1240699D60C
:1048800085350EF470A06A1016C1A419086C371E85
:104890004C774827B5BCB034B30C1C394AAAD84E63
:1048A0004FCA9C5BF36F2E68EE828F746F63A5789E
:1048B0001478C8840802C78CFAFFBE90EB6C50A431
:1048C000F7A3F9BEF27871C6466C6173682064651F
:1048D00076696365206E6F742072656164790A0081
:1048E0004661696C656420746F2070726F746563D3
:1048F000742062306E20666C6173682C2063616E78
:1049000063656C20737461727475700A0D00556E66
:1049100061626C6520746F2066696E642076616CDC
:104920006964206669726D7761726520696E73696A
:1049300064652025700A0D004661696C6564207409
:104940006F207472616E7366657220696D61676550
:104950003A2025640A0D004661696C656420746F15
:104960002070726F746563742061707020666C6172
:1049700073683A2025640A0D00574553545F544F1D
:10498000504449522F7A65706879722F6C69622F92
:10499000686561702F686561702E630041535345EF
:1049A0005254494F4E204641494C20402025733AED
:1049B00025640A00574553545F544F504449522FC1
:1049C0007A65706879722F6C69622F7574696C737F
:1049D0002F6F6E6F66662E6300574553545F544FBA
:1049E000504449522F7A65706879722F6C69622F32
:1049F0007574696C732F6E6F746966792E63002A03
:104A00002A2A20426F6F74696E67206E52462043D7
:104A10006F6E6E6563742053444B2076332E322EB6
:104A200039392D3766653361333661653962362031
:104A30002A2A2A0A002A2A2A205573696E67205AD0
:104A40006570687972204F532076342E332E3939B1
:104A50002D396261396338643139333461202A2A4F
:104A60002A0A00574553545F544F504449522F7AF5
:104A700065706879722F617263682F61726D2F6340
:104A80006F72652F636F727465785F6D2F666175E5
:104A90006C742E6300574553545F544F5044495231
:104AA0002F7A65706879722F617263682F61726DF9
:104AB0002F636F72652F636F727465785F6D2F69F6
:104AC00072715F6D616E6167652E63005745535467
:104AD0005F544F504449522F7A65706879722F7332
:104AE0006F632F6E6F726469632F6E726635332F3A
:104AF000736F632E6300574553545F544F504449BE
:104B0000522F7A65706879722F6472697665727354
:104B10002F636C6F636B5F636F6E74726F6C2F6368
:104B20006C6F636B5F636F6E74726F6C5F6E7266D7
:104B30002E6300636C6F636B40343130303530303E
:104B400030006866636C6B006C66636C6B00666C4F
:104B50006173682D636F6E74726F6C6C6572403434
:104B60003130383030303000574553545F544F5057
:104B70004449522F6D6F64756C65732F68616C2F9B
:104B80006E6F726469632F6E7266782F68616C2F26
:104B90006E72665F6770696F2E6800000102030421
:104BA0000506070B75617274403431303133303093
:104BB0003000574553545F544F504449522F6E7242
:104BC000662F6C69622F6670726F746563742F66EE
:104BD00070726F746563745F61636C2E6300574518
:104BE00053545F544F504449522F6D6F64756C6538
:104BF000732F68616C2F6E6F726469632F6E7266BB
:104C0000782F68616C2F6E72665F61636C2E68002E
:104C1000426F6F74696E67202830782578292E0DD1
:104C20000A004661696C656420746F2070726F764B
:104C300069646520657874204150497320746F2041
:104C4000696D6167652C20626F6F742061626F729D
:104C50007465642E0D0A0025633A20496E76616CF6
:104C60006964206669726D7761726520696E666F2E
:104C700020666F726D61742E0A0025633A205468B5
:104C800065206669726D7761726520646F65736E09
:104C900027742062656C6F6E672061742064657391
:104CA00074696E6174696F6E20616464722E0A00AB
:104CB00025633A2073726320616E642064737420EC
:104CC0006D75737420626520657175616C20666F07
:104CD00072206C6F63616C2063616C6C732E0A00D0
:104CE00025633A204669726D7761726520696E6648
:104CF0006F20646F65736E277420706F696E742007
:104D0000746F20697473656C662E0A0025633A20FF
:104D10004669726D776172652068617320626565AE
:104D20006E20696E76616C6964617465643A2030E6
:104D30007825782E0A0025633A20547279696E67C7
:104D400020746F20676574204669726D77617265A3
:104D50002076657273696F6E0A0025633A20466992
:104D6000726D7761726520696E666F206973206E5F
:104D70006F742077697468696E207369676E656403
:104D800020726567696F6E2E0A0025633A20426FB4
:104D90006F742061646472657373206973206E6F31
:104DA000742077697468696E207369676E65642022
:104DB000726567696F6E2E0A0025633A205265732B
:104DC00065742068616E646C6572206973206E6F13
:104DD000742077697468696E207369676E656420F2
:104DE000726567696F6E2E0A0025633A20436F75FE
:104DF0006C64206E6F742066696E642076616C69E5
:104E000064206669726D776172652076616C696491
:104E10006174696F6E20696E666F2E0A0025633AB1
:104E20002056616C69646174696F6E20696E666F8B
:104E300020646F65736E27742062656C6F6E6720E7
:104E4000746F2074686973206669726D776172652A
:104E50002E0A0025633A20626C5F63727970746F6A
:104E60005F696E697428292072657475726E656455
:104E70002025642E0A0025633A204669726D776109
:104E800072652076616C69646174696F6E20666119
:104E9000696C65642077697468206572726F72202E
:104EA00025642E0A0025633A204669726D77617287
:104EB0006520686173682076657269666965642E2D
:104EC0000A00626C5F76616C69646174696F6E0080
:104ED0004552524F523A2043616E6E6F7420667590
:104EE0006C66696C6C204558545F4150492072656E
:104EF00071756573742E0D0A005741524E494E4725
:104F00003A204F7074696F6E616C204558545F4150
:104F100050492072657175657374206E6F742066D8
:104F2000756C66696C6C65642E0D0A0000000001EA
:104F300001000000574553545F544F504449522FCD
:104F40006D6F64756C65732F68616C2F6E6F726422
:104F500069632F6E7266782F68656C706572732F47
:104F60006E7266785F677070695F647070692E63D7
:104F700000574553545F544F504449522F6D6F644E
:104F8000756C65732F68616C2F6E6F726469632F27
:104F90006E7266782F647269766572732F737263AE
:104FA0002F6E7266785F636C6F636B2E630057457C
:104FB00053545F544F504449522F6D6F64756C6564
:104FC000732F68616C2F6E6F726469632F6E7266E7
:104FD000782F647269766572732F7372632F6E72A5
:104FE00066785F636C6F636B5F6866636C6B2E6380
:104FF00000574553545F544F504449522F6D6F64CE
:10500000756C65732F68616C2F6E6F726469632FA6
:105010006E7266782F647269766572732F7372632D
:105020002F6E7266785F636C6F636B5F6C66636C28
:105030006B2E6300574553545F544F504449522FD1
:105040006D6F64756C65732F68616C2F6E6F726421
:1050500069632F6E7266782F647269766572732F3A
:105060007372632F6E7266785F6E766D632E630067
:10507000574553545F544F504449522F7A657068D6
:1050800079722F6B65726E656C2F646576696365E6
:105090002E6300574553545F544F504449522F7A62
:1050A00065706879722F6B65726E656C2F666174BE
:1050B000616C2E6300574553545F544F504449521E
:1050C0002F7A65706879722F6B65726E656C2F69C7
:1050D0006E69742E6300286E756C6C29002A666CEC
:1050E0006F61742A00000000000000012DE9F04308
:1050F000DFF818C0064F86464FF004584FF4803949
:10510000A7EB0C0770460047BDE8F08300000021C4
:10511000280000219D3A000100000000F93D000137
:1051200000000000000000000090D00340000021BB
:1051300040000021000000000000000015E015E024
:1085A800008800010088000101000000FFFFFA5068
:1085B800C03E178B66CAB4764818BDC458E133CCA0
:1088000088AD0021DD3603011B9B0301C93603013E
:10881000C9360301C9360301C9360301000000004F
:1088200000000000000000000000000039380301D3
:10883000C936030100000000D9370301C93603011E
:10884000A9390301A9390301A9390301A939030190
:10885000A9390301A9390301A9390301A939030180
:108860001FA30301A9390301A9390301A939030190
:1088700035A30301A9390301A9390301A93903016A
:10888000A939030105A30301A9390301A93903018A
:10889000A9390301A9390301A9390301A939030140
:1088A000A9390301A9390301A9390301A939030130
:1088B000A9390301A93903010000000000000000EC
:1088C00000000000000000000000000000000000A8
:1088D0000000000000000000000000000000000098
:1088E0000000000000000000000000000000000088
:1088F0000000000000000000000000000000000078
:108900000000000000000000000000000000000067
:108910000000000000000000000000000000000057
:108920000000000000000000000000000000000047
:108930000000000000000000000000000000000037
:108940000000000000000000000000000000000027
:108950000000000000000000000000000000000017
:108960000000000000000000000000000000000007
:1089700000000000000000000000000000000000F7
:1089800000000000000000000000000000000000E7
:1089900000000000000000000000000000000000D7
:1089A00000000000000000000000000000000000C7
:1089B00000000000000000000000000000000000B7
:1089C00000000000000000000000000000000000A7
:1089D0000000000000000000000000000000000097
:1089E0000000000000000000000000000000000087
:1089F0000000000000000000000000000000000077
:108A0000DEE61E284CBBCE8F023500003C00000085
:108A10005C50030001000000008800010088000194
:108A2000FFFF0291000000000000000000000000B5
:108A3000000000000000000000000000054B0022C4
:108A40001B78826001330260034A4260C371FF23D6
:108A500003727047880A002180010800064A074B0C
:108A600002604FF424729B7882800822C371002335
:108A700082710372704700BF5B090301880A0021FD
:108A8000064A074B02604FF43E72DB788280082270
:108A9000C371002382710372704700BF6F05030129
:108AA000880A0021064A074B02604FF4C472DB7A41
:108AB00082800822C371FF2382710372704700BF56
:108AC000C5FF0201880A0021054A064B0260B82250
:108AD000DB7B82800822C371FF238271037270479F
:108AE000790A0301880A0021054A064B0260D02258
:108AF0009B7D82800822C3710123827103727047BB
:108B0000D9170201880A0021054A064B0260A022FB
:108B10005B7E82800822C3710223827103727047D8
:108B2000651B0101880A0021064A074B02604FF4C9
:108B300008729B7E82800822C371002382710372B7
:108B4000704700BFF1120101880A0021064A074B55
:108B500002604FF4A472DB7E82800822C371FF237F
:108B600082710372704700BF39100301880A002127
:108B7000044B1A7F002303608360034B4360C27180
:108B8000704700BF880A002100010800044B5A7F8B
:108B9000002303608360034B4360C271704700BFD2
:108BA000880A002100010800064A9378D27813440D
:108BB000002282600260044A4260C371FF23037294
:108BC000704700BF880A0021880008002DE9F341A2
:108BD000C41D0028064624F007040CBF00202046D0
:108BE00000F066FD071E04DA6FF00B0002B0BDE86E
:108BF000F081374DE988A88803316B7A03302A7AEF
:108C000089B280B221F0E7FE0028EDDB3C44A97870
:108C1000EB78002E04F10304194424F0030400FB54
:108C200001F10CBF0020204600F0E4FE20440EB904
:108C30000028D9DBEA7A0446B2B1EB7B697C1344A5
:108C40001944FF29D0D80330002EAA89C9B220F0D8
:108C500003040CBF0020204600F03EFF0028C3DBC9
:108C600004440EB9002CBFDB012000F017FDB0B1A9
:108C7000A97BA1B195F82A3033B340234FF4817218
:108C80000734002E24F007040CBF0020204605F016
:108C90009DFC0028A8DB04440EB9002CA4DBAB7AB1
:108CA000FBB1EB7AB3B10734002EA97A24F00704A4
:108CB0000CBF0020204611F007FD002894DB04447F
:108CC0007EB9002C0DDA8FE725232822D8E700BFD4
:108CD000880A0021012000F0E1FC10B1AB7B002BE1
:108CE000E1D1734B1B6893B1A97D81B10334002E90
:108CF000EA7D24F003040CBF00202046984700289A
:108D0000FFF672AF044416B9002CFFF66DAF694B45
:108D10001B688BB1297C79B10334002E24F0030445
:108D20000CBF0020204698470028FFF65DAF0444A2
:108D300016B9002CFFF658AF5F4B1F68B7B1697CBE
:108D4000A1B10334002E2B7D24F0030408BF0020C2
:108D5000009318BF2046EB7CAA7CB8470028FFF69A
:108D600043AF044416B9002CFFF63EAF072000F0D5
:108D700095FC98B1A97D89B10334002E2A7E24F098
:108D800003040CBF0020204601F016F80028FFF66F
:108D90002BAF044416B9002CFFF626AFB6FA86F7BF
:108DA00095F823007F09A0B103346B7FA97E24F0DE
:108DB000070419443B4644F00404C9B2224601F0BA
:108DC0003BF80028FFF610AF044416B9002CFFF65C
:108DD0000BAF95F8241000294CD004F10708002EA1
:108DE000EA8C28F007080CBF0020404621F007FE5F
:108DF000041EFFF6F9AE4444002E3ED1002CFFF6CF
:108E0000F3AEA97F002945D095F82230002B41D040
:108E10002A8C0734002E02F1240224F007080CBF2C
:108E20000020404692B221F0EAFD0028FFF6DCAEB9
:108E3000404416B90028FFF6D7AE03302B7FA97E39
:108E400020F0070019443B4640F0040495F8220046
:108E5000C9B2224600F0E2FF0028FFF6C5AE044486
:108E600086B9002CFFF6C0AEEB6AF3B1C6B1EC6276
:108E70000020BBE6002EC4D08846E98C40461DF099
:108E800067F9BEE72A8C4046A97F083292B21DF0EE
:108E9000CFFBE9E7002EE7D0002211461046F6E7A7
:108EA00028343FF5A1AE2046A0E6002EE0D1FAE737
:108EB0006000002164000021680000211FB572B627
:108EC000194B1C6BECB9BFF34F8F1849184BCA688C
:108ED00002F4E0621343CB60BFF34F8F00BFFDE7A6
:108EE000B2FBF6F22B465D1C002AF9D1DBB203F18E
:108EF00010056D4405F80C2C0A2233B901A8A047CF
:108F0000E1E7024600230A26EDE7013BDBB203F16D
:108F100010050DEB0506B0FBF2F502FB1500303035
:108F200006F80C0C2846E8E7880A002100ED00E06E
:108F30000400FA0513B5124C68462389ADF80030D9
:108F4000E388ADF80430A388ADF802300DF0D6FF09
:108F500018B1FC219C20FFF7B1FF207D0EF03AF8FC
:108F600008B1FF21F6E7E07C0EF02EF810B14FF4C7
:108F70008071EFE794F828001AF058FF02B010BD96
:108F8000880A002138B5054600283DD020F0FCF9BC
:108F900010B94FF0FF3038BD1EF0E4F8B0F5FA7F9D
:108FA000F7D81B4C002125631B2504F10F0084F822
:108FB00034102A46217084F82A10E16220F0B8FCAF
:108FC0000123032108200222A370E370E372A3743B
:108FD0002376F72321722384FB23A0721F20A17321
:108FE0004921E3840A23A580E5806272A081E174AF
:108FF000E27584F82830EFF3108472B600F056FF63
:1090000004B962B60020C6E76FF01500C3E700BFE1
:10901000880A002138B51446002840F0C480634D0A
:1090200095F83430032B00F0BB80B9B112B96FF062
:10903000150038BD0139172900F2B580DFE801F0CD
:109040000C1D20366069873C6C6F814248565B8DF1
:10905000909FA2A596B3B3A81378AB700020FFF73A
:10906000B5FD0028B7BF012302236FF00B0085F880
:109070003430A8BF85F83430DBE71378EB70EDE7C8
:109080001379002BD3D05379002BD0D01288FB2A30
:10909000CDD863881B3B9BB2E02BC8D81A2AC6D90F
:1090A0002368A2886B60424B9A80D7E71378EA7BEB
:1090B0009342BCD3EB72D1E71378EA7A9342B6D8E5
:1090C000EB73CBE71378EA7A9342B0D86B74C5E7B9
:1090D0001378002BABD05378013BDBB2F82BA6D82A
:1090E000138892786B82334B9A70B7E71078687563
:1090F00018F0E6F9B2E71378002B98D02B76ADE79D
:10910000012000F0CBFA237808B1012B8FD9AB7383
:10911000A4E71388AB81A1E71378AB759EE707201E
:1091200000F0BCFA10B92378012B80D9072000F099
:10913000B5FA18B12378002B3FF479AF2378EB759B
:109140008CE71378082B3FF672AF2B7486E71388F1
:10915000FF2B3FF66CAFAB7280E713786B767DE741
:1091600013780E2B3FF663AFAB7677E72368124A8E
:10917000C5F81E3063685360238913816EE7137846
