:020000040000FA
:10000000A0720520F51B0000D9740000E11B000060
:10001000E11B0000E11B0000E11B0000E11B0000F0
:10002000000000000000000000000000C51C0000EF
:10003000E11B000000000000E11B0000E11B0000CC
:10004000191E0000191E0000191E0000191E0000D4
:10005000191E0000191E0000191E0000191E0000C4
:10006000A5300000191E0000191E0000191E000016
:10007000191E0000191E0000191E0000191E0000A4
:10008000191E0000191E0000191E0000191E000094
:10009000191E0000191E0000191E0000191E000084
:1000A000191E0000191E0000191E0000191E000074
:1000B000191E0000191E0000191E0000191E000064
:1000C000191E0000191E0000191E0000191E000054
:1000D000191E0000191E0000191E0000191E000044
:1000E000191E0000191E0000191E0000191E000034
:1000F000191E0000191E0000191E0000191E000024
:10010000191E0000191E0000191E0000191E000013
:10011000191E0000191E0000191E0000191E000003
:10012000191E0000191E0000191E0000191E0000F3
:10013000191E0000191E0000191E0000191E0000E3
:10014000191E0000191E0000191E0000191E0000D3
:10015000191E000053B94AB9002908BF00281CBF66
:100160004FF0FF314FF0FF3000F00CB8ADF1080C4C
:100170006DE904CE00F008F8DDF804E0DDE90223C3
:1001800004B07047704700BF2DE9F04786468C46A3
:100190000846089E154674461946002B40F0C1805B
:1001A0008542B2FA82F245D94AB1C2F1200300FA7F
:1001B00002FC954094402EFA03F343EA0C0C4FEAFC
:1001C000154EA8B2230CBCFBFEF80EFB18CC08FBA6
:1001D00000F943EA0C43994528D9EB1808F1FF3799
:1001E00004D2994502D9A8F102072B44A3EB0903D5
:1001F000A4B2B3FBFEFC0EFB1C330CFB00F044EA84
:100200000344A04214D92C190CF1FF3304D2A042AC
:1002100002D9ACF102032C44241A43EA07401EB170
:10022000D440002334607360BDE8F0874746DDE7C3
:100230006346F1E792BB431B01214FEA154EAFB273
:10024000200CB3FBFEFC0EFB1C330CFB07F840EA52
:100250000343984561D9EB180CF1FF3004D298455F
:1002600002D9ACF102002B44A3EB0803A4B2B3FB08
:10027000FEFC0EFB1C330CFB07F744EA0344A742C9
:100280004DD92C190CF1FF3304D2A74202D9ACF19D
:1002900002032C44E41B43EA0040C0E7C2F1200300
:1002A0009540944020FA03F12EFA03F34FEA154EDD
:1002B0009040AFB20343B1FBFEFC0EFB1C10190CC7
:1002C0000CFB07F841EA0041884522D969180CF176
:1002D000FF3004D2884502D9ACF102002944A1EBD9
:1002E00008019BB2B1FBFEFC0EFB1C110CFB07F7D7
:1002F00043EA01439F420ED9EB180CF1FF3104D2BF
:100300009F4202D9ACF102012B44DB1B41EA0041C0
:1003100093E76046E3E76146F7E76046A4E7634694
:10032000B8E7834206D916B9002108467CE7C6E93A
:1003300000E0F9E7B3FA83F78FB9834201D372453E
:1003400008D8BEEB020460EB030301209C461EB9F3
:10035000002169E73846FAE7C6E9004CF8E7C7F13B
:10036000200CBB400EFA07F522FA0CF42EFA0CF121
:10037000BA401C4320FA0CF3B8404FEA1449014339
:100380001FFA84FEB3FBF9F809FB18300B0C08FBCD
:100390000EFA43EA00439A4540D9E31808F1FF30CA
:1003A00004D29A4502D9A8F102002344A3EB0A0320
:1003B00089B2B3FBF9F809FB183308FB0EFE41EADA
:1003C00003418E452CD9611808F1FF3304D28E45C4
:1003D00002D9A8F10203214443EA0040A1EB0E0137
:1003E000A0FB02984145CE46434602D306D14D4577
:1003F00004D20138B9EB020E68EB0403002EA7D03B
:10040000B5EB0E0261EB030101FA0CFC22FA07F3D3
:10041000F9404CEA0303C6E9003199E74046C5E7D5
:100420004346D9E730B5434B434A4921C2F8003629
:10043000C2F80436C2F80836C2F80C36C2F81036D4
:10044000C2F81436C2F81836C2F81C3602F58052CB
:10045000C2F800363948C2F8043687B0C2F8083608
:10046000C2F80C36C2F81036C2F81436C2F8183684
:10047000C2F81C3606F07DFF00F096F803A800F0E5
:10048000A7FF2F4B1B68834204D045212D4806F05F
:1004900070FFFEE74921059A2B4806F06AFF039991
:1004A0002A484B7D0A7DC98A0091492106F061FFE7
:1004B0004921274806F05DFF4FF48031002003F00A
:1004C00073FA20B14521234806F053FFFEE70120CF
:1004D00003F050FB9DF8100002A900F043F8044619
:1004E00008B107F052F8029A059B1B4D1344039A7A
:1004F000128913442B6003F03FFA00F0E5FF00F08F
:10050000C7FF01F0A7FB84F30B8884F30A882B68EC
:100510001B6883F3088884F31488BFF36F8FBFF3DD
:100520006F8F2B6858680D4B984745210C4806F093
:1005300020FFFEE73546526E0080015092A8000071
:10054000DC220120ABA80000CEA80000FDA800001E
:100550001BA9000040A90000D82200200120002093
:1005600073A90000024608B538B1054800234521AB
:1005700006F0FFFE6FF0150008BD0860FCE700BF45
:1005800096A9000021B1012906D06FF0150070472F
:10059000044B53F830007047024B03EBC00358681C
:1005A000704700BFC8A300004FF4C051014804F0D9
:1005B00041B800BF802901202DE9F04FD5B0609CE3
:1005C000DFF85C810DF13009D8F8005003945F9C8E
:1005D000CDF8049002945E9C824600948B461646A9
:1005E000619F06F0C3FA28B1D8F80050284655B0EC
:1005F000BDE8F08F57B14A4614AC134603CBA34273
:10060000386079601A4607F10807F6D100233246B0
:10061000009359464FF6FF7306A806F0ECFA07461A
:100620000028E1D1314650460B9C06F08EFBA042DB
:10063000DAD34FF0FF34DFF8ECB00DF1120304AA67
:1006400005A906A806F025FB0028CDDB64D1059995
:1006500006A806F06AFB50B94FF6FF71BDF812000C
:10066000314A32F8023B8B42BED09842F9D1BDF8F4
:1006700012A0BAF1100F17D0BAF1200F2BD0BAF197
:10068000010FDAD1BDF81030202BADD830460599D6
:1006900014AA06F089FE0028A6D19DF8101014A80F
:1006A00000F046F80446C8E7BDF81070202F9BD133
:1006B0003B463046059914AA06F076FE002893D1F1
:1006C0003A46484614A906F03EFB184B1B68834285
:1006D0008AD10127B1E7002C1BDBDBF800309C42FC
:1006E00017DABDF81030B3F5807F7FF47DAF304668
:1006F000059914AA06F058FE00287FF475AFE4B2FD
:1007000051464846BDF81030009414AA00F0DCF8B9
:1007100005464FF0FF3490E7002F7FF467AF63E7A3
:1007200048200020D8A3000064A80000DC2201209B
:100730002DE9F041202980460D46A2B005D94FF0A1
:10074000FF34204622B0BDE8F0810024114B124E48
:100750001F68BC42F3DA08A808F0F5FD002108A8DC
:1007600004F0A0F8736808A81A6856F8081B08F087
:10077000F3FD694608A808F02EFE08A808F0E7FD7A
:100780002A464146684609F0BDFB0028D9D001340D
:10079000DFE700BFD8A30000DCA300002DE9F0478D
:1007A00089461946464BADF5AE6D1E68DDF89035AD
:1007B000B3F5807F7ED1202A7CD15CAA04F02AF890
:1007C0000446002876D19DF86F32BC2B72D10DF112
:1007D0009008DF27454601900AA808F0B4FD0021E3
:1007E0000AA804F05FF820220DF24F210AA808F0B1
:1007F000B3FD04220AA80DEB020108F0ADFD02A929
:100800000AA808F0E8FD0AA808F0A1FD202FBA46C2
:10081000A8BF4FF0200A9DF80730404601335246EA
:1008200002A9A7EB0A078DF8073009F03CFB002F5F
:10083000D044D1DCAC462946DF225CAB087813F803
:10084000017B013A80EA070001F8010BF6D12B7811
:1008500003F07F032B701CF8017B5FBB0134BE2CBF
:10086000F9D195F8BE30012B24D10AA808F06BFD10
:1008700039460AA804F016F8082212490AA808F016
:100880006BFD494620220AA808F066FD20220DF2E1
:100890004F110AA808F060FD02A90AA808F09BFD04
:1008A0000AA808F054FD20220DF24F2102A806F0FC
:1008B0004AFA064630460DF5AE6DBDE8F08700BF3A
:1008C00048200020BCA900002DE9F04F9A46A3B0B3
:1008D0002F4B074604A89DF8B0501E6888469146E5
:1008E00008F0F2FC0922012104A803F055FF294B6E
:1008F00003AA53F8354003EBC5035B6802941B68F9
:1009000002A81C442146302307F0C5FD002838D139
:10091000DDE9023213449C4233D1214606AA02A8E3
:1009200007F0CDFD68BB0DF1200B5A46214602A809
:1009300007F0C5FD054620BB06A808F072F9029B2A
:1009400005909C421DD12B462A46CDE9005B06A9A5
:1009500004A808F076FCA0B904A803F035FF80B91C
:1009600006A808F05EF9059004A808F0B1FC50450F
:1009700007D100904B464246394604A8FFF70EFFC8
:10098000064604A808F0A6FC304623B0BDE8F08F68
:1009900048200020DCA30000034637B54FF4006276
:1009A000084693F8BC4013490192620051F8225066
:1009B000A8420ED1582101FB043201FB0434526AD3
:1009C000283401A906F05FFD08B9019B236003B03C
:1009D00030BD013251F82220904208D1582101FB4C
:1009E000043201FB0433126D03F15404E9E70120E2
:1009F000EDE700BFE4A30000F8B55826174B184FE9
:100A0000002914BF0A461A4690F8BC30044606FB7B
:100A1000030102EB83354D6205F500425D000A6576
:100A200057F82510FFF7B8FFA0B96B1C204657F800
:100A30002310FFF7B1FF054670B994F8BC7006FBB0
:100A40000746306A06F0EFFC04EB8704C4F8B400F4
:100A50002846F8BD0125FBE70925F9E7DC2200203F
:100A6000E4A300002DE9F74F9946836880468B4246
:100A70000C46154657D95B1A934254D3B9F1000F6F
:100A800042D06A4606F057F800284EDB013CDDF8FC
:100A900000A02C44264E274D274F6A46214640464B
:100AA00006F049F8002840DBDDE9004B40465A4695
:100AB000214606F0A3FC002837DBC6F80056C6F82E
:100AC0000456C6F80856C6F80C56C6F81056C6F8AE
:100AD0001456C6F81856C6F81C56C7F80056C7F87C
:100AE0000456C7F80856C7F80C56C7F81056C7F88A
:100AF0001456C7F81856C7F81C56B9F1000F0DD098
:100B0000544512D9013CC8E701396A46294406F028
:100B100012F8002809DBDDF800A0BBE75C44A24521
:100B200003D30134B9E74FF0FF3003B0BDE8F08FD5
:100B3000008001503546526E00900150582210B589
:100B400090F8BC3053432C2202FB01314218146A46
:100B50000CB906F01AFD41580B4B994206D1D168E9
:100B600013895B1802D25189C91801D3002009E00A
:100B7000A3689942FAD2136940F60C621A420CBF7C
:100B80000120002010BD00BF3DB8F3962C23582152
:100B900030B5534390F8BC5085B001FB0532024498
:100BA000126A0AB906F0F1FC11FB05310023CDE908
:100BB000023301934FF4807301440093024BFFF71B
:100BC000FBFC05B030BD00BF8041012058232DE95A
:100BD000F74F90F8BC4005465C432C2303FB0144CF
:100BE0000444D4F820800E469346B8F1000F01D19A
:100BF00006F0CBFC06F01DF9074610B92369DB06A9
:100C000005D5394B1C68204603B0BDE8F08F31464E
:100C10002846FFF793FF80B9344B1C68344B1B68A0
:100C2000A3421DD0D6B10121404606F0FDF8314A5D
:100C30004521314806F09DFBE3E7314695F8BC00BD
:100C400002F0A2FF04462D4B1B689842E6D13246C3
:100C500059462846FFF79AFF0446DFE7284AE7E7A8
:100C6000582295F8BC3002FB0352D26C9045CAD191
:100C70000022012B01921AD02BB901272A6AD2E94E
:100C800001A20AEB0209582253432C2202FB06332D
:100C90002B441989042340460DEB0302083106F06A
:100CA00083FB50B1452195F8BC201648C2E71F468A
:100CB0004FF08279DFF850A0E5E7002FA3D0019B29
:100CC000534501D34B459ED395F8BC2045210F4891
:100CD00006F04FFB45210E4806F04BFB31464046DF
:100CE00006F0A2F88DE700BF442000204820002035
:100CF000DC220120CCA90000D6A900004020002061
:100D0000C4A90000FEA900000088000128AA000074
:100D100079AA000000487047E02601202DE9F84F2D
:100D2000884691469A460026DFF88CB0234D244C25
:100D30000B9B9E4201D300200FE00B9B40469F1B64
:100D4000B7F5806F28BF4FF480671B4A3B4606EB20
:100D50000A0106F029FB10B10120BDE8F88F0A99BD
:100D60003B465A464846711806F033FB0028F3D13B
:100D7000144BC5F800463E44C5F80446C5F808467D
:100D8000C5F80C46C5F81046C5F81446C5F818460F
:100D9000C5F81C46C3F80046C3F80446C3F8084625
:100DA000C3F80C46C3F81046C3F81446C3F81846F7
:100DB000C3F81C46BCE700BFE022012000800150C0
:100DC0003546526E009001502DE9F04F97B0044621
:100DD0000F4606F0ABF80646002800F0F8804521E3
:100DE000B84806F0C6FAFEE7234493F8BD1039BBB5
:100DF0002046FFF701FE8246A0B900222046114698
:100E000006F02DF88346002857D05721484694F81D
:100E1000BC2006F0AEFA012294F8BC30234483F8DB
:100E2000B0200DE04FF400625721404606F0A1FAD1
:100E3000012294F8BC309245234483F8B020DCD1E1
:100E400094F8BC300133DBB2012B84F8BC30CBD931
:100E50004FF00008DFF8709219F8011B012913D137
:100E60004046FFF78FFB10A9C0B200F0F3FC034629
:100E700028B910981946826806F0C0FA034642461F
:100E80004521924806F075FAB8F1000F00F0A680EF
:100E9000002D00F0FC8000234FF02C085825012B7A
:100EA00084F8BC3000F2F380E21892F8BD100029FB
:100EB00000F097800133DBB2F1E7204600F094FAAE
:100EC0000028A8D00CA806F061F806F068F8824661
:100ED000A0B994F8BC307BB194F8B020042A04BFC8
:100EE000012284F8B020012B06D094F8B130042BF5
:100EF00002D1012384F8B13006F047FB9DF837306A
:100F0000012B51D1582294F8BC30CDF840B002FBEF
:100F100003436F4AD96AD86C91422DD1998E04232C
:100F200010AA194406F040FA08B34FF0050B94F8E4
:100F3000BC30234483F8B0B094F8BC3073B1E218ED
:100F400092F8B020012A3FF47BAF042A0DD094F828
:100F5000B020042A02D1012284F8B020234493F85F
:100F6000B030023B022B3FF66BAF554668E70221DB
:100F700094F8BC30544AD15494F8BC0002F0B0FE4E
:100F8000831E022B8346D2D8012120460CAAFFF7EC
:100F90001DFE504B1B689842C9D04F4B1B689842AE
:100FA000C3D14FF0010BC2E7012120460CAAFFF785
:100FB0000DFE484B1B68984218BF052294F8BC30C0
:100FC00008BF9DF83720234483F8B020B4E70346D8
:100FD0000546DFF80881DFF8089135E74FF0010892
:100FE0003AE792F8B01001F0FB01013918BF012176
:100FF00008FB01F105FB03122244D2F82090B9F15D
:10100000000F3FF479AF03FB051101230093402348
:101010004A4621440DEB030005F0EDFD002863D1A5
:1010200000230DF11E0208A910A805F032FE0028C9
:101030002DDB40F09E81BDF81E300C2B56D148466A
:10104000089909AA06F0B0F908BB9DF82430012BD5
:101050001DD8E21892F8B0200AA9023A022A94BFD9
:101060002C20002005FB03001430204405F026FF4F
:101070000028D5DA94F8BC30234493F8B020012A34
:101080001DD0023A012A02D8012283F8B02000259F
:101090004FF0580B012D84F8BC502CD90023DFF8F9
:1010A00044900C4DDFF830801093012B84F8BC3055
:1010B00040F21C81109A022A00F05E81FEE70422B1
:1010C000E3E700BFA0AA0000804201203FAB000080
:1010D0003DB8F396DC22012044200020D1AA000074
:1010E00013AB0000482000200328D0D140F20113A8
:1010F000A4F8B030CBE7621992F8BD80B8F1000FC8
:1011000040F0EF800CA805F041FF92F8B030042BBE
:101110008DF8373008D8012B08D800F0D0804FF078
:10112000FF3382F8B030CAE0052BF6E70BFB05432E
:10113000194628462C31DA6C07F0FDF801280146E3
:1011400040F0CC80204610AACDF8408005F000FE8B
:10115000054600287FF4D0AE94F8BC3049211A46E9
:101160009648039306F005F94921954806F001F9E0
:1011700094F8BC300BFB0343D3F82080B8F1000F88
:101180003FF4BAAED3F84CA0BAF1000F3FF4B4AEBE
:10119000A9469B6A0493049A94F8BC304A451FD030
:1011A000582202FB03435B6A294603EBC9035A68D2
:1011B000404600230592FFF755FC00287FF49CAEC3
:1011C000059A109B15449D42C0F0858094F8BC2080
:1011D00004EB8202D2F8B450B3FBF5F305FB0355E0
:1011E00094F8BC3004EB8303D3F8B40005F00FFE91
:1011F000582394F8BC2003FB0242536A926A196890
:10120000013A03EBC2030022D3F804E09C46724487
:101210009042A3F10803F7D8DCF800000023411A3C
:101220004046FFF71FFC814600287FF465AE2B4641
:101230004921039A634806F09CF84B4642465146C2
:101240002046CDE90095FFF769FD00287FF454AEF4
:10125000404602F0CDFC00287FF44EAE4FF0580817
:1012600094F8BC002A4608FB0043196A07F071F89D
:10127000034600287FF440AE94F8BC20014608FBEA
:101280000242126D5046526805F0C6FD0346002822
:101290007FF432AE94F8BC2008FB0242D2E914027B
:1012A000013A50F83250016800EBC20CDCF804201F
:1012B0005046691A05F0B0FD00287FF41DAE94F881
:1012C000BC30234493F8B030FF2B0AD145213E486F
:1012D00006F04FF810E609F101095CE70028EED0AE
:1012E0000AE694F8BC500135EDB2D3E6234493F8F6
:1012F000BD208DF824209DF8241001F0FF0239B1A3
:10130000109B0133109394F8BC300133DBB2CCE670
:1013100093F8B030012B12D01146204605F09FFD06
:1013200068B1D9F80050102200210CA808F0E2FDA5
:10133000204605F0DBFD284617B0BDE8F08F0022FF
:1013400020461146FFF742FC2B689842E9D1D9F8B4
:1013500000309842E5D0D8F800309842E1D0002122
:10136000204605F0C1FD0028CAD0DAE784F8BC2089
:1013700020E094F8BC309DE594F8BD302BB194F892
:10138000BE30002BF2D101263346582505FB064618
:1013900084F8BC30306A05F0CCFB387194F8BC306E
:1013A00005FB03431B6A5B68BB6094F8BC3003FB1E
:1013B00005453D60054B1D68B5E700BF60AB00000B
:1013C00095AB0000B3AB0000FDAB0000DC220120B8
:1013D00010B50446002005F00FFD02482146FFF736
:1013E000F3FC10BDE02601205822F8B590F8BC307F
:1013F00002FB0300D0F828C0466DBCF5006F02D890
:10140000B6F5006F36D957211E4805F0B2FF00200F
:10141000F8BDA54216D1476A07EBC2077F680132C3
:101420003D44076D07EBC3077F6801333C44944597
:10143000EFD89E42EDD8944501D19E4220D057214D
:101440001148E2E70CD2476A022907EBC2077F681E
:101450003D4402D157210D48D7E701210132E6E78B
:10146000076D012907EBC3077F683C44F2D00221D6
:101470000133DCE700210B460A460C460D46D6E751
:101480000120C5E709AC00006FAC000038AC0000DB
:10149000BFF36F8F72B600234FF0FF30094A03F19C
:1014A00020010133102B42F82100F8D100234FF026
:1014B000FF30044A03F160010133102B42F8210090
:1014C000F8D1704700E100E04FF0FF3301212DE932
:1014D000F04300253D4A3E4E51603E4FC2F848332E
:1014E000DFF8F480C2F8083302F58052516085B00D
:1014F000C2F84833C2F808334FF0FF3956F8044BAE
:1015000044F30730C4F8089300F0FCFB0123636048
:1015100000236846C4F84C31D4F84C21C4F810318B
:10152000D4F81021C4F84431D4F84421C4F800356B
:10153000D4F80C25DFF8A4C00092D4F81425019249
:10154000D4F808250292D4F81025C4F80C9503921B
:10155000C4F81495C4F80895C4F8109550F8042BF5
:10156000511C0FD002F01F01520928D0012A28D1A6
:10157000624602EB8102D2F80012394041F00201CA
:10158000C2F800120133042BE8D180220021A018F8
:1015900008F0B0FC8022002104F5C07008F0AAFC1D
:1015A0005DB14FF0FF330E4AC2F808354FF05022BC
:1015B000C2F8083305B0BDE8F08301259CE7424638
:1015C000D7E70023803153F82130FFDE004001507F
:1015D000F8A30000F0F0FCFF0025845000288450A0
:1015E00000700150014B1B68184700BF4C200020C1
:1015F000014B1860704700BF4C20002030B585B00B
:1016000004460D4610220021684608F073FC0223B0
:101610008DF80230044B2A4621466846019305F0B6
:101620003DF905B030BD00BFE51500002DE9F047DC
:10163000058B04462807904611D4022905F00705BA
:1016400040F0CC80204605F0BCFD78B10138218BFC
:10165000042811D8DFE800F0C2106D85950001293B
:101660000CBF45F0100545F02005258388F311884F
:10167000BFF36F8FBDE8F08701F0070AAA4500F0BD
:10168000A5800027B9463E46A368002B00F0BC8029
:1016900041F00801218388F31188BFF36F8FA1689F
:1016A000002900F0BA800D68002900F0B6803346AA
:1016B00052462046D1F80480C047002D76D02B68D2
:1016C00029461D46F0E701F007035A1F012A1BD8DF
:1016D000002221F00701062B276889B2C4E9002205
:1016E00009D13B4603E0628B013262831B68002B09
:1016F000F9D141F002012046218305F062FD002866
:101700007AD041F0200176E0042B0AD121F00701C4
:1017100089B22046218305F054FD10B141F020012B
:101720002183218B01F0070AAA454FD00027B94633
:10173000AAE7236921F0070141F00601062DD3F83D
:10174000009021832DD1B9F1000F3FD041F0080165
:10175000218388F31188BFF36F8F20463949C8472A
:1017600029E021F00701236941F0040189B2042D29
:10177000D3F804902183E6D000274FF0040A3E46B8
:1017800082E721F00701236941F0050189B2052DA7
:10179000D3F808902183D6D000274FF0050A3E46A3
:1017A00072E700274FF0060A3E466DE72B4687E7B3
:1017B000B9F1000FD1D1EFF31188202383F3128800
:1017C000BFF36F8F238B23F008032383258BEA0657
:1017D0002ED525F01003238305F007056669218BBC
:1017E000002EBFF670AF00232768C4E9003321F054
:1017F000070141F001012183218B4FF0000901F025
:10180000070AAA457FF440AF002F9CD041F00801A1
:10181000218388F31188BFF36F8F002FC8D03D68F4
:10182000394633465246204605F0F7FC2F46F4E78A
:10183000AB067FF51BAF25F02003238305F00705DA
:1018400000E700BF47720000014B036000207047B3
:1018500000A4000070B5104B0D461C68B4B10F4BCE
:10186000196800238B4202DB6FF0010070BD224635
:1018700012F8106B864202D014460133F2E7E0689A
:1018800008F098FA28B100202C60EFE76FF00C0008
:10189000ECE76FF01200E9E75020002000A4000000
:1018A00010B5436888B0029383680C46CDE90332D3
:1018B00000230A68C068CDE90623054901AA0593FB
:1018C00005F035FF079808B9059B236008B010BDE7
:1018D0004374000008B5054805F066FC044805F0AF
:1018E00063FC044805F060FC002008BDABAD0000BF
:1018F000E3AD000017AE0000014804F0C9BE00BF10
:10190000B4A4000008B50348034A0021121A05F0E8
:10191000D5FD08BD302200209C420520074808B5AF
:10192000074A0849121A05F0CBFDBDE808400648F1
:10193000064A0749121A05F0C3BD00BF4020002027
:101940003022002050B00000002000204020002065
:1019500010B0000030BFFFF7FDBF00BF154B9A6A03
:1019600012F0007F9A6A14BF1E201D2012F0807FA3
:101970009A6A18BF1F2012F4801F9A6A18BF0220AB
:1019800012F4002F9A6A18BF212012F4802F9A6A4D
:1019900018BF222012F4003F9A6A18BF232012F4C5
:1019A000803F9A6A18BF24206FEA02426FEA12420F
:1019B0009A62704700ED00E010B5194B0246986A34
:1019C0009C6A10F4805F14BF1720162014F4006F77
:1019D0009C6A18BF1820A40509D5986B986A000462
:1019E00004D51AB19A6A22F400429A6219200C4B6B
:1019F0009A6A12F4806F9A6A18BF1A20D2050CD422
:101A00009B6A13F4005F18BF1C20054A936A43F4D5
:101A10007F43936200230B7010BD1B20F5E700BFCE
:101A200000ED00E010B51C4B0246986A9C6A10F06D
:101A3000100F14BF1120102014F0080F9C6A18BF5B
:101A40001220A40709D5586B986A000604D51AB16C
:101A50009A6A22F080029A6213200F4B9A6A12F05F
:101A6000010F9A6A18BF142012F0200F9A6A18BF4B
:101A70001520D40658BF9B6A074B9A6A920642BF4C
:101A80005A6A22F400525A629A6A42F0FF029A623B
:101A900000230B7010BD00BF00ED00E0F0B5474B18
:101AA00004465B6800258BB0C3F3080385F31188F7
:101AB000BFF36F8F02F07F40B0F17F4F11D102F082
:101AC0000C0008280DD010074CBF0C460125002241
:101AD000033B8DF80720032B05D8DFE803F02462D1
:101AE000665F2C46F3E700239DF80720CAB902AED3
:101AF00004F12007324620686168083403C2BC4202
:101B00001646F7D1099A002D53D0C2F3080121B926
:101B10006FEA52226FEA42220992184602A905F0A2
:101B2000D1FC0BB0F0BD254BDA6A9107DBD4DA6A41
:101B3000002AD8DBDA6A5200D5D55A69A16942F485
:101B400080725A61BFF34F8FBFF36F8F5A6931F8BC
:101B5000021C22F480725A61BFF34F8FBFF36F8F64
:101B60004DF60272914209D09A6AD2B242B1012076
:101B70000DF10701FFF756FF0346B5E72368B3E70A
:101B80009A6A12F47F4F05D001200DF10701FFF78B
:101B900013FFF1E79B6AB3F5803FA4D3FFF7DEFEA6
:101BA000EAE700200DF10701E4E700200DF107014D
:101BB000EDE722F4FF7222F00102ADE700ED00E054
:101BC000064B5A6942F010025A615A6942F4806227
:101BD0005A615A6922F008025A61704700ED00E02C
:101BE000EFF30880EFF3098101B57246FFF756FF66
:101BF00001BD00BF002080F31488BFF36F8F002069
:101C000080F30A8880F30B880F4880F3088802F07D
:101C100023FF00200D490860BFF34F8F00F02CF820
:101C2000202080F311880A484FF40061401880F3A7
:101C30000988EFF314800221084380F31488BFF36E
:101C40006F8F00F0A5F80000A072052094ED00E071
:101C5000A0420520002318460649D1F89020C2F37F
:101C60000722934200DB7047C1F89830C1F8A0000A
:101C70000133F6E700ED00E010B572B6002484F3FE
:101C80001388FFF7E7FF23464FF0FF300C4A03F1BC
:101C900020010133102B42F82100F8D100234FF02E
:101CA000FF30074A03F160010133102B42F8210095
:101CB000F8D162B6BFF34F8FBFF36F8F10BD00BF77
:101CC00000E100E01EF0040F0CBFEFF30880EFF31B
:101CD0000980816911F8021C0229FFD001B5724602
:101CE00005F0F6FB01BD00BF40B2002807DB012371
:101CF0004109034A00F01F00834042F82130704739
:101D000000E100E040B200280CDB01220649430953
:101D100000F01F008240203341F82320BFF34F8F93
:101D2000BFF36F8F704700BF00E100E0054B420931
:101D300053F82220012300F01F0003FA00F01040A6
:101D4000704700BF00E100E040B2002801F101014E
:101D5000ACBF00F16040064B4FEA4111C9B2ABBFC6
:101D600000F5614000F00F0080F80013195470472F
:101D700014ED00E0044B054A23F07F039360BFF3AA
:101D80004F8FBFF36F8F70470000000000ED00E041
:101D900008B5FFF7EFFF074AD2F8883023F4700345
:101DA000C2F88830FFF7AEFDFFF7B8FD00F028F865
:101DB00004F00AFA00ED00E0154680B506460C4630
:101DC000002282F30B880A4FA7F5205888F30B886E
:101DD00087F30988002004498847204629461A4687
:101DE000B04702488047FEE7F1740000FF7400002E
:101DF000A07205201022014B1A61704700ED00E02F
:101E0000002320210348C2180133452B82F8001318
:101E1000F9D1704700E100E008B5EFF30583064A09
:101E2000103B02EBC30152F8330049688847BDE814
:101E3000084005F058BB00BFC0A000000121024BC4
:101E4000024A034800F0ECB8000007200020002000
:101E5000BCA4000010B50C7A0B6804F01F0223F03C
:101E60001F031A43CB68640923F01F03054943EAA3
:101E7000440343F00103C1F89800C1F89C20C1F865
:101E8000A03010BD00ED00E010B5074BD3F8903046
:101E9000C3F30723013B984202D8FFF7DBFF10BDD5
:101EA0006FF01500FBE700BF00ED00E02DE9F04FFB
:101EB0000F46144606464FF000084D4D85B0B84514
:101EC00080F29280D6F80490B9F1000F36D0B9F1C3
:101ED0001F0F40F2878019F01F0F40F08380D6F863
:101EE00000A01AF01F0F7DD1504605F02CFB834651
:101EF00009EB0A00013805F026FB834572D11BF17E
:101F0000160F6FD05C456DDDC5F898B0D5F89C1004
:101F1000C5F898B0D5F8A03021F01F0143F01F0A92
:101F2000D6E900321A44994202F1FF391ED1CA455E
:101F300008D131465FFA8BF005F00EFB08F101087D
:101F40000C36BCE73146C5F898B0D5F89C3022F085
:101F50001F0203F01F031343C5F89C30E0B205F0E5
:101F6000FBFA10F1160F3DD0441CE7E7C5F898B016
:101F7000D5F8A020013B23F01F0302F01F021343FA
:101F8000CA453146E0B2C5F8A030E8D005F0E4FA21
:101F900010F1160F26D0C5F898B0D5F89C209DF802
:101FA00008300AF1FF3A62F304038DF80830D5F8DF
:101FB000A0309DF808205B0863F347128DF80820D5
:101FC000D6E900321344009323F01F035344A3EBDC
:101FD0000903013023F01F036946C0B20393FFF7E2
:101FE00053FFBEE76FF01504204605B0BDE8F08F43
:101FF00000ED00E00522044BC3F89420BFF34F8F9F
:10200000BFF36F8F704700BF00ED00E0BFF35F8F3D
:102010000022024BC3F89420704700BF00ED00E09F
:1020200010B5034C2278FFF741FF207010BD00BFB0
:1020300082420120F0B55249524CD1F890302568C7
:10204000C3F307239D4287B000F296800020FFF77C
:10205000DDFF4D4BC1F8C030854216D14B4C01A875
:102060002570FFF7F1FB00250646494FAE4213D11C
:10207000002023784249D1F89020C2F307229342EE
:1020800074DBFFF7B7FF002043E0616801EB00114C
:10209000FFF7E0FE0130DFE70199280101EB0513AE
:1020A000DA683A40B2F5800F42D007D8B2F5801F07
:1020B00015D0B2F5001F2ED00135D7E7B2F1006F71
:1020C00043D0B2F1805FF7D15A689B680958013B51
:1020D00022F01F00034423F01F03012032E05A685E
:1020E0009B680958013B22F01F00034401208446ED
:1020F00023F01F0340EA4C10CDE902218DF81000B7
:1021000002A920780593FFF7BFFE00282ADA6FF0B6
:10211000150007B0F0BD5A689B680958013B22F0D2
:102120001F0003444FF0020C012023F01F03E1E7DE
:102130005A689B680958013B22F01F0003440220A3
:1021400023F01F034FF0000CD4E75A689B6809582E
:10215000013B22F01F0003444FF0030C012023F049
:102160001F03C7E7237801332370A5E7C1F8983030
:10217000C1F8A00001337EE74FF0FF30C9E700BF90
:1021800000ED00E0C8A40000AAFF44008242012044
:102190000000F0FF08B5024B1B689847002008BDFF
:1021A000A0270120034B044A1860937843F00203F0
:1021B00093707047A02701205420002008B50548DF
:1021C00004F0F2FF002383F31188BFF36F8F042321
:1021D000184602DF54AE000008B50649064821F053
:1021E0000701C1F1005202F5E02204F083FF002054
:1021F00008BD00BFA7720520A4270120054B03EBF3
:102200008000D0F8003223F0E04343F04053C0F8A0
:102210000032704700258450052370B5144D154ECB
:102220002C780134B4FBF3F303EB8303E41A06F0D8
:102230004FF8114A137823B156F82430C01A0728F2
:1022400014D94FF05023D3F8141141B10021C3F831
:102250001411D3F814312C700CB9012313702C789D
:1022600006F036F846F82400012070BD0020FCE797
:1022700084420120B027012083420120012208B5B9
:102280000B4B0C49C3F8002502230020C1F8D036BF
:10229000FFF7B4FF1046FFF7B1FFC1F80427C1F8FC
:1022A0000429C1F8002BBDE8084000F09DB800BF2C
:1022B000001000500040005007B500220D4B0E49A1
:1022C000C3F8A821C3F8AC204FF48062C3F8B82546
:1022D0004FF400620948C3F83C250DF1070207F0EE
:1022E00002F9002803DB9DF8070002F0ABFC03B005
:1022F0005DF804FB00A002502CA0025028A102505F
:1023000048B1054B054A1B68B3FBF2F35843044B35
:1023100043F00103184770477421002040420F002A
:10232000C0A30000002170B5104C114D114E0007E4
:1023300014F8013B03F01F025B090FD0012B0FD1F2
:10234000334603EB8203D3F80022013122F0E0424E
:1023500002430429C3F80022EAD170BD2B46F0E7FE
:102360000023803253F82230FFDE00BF61AE000050
:1023700000258450002884502DE9F04106460120B4
:102380000D46FFF7CFFF4FF47F03D3F83021D3F88A
:102390003431072A20D1023B032B02D8114AD35CE7
:1023A000D3B14FF050244FF0010800270520C4F8A6
:1023B0001886C4F8147607F061F84046C4F814860D
:1023C00007F05CF8C4F81476C4F8187630462B464B
:1023D000BDE8F041002118474FF050230022C3F818
:1023E0001426F3E75DAE00000149024804F038BF4F
:1023F000F0A40000C427012008B54FF0FF323F23AE
:102400000348C0E9002302F009FC002008BD00BF1A
:10241000E0270120044BD3F80425D20744BF002253
:10242000C3F80425704700BF00D00050084B70B5BA
:10243000C31A0D4607499B100446594340220648DB
:1024400005F0C5F82B4601462046BDE87040184708
:10245000FC270120B76DDBB6E09F0000402373B579
:102460000B4C0093041B0B460D460A49A410614314
:102470000646094A094805F0D5F8011E05DA304636
:102480002B4602B0BDE87040184702B070BD00BFD7
:10249000FC270120B76DDBB693760000E09F0000BB
:1024A0002DE9F0470022012107460520FFF74CFCEB
:1024B000124802F0E7FB0446D0B902F017FC2546AB
:1024C0004FF01C0A4FF00C08DFF834903E69494683
:1024D0000AFB056004F0C4FE031E0CDB012308FBAD
:1024E00005661D44042DB367F0D12046BDE8F08792
:1024F0006FF00404F9E71C46F7E700BFFD25000074
:10250000FCA4000010B5EFF31184202383F312889C
:10251000BFF36F8F074A136823F00201DB071160D6
:1025200002D4012007F00DF884F31188BFF36F8FF8
:1025300010BD00BF9C2801200C22104B014602FB5D
:102540000033002030B4D3E91C521867EFF3118038
:10255000202484F31288BFF36F8F9C6F04F0C004B3
:1025600044F002049C6780F31188BFF36F8F1DB1A4
:102570002B4630BC0248184730BC7047FC2701206E
:10258000E09F000010B4EFF31182202383F3128840
:10259000BFF36F8F1748016841F002040460C80759
:1025A00007D482F31188BFF36F8F012010BC06F0AF
:1025B000B9BF4FF05021D1F80C04D1F80C14C90761
:1025C000EFD5EFF3118083F31288BFF36F8F0A49C1
:1025D0008B6F03F0C00343F002038B6780F3118815
:1025E000BFF36F8F82F31188BFF36F8F002010BC91
:1025F000FFF7A2BF9C280120FC270120092813D83F
:10260000DFE800F005101212121212120E0C074B26
:10261000986F10F0070007D1FFF78EBF0220FBE78D
:102620000320F9E70120F7E7704700BFFC270120EE
:102630002DE9F843012207463449D1E8EF3FC1E8CC
:10264000E02F0028F9D133B9314932484B60CB60D3
:102650008A6004F018FE7B1E012B2DD8012F07D1B4
:102660004FF05023D3F81C3403F00303022B23D084
:1026700007F0C5FB054608BB274B1B78F3B14FF0AD
:10268000502302220646C3F808234FF050244FF08F
:102690000008DFF88890D4F81824D4F81834D2034E
:1026A00015D503F00303022B01D0012F0FD135B351
:1026B00086F31188BFF36F8FBDE8F883EFF31186BF
:1026C000202383F31288BFF36F8F0125DDE73046A7
:1026D00004F01DFFD4F81835DBB2012BDBD1D4F8A0
:1026E0000421002AD7D0C4F80481D4F8042102229E
:1026F000C4F818252022C9F88021A360CBE74FF049
:1027000050230222C3F80423D6E700BFF827012094
:10271000E8270120182801209B42052000E100E065
:1027200008B5074807F046FB38B10648FFF73AFD01
:102730000448FEF75DFF002008BD6FF01200FBE7C4
:1027400034A00000492700000A2838B50446074D88
:1027500004D1AB680D2128465B689847AB680348F5
:102760005B68E1B29847204638BD00BF34A0000046
:102770004FF47F03D3F83021D3F83431072A05D141
:10278000023B032B04D8034AD05C704700207047FB
:102790000120704791AE0000024B0B6001231360D3
:1027A000704700BFA4A500000048704738A500008E
:1027B0000268154BFF2A08BF4FF0FF32C3F82425EB
:1027C0004268FF2A08BF4FF0FF32C3F8282582680D
:1027D000FF2A08BF4FF0FF32C3F83025C268FF2A36
:1027E00008BF4FF0FF32C3F834250269FF2A08BF43
:1027F0004FF0FF32C3F838254269FF2A08BF4FF077
:10280000FF32C3F83C25704700B002502DE9F04775
:10281000436890B05E6B0546002130460AAA05F079
:102820009BFA041E71DB0A9B32681979186800F064
:1028300033FB041E69DB002201212B20FFF784FA01
:10284000286905F040F8D5F804802A6940465449C3
:1028500003F080F8041E50DB524E0AAC0FCE0FC4BA
:1028600096E8030000230DF104090193C9E901333F
:10287000AB2384E803008DF804304B4B0AA8D3F84F
:10288000242504AED2B20492D3F82825D2B2059200
:10289000D3F83025D2B20692D3F83425D2B20792BB
:1028A000D3F83825D2B20892D3F83C35DBB209937D
:1028B000FFF77EFF012003F0C5F807463046FFF71B
:1028C00077FF37BB3946484604F083FF041E14DB0C
:1028D000232007F053FA4FF0030A9F2339460AA832
:1028E000CDE90A77CDF81090CDF814A08DF82830F6
:1028F0000C9604F06EFF041E0EDA284604F043FF27
:1029000003F0BCF808B103F0A9F8204610B0BDE808
:10291000F0876FF00404F0E75246494608F13000B2
:1029200007F0F0FA0446002834D16A68537F023B6E
:10293000012B2DD9177F023F022F8CBF00270127C3
:1029400004F074FF002828DBC2B2C0F38010874275
:10295000D3D00023012182F040020AA8ADF8003054
:102960000A938DF80020CDF810D005910C938DF8C6
:1029700028100B9604F02DFF04460028BDD104F06A
:1029800055FF041E01DBE307F9D404EAE474B4E75D
:102990000127D5E76FF01204AFE70446ADE700BFAB
:1029A000A777000090A3000000B00250024B0B601C
:1029B00001231360704700BFAC2801200048704716
:1029C000ACA5000010B507F01CF9034C206007F01F
:1029D00015F96060002010BDAC2801202DE9F04100
:1029E0000D461946284616461C4605F014F978B3DC
:1029F00014B90020BDE8F08115F003070CD0C7F131
:102A00000407A74228BF2746314628463A4602F027
:102A1000C9FC3D443E44E41B002724F00308B845AC
:102A200007EB05000FD16FF00302A30802FB03427E
:102A30001AB106EB080102F0B5FC074AD2F80034DF
:102A4000DB07FBD5D5E7F15902F09CFC0437E6E73C
:102A50006FF01500CEE700BF00900350024B0B60F3
:102A600001231360704700BFB4A500000048704701
:102A7000BCA50000B1F5802F30B51ED2C1F5802075
:102A800083421AD841EA030010F0030015D14FF039
:102A9000FF350B4C2560984206D30A481344014485
:102AA0009A4203D1002030BD0430F4E712F8014B04
:102AB0000878204001F8010BF2E76FF01500F2E70B
:102AC0008542012089420120B1F5802F104608B5CA
:102AD0001A4609D2C1F580239A4205D8044B1944FD
:102AE00007F0E1F9002008BD6FF01500FBE700BF1B
:102AF0008942012008B54FF48022FF21024807F0E7
:102B0000F9F9002008BD00BF89420120B1F5802FEE
:102B100038B51DD2C1F580239A4219D841EA020581
:102B2000C5F30B05A5B90C4B21F47F6121F00F0112
:102B3000140B0B44A54201D1002038BD18464FF4B8
:102B40008052FF2107F0D6F9013500F58053F1E7F7
:102B50006FF01500F1E700BF894201204FF4802398
:102B600001480B60704700BF89420120F0B54568FD
:102B70001646A8682A7C01F01F0487B044EA421474
:102B8000002868D0B6F5001F04D1214607F021F8CF
:102B9000002051E00020B6F5800F01AA019050609E
:102BA00037D1B3F1007F14BF052304238DF804301F
:102BB0000023CDE904230393EB680DF1030723FA07
:102BC00001F111F0010139D1B6F1A07F36D104F045
:102BD0001F03620903F1800326D0012A3ED1214A56
:102BE00052F82330DB0729D43A462146A86806F07C
:102BF00083FF16301AD002972146A86803AA06F070
:102C000047FE002818DB01222146A86806F08FFF46
:102C1000BEE7B3F1C06F05D0B3F1007F14BF01234D
:102C20000223C3E70323C1E70F4AD9E73946A8685F
:102C300002F082FA0028DEDA07B0F0BD3A462146FB
:102C4000A86806F059FF0028D6D19DF80310A8689F
:102C500002F068FAD0E76FF08500EDE751F8233015
:102C6000FFDE00BF0028845000258450420903463F
:102C700070B502D0012A17D070BD0D4E326951686F
:102C80000029F9D0012503F01F030C689D4000299D
:102C9000F2D08A682A4002D030464B6898472CB15F
:102CA000236821461C46F2E7024EE7E72346F8E791
:102CB00018A00000FC9F000038B54568A86890B1D6
:102CC00006F02DFF014670B9A86802F0F9F9044634
:102CD00058B902460649A86806F00BFF22460521AE
:102CE0000D20FFF731F8002038BD6FF00400FBE73E
:102CF0006D2C00002DE9F04340F206364768D006FF
:102D000048BF4FF0030C3B7C02EA060658BFC2F3F3
:102D1000401C87B001F01F05B6F5837F144645EAD5
:102D200043158DF803C044D00DD8062E16D005D813
:102D3000A6B1022E3FD06FF0150037E0B6F5807FC8
:102D4000F9D101260AE040F20222964235D0B6F5CA
:102D5000407F34D0B6F5007FEDD102260123220357
:102D600003FA01F12DD57B689960B86880BB05F046
:102D70001F036D092AD0012D73D13C4A02EB830257
:102D800084F48033D2F80012C3F30043C4F3404408
:102D900044EA430421F4706144EA8C0421F00F01F9
:102DA00044EA06230B43C2F80032002007B0BDE816
:102DB000F0830726D2E70426D0E70526CEE70326D0
:102DC000CCE7630344BF7B68D960CEE7284AD5E7E8
:102DD00029460DF1020206F08FFE14F4403F8046B2
:102DE0000CD12946B86806F0A0FEB8F1000FDCD17E
:102DF0009DF80210B86802F095F9D6E74FF0000987
:102E000001ABCDE90199CDE90439CDF80C90294603
:102E1000B86803AA06F03CFD4845C6DB14F400334D
:102E200014D09DF8033084F48034C4F300448DF84A
:102E30000E308DF80C608DF80D404B462946B86871
:102E400003AA06F0DDFD0028CFDAAEE7CDE90433B2
:102E50000DF1030303932946B86803AA06F018FD91
:102E6000F1E7803350F82330FFDE00BF00288450A4
:102E700000258450036803F01F025B09026004D040
:102E8000012B034818BF002070470248704700BF5D
:102E900000288450002584502DE9F04F15468346C4
:102EA00040F2FF18DFF8F491DFF8F4A185B000EBF1
:102EB0008101594503D1002005B0BDE8F08FDBF852
:102EC0000030C3F3C322082AC3F3080400F2DF80F2
:102ED0001B0E444508BF4FF0FF3419F802704E2B0B
:102EE00000F2D880DFE803F028373F42494F42D64E
:102EF000D6D6D6618E9194979A9DA0A3D6D6A6B227
:102F0000B5B8D6D6D6BBC2C5C8CBCED6D6D6D6D601
:102F1000D6D6D6D6D6D6D6D6D6D6D6D6D6D6D6D651
:102F2000D6D6D6D6D6D6D6D6D6D6D6D6D6D6D6D641
:102F3000D6D6D6D6D6D65E00C5F80C45621C0FD0C4
:102F4000012603A80394FFF795FF039B06FA03F3FA
:102F50008360324632E0601CC5F8144540F095802D
:102F60000BF1040BA5E7C5F80845E7E7C5F81045E0
:102F7000661CF5D00026002220E0631CC5F8084539
:102F8000EED0002604E0C5F80C45601CE8D0012610
:102F900003A80394FFF76EFF0122039B02FA03F3D9
:102FA000C3600BE0C5F81445C8E7C5F80845002F15
:102FB000DED1671CD4D0002606273246DBF800306D
:102FC000039403F40040002818BF002203A818BF90
:102FD000012601930092FFF74DFF039C019B00EB3C
:102FE0008400D0F80042C3F3412C009A3B0243EA2C
:102FF0008C03134304EA0A04234343EA4603C0F85C
:103000000032ADE7C5F80C45D1E7C5F86445BCE72B
:10301000C5F86445ACE7C5F86845B6E7C5F8684546
:10302000A6E7C5F86C45A3E7C5F87045ADE7C5F858
:103030006045AAE7C5F86045621CDBF800308FD018
:10304000C3F30043002B7FF47BAFA0E7C5F86445D2
:10305000F2E7C5F86845EFE7C5F86C45ECE7C5F859
:103060002445631C3FF47CAF012684E7C5F828455E
:1030700064E7C5F83045F4E7C5F83445F1E7C5F82D
:103080003845EEE7C5F83C4558E7002661E76FF0A4
:10309000150011E76FF085000EE700BFEFAE0000EE
:1030A000F0F0FCFF684620F007018D4601B5134B98
:1030B000D3F80423D20517D5D3F82021A2B1EFF31A
:1030C0001182202181F31288BFF36F8FD3F8201172
:1030D00031B10021C3F82011D3F820110121D960AA
:1030E00082F31188BFF36F8F044BD3F8583104F08B
:1030F000FAF9BDE801408546704700BF00800050E6
:103100002DE9F04104460D46476806F078FE88B187
:103110004FF02008EFF31186314688F31288BFF391
:103120006F8F606804F045FE30BB86F31188BFF3F3
:103130006F8FEFE71D4B1B78002BE9D04FF0200875
:103140006426606804F035FE50B9012006F096F957
:10315000013EF6D1F4E786F31188BFF36F8FEFE7F6
:10316000EFF31186314688F31288BFF36F8F6068E2
:1031700004F01FFE0028EED0FB6900201D7063687C
:10318000FA691B68C3F844250122C3F84825C3F82F
:103190002001D3F82041C3F85801D3F858019A60B0
:1031A00081F31188BFF36F8FBDE8F0819B4205204A
:1031B0002DE9F04F04699846D0F804B094F86530D2
:1031C00007468A469146DBF800C08DB01BB1A36A62
:1031D000994200F09380BAF804E01EF4006F40F0CA
:1031E0001B811EF0090F40F01181CEF34513082B0F
:1031F00040F00C81DAF800300193019AB74B9A4203
:1032000040F20481B64B9C4507D94FF05022D2F8CA
:10321000582512F0030F18BF9C4602AD0BF10406AF
:103220000FCE0FC50FCE0FC5019B96E80300634577
:1032300028BF63469C46AB4B85E803009C451BD2E8
:10324000A74B9C4518D2A84B9C4515D2A74B9C4533
:1032500000F2C480A64B9C4500F2C280A54B9C4561
:1032600000F2C080A44B9C4500F2BE80A349A44B51
:10327000A44A8C4588BF13461EF0020F07930EF038
:10328000040300F0B380002B14BF032302238DF846
:103290002030CEF300138DF821302368D3F80835A1
:1032A0005A1C14D01EF0020F03F01F004FF0010251
:1032B0004FEA5313CEF3400140F09E80002B00F004
:1032C0009980934240F007818F4B8240DA6094F8F6
:1032D00065302BB1204602F053FE002384F86530A0
:1032E0003B462046894A02A906F003FD051EC0F2AE
:1032F0008F800123C4F828A084F86530012384F866
:103300006430DBF83C104B1C03D0DBF8380004F0D1
:10331000ABFFB9F1000F40F08280C4F83C9000236D
:10332000236404F1500204F1400104F13C0004F074
:10333000E0FDE064B8F1000F7AD1C4F844800023C6
:10334000A36404F1580204F1480104F1440004F0BC
:10335000D0FD002504F128062A4601216065A563F9
:10336000304604F0FCFD384604F0A1FE2A462B4608
:10337000206C834264D100231946A56CA94266D112
:103380009A4238BF1A464FF4FA535A43A36A04F1DB
:1033900034091B68B2FBF3F202F1C808C93266D1E6
:1033A000EFF31180202383F31288BFF36F8F1D4644
:1033B000D9E8AF3F002B51D00023636380F311881D
:1033C000BFF36F8FA56B15F1740F61D005B30022A9
:1033D00038691146283004F0C2FD19E04C4B4BE728
:1033E0004C4B49E74C4B47E74C4B45E7003B18BF7C
:1033F00001234CE74A4B68E733B1012B40F0928040
:10340000414B82409A6062E7454BFAE76FF0150541
:1034100028460DB0BDE8F08F6FF08505F8E7D9F8C4
:103420000030E363002B3FF47AAFD9F8043077E73C
:10343000D8F800306364002B81D0D8F804307FE7DF
:10344000E16B01EBC301496801330A4491E7606C09
:1034500000EBC1004068013103448FE704F057F8E6
:10346000EFF3118085F31288BFF36F8FA0E74FF45D
:103470007A7A06F009FD5646A0FB0A030AFB0133DF
:10348000C00B40EA4345D9E8AF3F8BB1636BFBB952
:1034900000252046256602F073FD84F865506FF024
:1034A0007301384604F0EEFD65636FF07305AFE716
:1034B00006F0EAFCA0FB06030AFB0131C30B43EA5A
:1034C00041435B1B9845E1D9012006F057FCDAE740
:1034D0000023636376E7C960FFDE00BF47E80100B1
:1034E0000024F4000048E80100127A00FF083D00C3
:1034F0007F841E003F420F001FA107008FD00300F2
:1035000048E8010090D00300002884506781000043
:1035100000093D0080841E0040420F0020A10700EA
:103520000025845000239B60D6E700BF00F01F02F7
:1035300040090DD001280DD1094B03EB8203D3F8CC
:103540000002084A024042EA8102C3F800227047A2
:10355000054BF2E70023803253F82230FFDE00BF34
:1035600000288450F0F0FCFF0025845001238340A4
:1035700070B5DC430B4AD2E8EF1F01EA0405C2E84C
:10358000E65F002EF7D14FF4803282400648C0F843
:103590000823BFF35F8FBFF36F8F0B4214BF01206F
:1035A000002070BDDC2801200050015070B40E498D
:1035B00022F07F46D1E90034D01AC31844F1000448
:1035C000C1E90034A6F50013B3F5400F09D2074B4B
:1035D0001B681A0A1B069C19054B42F10005C3E93A
:1035E000004570BC02F0EABE40220020E028012025
:1035F00048220020D9B101230D4A8340D2E8EFCF01
:103600004CEA030CC2E8E1CF0029F7D14FF4803334
:10361000084A8340C2F80433074BD3E8AF3FC340A6
:10362000DB0742BF4FF40012044BC3F80021704780
:10363000DC28012000500150D828012000E100E0E2
:103640000D4B1868010A0006BFF35F8F0B4BD3F8D0
:103650000435181841F10001B3F5801F0AD2084B58
:10366000D3E90023904271EB030303D210F1807081
:1036700041F10001704700BFE028012000500150D7
:10368000482200202DE9F04F85B016461F4604461B
:103690009DF840A0FFF76AFF0190FFF7D1FFB0420D
:1036A00071EB070352D23B4B301A67EB0101984292
:1036B00071F100014DD2384B03EB0413D3E902231F
:1036C0009F4208BF964258D04FF48038334908FAD9
:1036D00004F8204626F07F4BC1F8488304F0ECFD47
:1036E0004FF00309584604F15005AD00ADB205F1A5
:1036F000502504F5A87305F580350293029A20F051
:103700007F4341F82230C1F84483D1F80435244A7C
:10371000C01A033820F07F4090422ED9286868B143
:10372000D1F80435A3EB0B0020F07F40B0F5000F7B
:10373000039322D9204604F0BFFD039BBAF1000F8A
:1037400007D109EB030009F10109D7E7BAF1000F2E
:1037500009D06FF0150520460199FFF74BFF284669
:1037600005B0BDE8F08F01230E4AA340D2E8EF0F69
:103770001843C2E8E10F0029F8D107490E98230148
:10378000C8500F9B01EB04120025C2E90267536089
:10379000E1E700BF0100800030220020005001500E
:1037A000FDFF7F00D82801207FB500254FF0FF30B6
:1037B0004FF0FF31194C1A4B0226C4F80833C4F8F5
:1037C0004833184BC4F80855C3E902014FF480335D
:1037D0004FF40012C4F80433134B0121C4F80463FE
:1037E0001520C3F880212A46FEF7AEFA1520FEF711
:1037F0007BFA01230D4AA360236013600C4B0D4A32
:10380000009328460023CDE90155FFF73BFF3046E2
:10381000FEF70EFF284604B070BD00BF00500150F7
:1038200003000F003022002000E100E0DC2801202E
:10383000AD350000FFFF7F002DE9F7432E4BD3F895
:10384000042390070BD5D3F8042142B10022C3F81A
:1038500004212A4AD3F80431136801331360264A3D
:10386000D2F80433D90326D5254BD3E8EF1F21F036
:103870000100C3E8E40F002CF7D1CB0702D4D2F843
:103880004031C3B100251C4CC4F84051D4F840313C
:10389000FFF7D6FEEFF31182202383F31288BFF3E4
:1038A0006F8F184BD3E90267B042B94106D282F359
:1038B0001188BFF36F8F03B0BDE8F0834FF0FF387E
:1038C000D3E900104FF0FF391D60C3E902894FF4BE
:1038D0008033C4F84833C4F84051D4F8403182F3FF
:1038E0001188BFF36F8F0029E5D0009032463B4628
:1038F00028468847DFE700BF00500150E02801203C
:10390000D82801203022002030B5431C124C85B04D
:1039100005D08442A8BF0446012CB8BF0124FFF79C
:103920008FFE0E4B0C4DD3E90013401AB0F5000F7B
:103930000FD22218AA4228BF2A460020521808494E
:10394000CDE90100009143F10003FFF79BFE05B0B4
:1039500030BD2A46F1E700BFFFFF7F004022002074
:10396000AD35000008B5FFF76BFE024B1B68C01AAF
:1039700008BD00BF40220020012310B5074C1520D0
:103980006360FEF7BFF94FF40012054BC4F808332B
:10399000C4F84833034BC3F8802110BD00500150D8
:1039A00003000F0000E100E040EA0103C3F30D0350
:1039B00030B58BB940F21515094C890BC0F387302F
:1039C000994201D1002030BDC218D2B202F5C072B6
:1039D00044F822500133F3E76FF01500F3E700BF1E
:1039E000003000504FF0005318680D4B984210D033
:1039F00003F11C53A3F58B13A3F6CC5398420AD0C2
:103A0000084B984209D0084B98420CBF0420022072
:103A1000704700207047032070470120704700BFA7
:103A2000B6B3B4B55DCE03F1EC49F2B608B5FFF715
:103A3000D9FF30B1034806F029FA0022024BC3F83F
:103A4000402408BDF8210020003000502DE9F0414D
:103A50004FF0502315460122C3F81426002858D0F1
:103A6000002956D04FF0005302F13642A2F14B121A
:103A7000A2F59842C3E900204FF408429960DA6049
:103A8000FFF7B0FF4FF47F03D3F830210646072A33
:103A9000D3F834312DD1023B032B02D81E4AD35C1C
:103AA0003BB34FF050244FF0010800270520C4F825
:103AB0001886C4F8147605F0E1FC4046C4F8148674
:103AC00005F0DCFCC4F81476C4F81876FDB1134C8C
:103AD000204606F053F9FFF785FF8642F8D002280A
:103AE0000F4B0CD100226FF00D00C3F84024BDE84D
:103AF000F0814FF050230022C3F81426E6E74FF080
:103B000050220121C2F814160022C3F840240020DC
:103B1000EDE76FF01500EAE70BAF000040420F0041
:103B20000030005010220B4B13B5C3F84024002284
:103B3000FFF78CFF044650B94FF4004200230648BB
:103B4000CDE9002302F01CFD044806F017F92046D9
:103B500002B010BD00300050F821002040420F009C
:103B60001022034BC3F840240122FFF76FBF00BFB0
:103B700000300050034B000240F00400C3F800077F
:103B8000704700BF00300050012803D111B9024B2B
:103B900018687047014BFBE7DC2201204020002021
:103BA00013B50446104806F005F9B0B1002001A98C
:103BB000FEF7D4FF0D4B02689A4211D10389C16808
:103BC00018444368B3F1807F0AD91CB1FFF7C8FFDE
:103BD00002B010BDFFF7A6FFFAE76FF01200F7E79B
:103BE0006FF03C00F4E700BF88A000003DB8F396FA
:103BF000F0B585B06E4681680546103921F007049E
:103C000003F018FC32460A4B03F1100C37461868D3
:103C10005968083303C763453E46F7D11023214650
:103C2000284603F0D6FB003818BF012005B0F0BDD0
:103C300082A8000030B50D46816887B0102302AA23
:103C40001039044603F0B0FB002802DA012007B067
:103C500030BD1022204602A904F0A0FB00283AD172
:103C600010221E4902A806F04DF900280CBF0123BE
:103C700002232B70204604F07DFB012301460DF149
:103C80000702204603F090FB0028DFDB9DF8073099
:103C9000204603F00F021B096A702B7101220DF1FF
:103CA000070104F07BFB10B96B78042B03D90123C7
:103CB0006B7000232B71A2682046183A22F007028D
:103CC000083AA91C04F07DFB0028BFD12046E91C5E
:103CD00004F093FBBBE70323CBE700BF82A80000FF
:103CE000F0B585B06946054604F027FB0128044677
:103CF00006D1344B694653F8350004F084FB044682
:103D000014B1FF2005B0F0BD2E4B02A903EBC50393
:103D1000586804F078FB012837D12A4649212A48FF
:103D200003F027FB294B8DF80C40029300229DF8ED
:103D300000609DF80870264C3146207804F020FB86
:103D400050B33946607804F01BFB28B3A378042BEA
:103D500003D09DF8031099421ED1E378042B03D0C1
:103D60009DF80B10994217D12379042B10D1627959
:103D7000022A1DD1174B18482A46492103F0F9FAA7
:103D80006079831E022BBDD9BBE70028CED0B8E7EF
:103D90009DF802109942EAD00132032A04F1060488
:103DA000CAD10E482A46492103F0E3FA0120A9E7C7
:103DB000032A05D00A4B0B49042A08BF0B46DAE751
:103DC000094BD8E7A0A6000032AF000003010303AF
:103DD000C7AF000014AF00007DAF0000A1AF00002E
:103DE00019AF00002BAF00000FAF0000044B1B68A1
:103DF000584043085B4240421843C017704700BF19
:103E0000E42801208842F0B504D00025084F04388A
:103E1000AA4200D1F0BD3E6850F8044F5E4024EA4B
:103E2000060451F8256001351E4034430460EFE775
:103E3000E42801202DE9F04F8DB01D46189B8346E4
:103E4000B3F12A3F8A46179F1A9E059240F08D8053
:103E50003946169804F046FB012838BF012047096F
:103E600000F01F044FF001097B01502B34BF4B467B
:103E700003230A9309FA03F30B930A9B059805FAA7
:103E800003F306EB8303069303EB8503079304F028
:103E900005FD4FEA8508424600210890304606F0AD
:103EA00029F8079BC6F800900393089B3146CDE99B
:103EB0000153059B3046199A009306EB08092B46DF
:103EC00004F0FDFC51464246484605F0ECFF022353
:103ED000494609930B9B099A934248D14246314681
:103EE000584605F0E0FF4FF00009CA46079B5A46C6
:103EF0000393089B5946CDE90153059B584600930F
:103F00002B4604F0DCFC002C47D11F24013F169BFC
:103F10000AF1010A53F82730E34003F0010343EAB2
:103F200049090A9B534503D0002CDFD1002FDDD176
:103F3000189BB3F12A3F32D1424609FB086106982B
:103F400005F0B1FF079B59460393089B5846CDE9FE
:103F50000153059B069A00932B4604F0B0FC002CFD
:103F6000C1D1BFB90DB0BDE8F08F00247AE7079B3F
:103F700001EB080A0393089B4A46CDE90153059BD0
:103F8000504600932B4604F09AFC099B514601339E
:103F900009939FE7A146A246A8E7013CB7E731464F
:103FA0004FF0000A0A4B2A4618681B68584080EAFE
:103FB000090080EA0A00FFF719FFC3430698FFF7DC
:103FC00021FF099B0AF1010A53454144EAD1B9E7AF
:103FD000E4280120054B01311B680132434022EAED
:103FE000030208400243501E00B27047E42801203B
:103FF0002DE9F04F834699B00F461846002116462A
:10400000039304F0CDFE002800F0898100240125EF
:10401000774B30461493039915ABCDE90B45CDE9A9
:104020000D45CDE90F45CDE91145139304F041FE4F
:10403000A04228DABBF1000F05D1E7B900242046E1
:1040400019B0BDE8F08F2146584604F0BAFD044689
:104050000028F2D00BA804F001FD0DA804F0FEFC2E
:104060000FA804F0FBFC11A804F0F8FC0C2115A823
:1040700000F014FBE3E73146384604F06DFD0446DA
:104080000028E7D1DAE731460BA804F065FD0446C5
:104090000028DFD103990DA804F05EFD0446002836
:1040A000D8D1F1880FA80231ADF83850ADF83050B2
:1040B00004F0E2FC04460028CCD101460FA804F02D
:1040C00080FD04460028C5D1F18811A8023104F012
:1040D000D3FC04460028BDD10DA804F09EFD00F0DD
:1040E0001F001F2873D0C0F11F0319460BA80193AE
:1040F00004F0B9FD04460028ACD101990DA804F0E4
:10410000B2FD04460028A5D1BDF83250BDF83A8072
:104110000DA8A5EB080A4FEA4A19494604F0A3FD89
:104120000446002896D14FEA8A0A0DA90BA804F08C
:10413000EFFD00284DDA49460DA804F0B1FD044614
:10414000002887D108F1FF3305939B0005F1FF3A62
:10415000069305F1804508F18043023B013D9B0039
:10416000A5EB08050893AB000293059B9A4541D83F
:10417000BBF1000F0DD058460FA904F0EDFC00284C
:1041800040F0C980039AB388928813FB02F3ABF81E
:104190000430002F3FF45EAF01990BA804F080FDBE
:1041A000002840F0B880B3880BA93846ADF830300D
:1041B00004F0D2FC0146002840F0AF80384604F0FD
:1041C000EFFD00287FF446AF0123BB8042E7019456
:1041D0009AE70F9A0BA952F80A300846013342F8C1
:1041E0000A300DAA04F0C1FE044600289DD031E734
:1041F000010003000D9B069A04931344DDF82C90F4
:104200000793049B4FEA8A089A5859F82A10A8F194
:1042100004030F9D0993029B91421D4476D2A8F19D
:104220000400002359F80000FBF794FF002914BF95
:104230004FF0FF330346BAF1010F2B600EBF00238E
:1042400009EB080353F8083C1593A8F1040359F847
:104250000330169359F80830DDF8108017932B6857
:1042600001332B60089B98442B680021013B2B6095
:1042700011A804F0A6FC00284DD1059B002B48D0C6
:10428000D8F80020119B11A91A60079A08461268F5
:104290005A602A6804F06DFE00283CD113A911A8C9
:1042A00004F036FD0028DFDC2A680DA911A804F00F
:1042B00060FE80BB029B11A84FEAC308414604F090
:1042C000D2FC40BB0BA9084611AA04F04EFE0146E1
:1042D00018BB0BA804F064FD002812DA0DA911A880
:1042E00004F03AFCB8B9414611A804F0BCFC90B9FE
:1042F0000BA9084611AA04F035FE60B92B68013BF2
:104300002B60029B0AF1FF3A043B2DE74FF0FF338D
:1043100091E7059AB6E704469CE60C469AE66FF0EC
:104320000B048CE6F0B5114C002B14BF9C468C4658
:10433000246800234440E443059F03F1040E7745BD
:1043400002D2BB4209D3F0BDD5585CF803600540EA
:1043500026403543CD507346EFE7D55C1CF803602B
:10436000054026403543CD540133EAE7E4280120D7
:104370000928024818BF0020704700BFD9AF0000CD
:1043800001680E4A0346914215D1C169A2F110227B
:10439000A2F1EF1291420ED18268012A0BD8C268B5
:1043A00012B101698A4206D0586928B19B691B1A6B
:1043B0005842584170470120704700BF55AA00FF7E
:1043C00070B50D4B9E68A6B13046FFF7D9FF044685
:1043D00078B9F3686BB935690DB9204670BD2846C8
:1043E000FFF7CEFF28B9EB68B34202D12E462D6904
:1043F000F2E70124F1E700BFE82801202DE9F843A6
:104400003F4F3C68D4B1BC68C4B100284AD00029F1
:1044100048D001FB00F5B5FBF0F0884242D1281DE1
:1044200040D8A9070DD025F003060436FC6803E048
:104430006368B34238D2A469002CF9D12046BDE8A4
:10444000F8832E46F2E7FB6041E006F12001631895
:10445000203A5A600022C3E902242A4822691A61DC
:1044600060502949D96102B1D36062695A61A1697A
:104470009961AAB193619A6902B153614FF0010940
:1044800023610023C4E90169C4E905333B69DB0703
:104490002ED5FFF795FF58B31C4B48461B6826E006
:1044A000FB60E8E70024C9E7A3681BB1174B0120B4
:1044B0001B689847626804F12008921B232AC4D81D
:1044C0000123A360D4E90523002ABCD09361A3692A
:1044D0000BB162695A610023C4E905333B69DA070D
:1044E00006D5FFF76DFF18B10120084B1B689847F0
:1044F0002A4600214046444605F0FCFC9EE700BFEA
:10450000E828012055AA00FF669911EE68210020D5
:1045100070B50546002800F08880444E3368002BB3
:1045200000F08380B268002A7FD0834203D872688B
:104530001344984203D33E4B01201B689847A5F1D2
:1045400020042046FFF71CFF18B1394B01201B68DF
:10455000984755F8183C012B03D0354B01201B68B8
:104560009847002345F8183C55F8143C3BB39A682B
:104570002ABB55F81C2C02F120015A680A445A60E3
:1045800055E905321A6155F8145C2B6903B1DD60F9
:1045900020220021204605F0ADFC286910B1836877
:1045A000002B2ED033699B073FD5FFF709FF00286A
:1045B0003BD0BDE870401E4B01201B68184755F8E2
:1045C000100C00282AD0836843BB426863681344F8
:1045D0002033636003692361D4E905239AB9CBB919
:1045E000436963618269A261B3B19C61A36903B14C
:1045F0005C61236903B1DC602022002105F07AFCB4
:10460000D0E72C46E1E79361A369002BE8D062690B
:104610005A61E5E7F360F7E7F460E7E7F36845F828
:10462000083C03B15C61F460BCE770BDE828012080
:104630006821002038B50C46142200210546134895
:1046400005F058FC1249134800F040F8232C1CD9FF
:1046500015F003031FBF043CE418C3F10403ED1875
:1046600022460021284605F045FC084B0A49C3E9CB
:104670000054203C9D606C609A6811609A68A1F1BA
:104680001021A1F1EF11D161DA6038BDE8280120D5
:1046900011450000FD43000055AA00FF10B50A4671
:1046A000044619B1024B00211B68984710BD00BF9A
:1046B00064210020014B1B68184700BF70210020B7
:1046C000014B1B68184700BF6C210020024B18608B
:1046D000024B002019607047702100206C210020DF
:1046E000F8B500F108064768044630460D4604F068
:1046F00098FA87424BD16368B3F5806F47D80021A1
:10470000304604F04DFB002841DD0021304604F026
:1047100074FAE0B345B9294604F1100004F040FBF7
:10472000002834DD0020F8BD04F1200500212846D2
:1047300004F036FB00282ADD0021284604F05DFA4B
:1047400028B304F128050021284604F029FB00289D
:104750001DDD0021284604F050FAC0B1002104F10B
:10476000100004F01DFB002811DD002104F13000D1
:1047700004F016FB00280ADD002104F1380004F0E3
:104780000FFB002803DD002104F14000C6E70148CB
:10479000C9E700BF80BFFFFF012970B505460E467F
:1047A000144601D9074870BD03D00020C5E91C6438
:1047B000F9E7002AF9D01046FFF7DAFD0028F4D116
:1047C000F0E700BF00BFFFFF70B500210446FFF710
:1047D00087FF054610B10E4D284670BD04F108064E
:1047E000304604F01AFA7F28F5D9103429462046BD
:1047F00004F003FA0028EED0204604F00EFA012857
:10480000E9D93146204604F083FA0028E4DBE2E7E8
:1048100000BEFFFFF0B50C4685B0002105461646E8
:10482000FFF75EFF002839D102A804F012F92146F3
:104830006A6802A804F0FBF9044618B102A804F063
:104840000DF90CE005F10804214602A804F060FA15
:10485000002807DB02A804F001F96FF00304A4F5B7
:10486000854418E005F1480302A96F6808460093E3
:1048700005F11002234604F0CCFC04460028DDD1EB
:104880003A46314602A804F0E8F9044602A804F0CA
:10489000E5F8002CE3D1204605B0F0BD004CFAE766
:1048A00080BFFFFF03460846C1B9C3E910110D4A96
:1048B0000D49DFF838C0C3E912120D4A0D49C3E9AA
:1048C00014C20D4AC3E916120C4A1A6602F1745258
:1048D000A2F52302A2F692425A6670476FF0730067
:1048E000704700BF85AE67BB67E6096A72F36E3C2E
:1048F0003AF54FA57F520E518C68059BABD9831FAB
:104900002DE9F04F0446CFB0039100F1480346ADC6
:1049100000F168062A4618685968083303C2B34292
:104920001546F7D1DDE94883DDE94B96DDE946150B
:104930004FF0000C01933E4BDDF834B14A9804AAC5
:104940000293BCF10F0F5BD8039B53F82C301BBABA
:104950004FEAF02E86EA0907DDF808A08EEAB01EBD
:1049600007408EEA706E774077445AF804EB936004
:1049700077443B4445EA010E4FEA7137CDF808A071
:1049800087EAB1070EEA080E05EA010A4EEA0A0EA6
:1049900087EAB15777440CF1010CDDF804E05B4481
:1049A000BCF1400F9E44B3463B4402F10402CDF8F3
:1049B00004801ED1CDE94C96CDE94AE0CDE94858B6
:1049C000CDE94631CDE9043745A904F14403643407
:1049D00053F8042F51F8040FA34202441A60F7D190
:1049E00004A84FF49471FFF759FE00204FB0BDE8C2
:1049F000F08FA8464E460D46814619467046A0E700
:104A0000136852F834AC4FEAF34E8EEA734E52F804
:104A1000387C8EEA932E52F8143C3B444FEABA4756
:104A200087EAFA17734487EADA073B4490E700BF46
:104A3000B0A600004FF47F03D3F83021D3F834310F
:104A4000072A05D1023B032B02D8024AD05C7047EB
:104A500000207047E4AF000008B5FFF7EBFF58B146
:104A6000644BD3F8202A3AB90D21C3F8201A01214A
:104A7000C3F81C19C3F81C290022D30003F57F03D7
:104A8000D3F80013013107D0D3F800130132D3F863
:104A90000433202A0B60F0D1FFF7CCFF002840F050
:104AA000A080FFF7C7FF40B1534B544AC3F83025ED
:104AB0004FF050230122C3F858254FF47F03D3F859
:104AC0003021D3F83431072A09D1023B032B06D811
:104AD0004B4AD35C1BB100224A4BC3F84C25FFF76D
:104AE000A9FF50B14FF05023D3F80024D10742BFA3
:104AF0000022C3F81421C3F818214FF47F03D3F820
:104B00003021D3F83431072A09D14FF05023D3F89C
:104B10000024D20744BF6FF00102C3F80024FFF75E
:104B200089FF18B16522334BC3F80C274FF47F037C
:104B3000D3F83021D3F83431072A16D1314BD3F8CA
:104B40002034002B11DA4FF050230322C3F818252C
:104B500001229A60D3F80421002AFBD00022C3F876
:104B600004210122DA60C3F818254FF47F03D3F83B
:104B70003021D3F83431072A23D1023B032B02D84A
:104B8000214AD35CEBB17E221A4B1B49C3F80C2798
:104B9000C3F83C297F231D4AC2F818310023C1F80D
:104BA000043EC1F8083E01F54821C1F81031C2F8B1
:104BB0002431C2F82C3102F5FF1202F58052C2F8FE
:104BC000A032134AD2F88C3043F44063C2F88C30E0
:104BD000104A114B1168C3F84415D269C3F84C252B
:104BE00008BD2922034BC3F80C270322C3F83C2736
:104BF00057E700BF00400050009003504400EFBE54
:104C0000E0AF000000200350DCAF000000200050A7
:104C100000ED00E00080FF0000600050014B1860D4
:104C2000704700BFFC28012010B5054B14461868DA
:104C300004F026FC0028A4BF2070002010BD00BF97
:104C4000FC2801200123024A8340C2F80435704742
:104C500000700150014B00201B68184700290120FB
:104C6000014B1B68184700BF00290120014B092098
:104C70001B68184700290120014B08201B681847B2
:104C80000029012010B5144C237913BB0123237193
:104C9000124B0028206018BF184600F037F8D0B932
:104CA00023680F48002B08BF184600F0B9F890B9E8
:104CB00023680C48002B08BF184600F0F9F850B9DB
:104CC00023680948002B08BF1846BDE8104000F0D3
:104CD00063B86FF0770010BD00290120554C00002B
:104CE0006D4C0000614C0000794C000008B5064B8B
:104CF0001B6843B10520FDF719F820B9BDE808404D
:104D00000520FCF7F1BF08BD00290120074B024632
:104D1000187938B91A6001221A714FF05023C3F87C
:104D2000142570476FF07700704700BF08290120F5
:104D30004FF050230022C3F80021D3F800210122B4
:104D400008491A60096811B1C3F804237047D3F801
:104D50000021002AFBD00022C3F80021D3F8003143
:104D6000704700BF082901204FF05023D3F80423D7
:104D7000D2070DD5D3F8002152B10022C3F800218B
:104D8000D3F800210122C3F80823024B1B681847FF
:104D9000704700BF08290120054B0246187918B951
:104DA0001A6001221A7170476FF07700704700BFD8
:104DB000102901204FF050230022C3F82021D3F8FE
:104DC000202101229A61094A126822B14FF48072AF
:104DD000C3F804237047D3F82021002AFBD0002217
:104DE000C3F82021D3F82031704700BF10290120DB
:104DF0004FF05023D3F80423D2050ED5D3F8202149
:104E00005AB10022C3F82021D3F820214FF4807238
:104E1000C3F80823014B1B6818477047102901206D
:104E2000074B0246187938B91A6001221A714FF0FF
:104E30005023C3F8802570476FF07700704700BF9C
:104E4000182901204FF050230022C3F82421D3F861
:104E5000242101221A62094A126822B14FF4007219
:104E6000C3F804237047D3F82421002AFBD0002282
:104E7000C3F82421D3F82431704700BF182901203A
:104E80004FF05023D3F8042392050ED5D3F82421F4
:104E90005AB10022C3F82421D3F824214FF4007220
:104EA000C3F80823014B1B681847704718290120D5
:104EB000074B0246187938B91A6001221A714FF06F
:104EC0005023C3F8182570476FF07700704700BF74
:104ED000202901204FF0502310B5D3F818141E4C90
:104EE00011F4803FD3F818241AD002F00302022AEA
:104EF00004D0012A01D004F094FB01224FF050238A
:104F0000C3F818250022C3F80421D3F80421012294
:104F10009A6022688AB9D3F80421002AFBD014E0F1
:104F2000D3F81424D207E8D5D3F81C2402F00302E6
:104F3000013A012ADFD822681AB10222C3F80423F9
:104F400010BDD3F80421002AFBD00022C3F80421AD
:104F5000D3F80431F4E700BF20290120F8B54FF061
:104F6000502301250026D3F80443184F04F082048F
:104F700004B9F8BDB4FA84F0C0F11F00830003F552
:104F800080739BB203F15023196805FA00F224EAFA
:104F900002040029ECD01E601B684FF0502301284A
:104FA000C3F808230ED1D3F81824D3F8182402F03C
:104FB0000302012A06D10221C3F81815C3F804130D
:104FC0009A60D5E73B68C0B29847D1E72029012015
:104FD000036803F01F025B09026004D0012B034841
:104FE00018BF002070470248704700BF0028845057
:104FF00000258450034A4309D35C00F01F00184485
:10500000C0B27047E8AF0000034611F0010010B5D0
:10501000CCB20BD1A207C4F340000DD5074A106AE9
:1050200058601062003818BF012005E004490A6A80
:105030001A600A62002AEDD010BD00BF002884501B
:1050400000258450F7B504460846FFF7D3FF06B2A3
:1050500004EB4606B38A0D46DB072BD5204604F049
:10506000F4FB2946204604F04FFB58B1204604F0DB
:1050700061FB0022276800B207EB8003C3F810250C
:10508000C3F810252946204604F07DFB002101A825
:10509000B1820195FFF79CFF019B00EB8300D0F8E4
:1050A0000022064B134043F00203C0F800320846CA
:1050B00003B0F0BD6FF01500FAE700BFF0F0FCFFA1
:1050C00070B590F88C40054690F88D6024BB214661
:1050D0006022143004F00EFF2146114B286853F86B
:1050E00036608E420ED10024C0F87C41D0F87C316D
:1050F00040F30730FCF7F8FD0123204685F88C309B
:10510000AB6770BDCBB29B0003F580727C2B04BFF4
:10511000845083580131E4E76FF07700F1E700BF76
:10512000B0A7000090F88D00024B03EB800004F064
:10513000C1B900BF7821002010B5064B90F88D0052
:105140000C4603EB800004F09BF90028A4BF2070FC
:10515000002010BD782100202DE9F04F814659F83C
:1051600004BB90F88D40DBF804136B4BC9B280464A
:1051700053F8342058468BB041F0004104F03EFB18
:10518000051E36DA0023CDE90833634B08A803EB8C
:10519000C4035B6819460193FFF736FF042303EB52
:1051A000C40303935D4B0DF1200A02930023029A7E
:1051B000009312F8013B58490292039A02EBD30282
:1051C0008A5C03F0070322FA03F3DA0719D4009B81
:1051D0000AF1040A9BB14FF000410022584604F046
:1051E0000DFB019908A8FFF70FFF0028DAD125F081
:1051F00000450124002D78D10BB0BDE8F08F0123CC
:10520000D5E7009B464A13440493DAF800100029BE
:10521000DDD091FAA1F1B1FA81F1049B1C7841EA49
:1052200044142046FFF7E6FE08EB4000878AC808D2
:10523000BB08059301231AF8002001F0070103FAC7
:1052400001F122EA01020AF8002007A80794FFF7FB
:10525000BFFE079A059B803250F82220C7F38206D2
:105260005B073746C2F3014223D54846D6B22146F2
:105270003A4604F069FA07A80794FFF7A9FE079BCE
:10528000803350F82330C3F301439E4207D10021FD
:10529000204604F02AFA3146204604F026FA07A8F0
:1052A0000794FFF795FE0122079B02FA03F30362BE
:1052B000ABE7022A0DD10321204604F016FA06F0CE
:1052C0000503012BEBD13A462146484604F03CFA4F
:1052D000E5E702212046059204F007FA032EF2D0FA
:1052E000059A032ADBD1022EECE795FAA5F3B3FA6F
:1052F00083F304FA03F225EA020503F5A2725BF8D0
:10530000222008EB43034846B3F87C10C2F3014265
:1053100004F01AFA6EE700BFB0A70000F8AF000073
:10532000F8AF00000022034BC3F88425C3F804251E
:10533000704700BF00900350044AD2F80834DB07DE
:10534000FBD50160BFF35F8F704700BF0090035033
:1053500008B5C0F30B0383B90222094BC3F88425B7
:10536000C3F804254FF0FF320260D3F80024D207BF
:10537000FBD5FFF7D7FF002008BD6FF00C00FBE75F
:1053800000900350012208B5054BC3F88425C3F8EB
:105390000425FFF7D1FFBDE80840FFF7C3BF00BFFA
:1053A000009003502DE9F843154601221D4B044699
:1053B000C3F88425C3F8042510F003030E4610D06B
:1053C000C3F10407AF4228BF2F463A46A0EB0308BB
:1053D00004F003FC01464046FFF7AEFFED1B3C44E2
:1053E0003E44374625F00308B044A4EB0609B8450F
:1053F00011D115F003020AD025F003052C447119D0
:10540000204604F0EAFB01462046FFF795FFBDE881
:10541000F843FFF787BF09EB070057F8041BFFF7B6
:105420008BFFE4E70090035000220121054B83F835
:105430003820054BC3F808131961C3F80025C3F8D9
:10544000002170472829012000B002504FF47F034B
:10545000D3F83021D3F83431072A13D1023B032B80
:1054600002D80A4AD05C80B14FF05023D3F8B82557
:10547000920709D1D3F8580500F00300013818BF8E
:10548000012070470020704701207047FAAF0000EC
:1054900070B5114D6C6BA4B14FF47A735C430A2361
:1054A000B4FBF3F40D4ED6F800316BB995F83930F2
:1054B00053B90A2003F0E2FF013CF4D16FF073000E
:1054C00070BD4CF25034EDE795F8393003F0FF0031
:1054D000002BF5D0F2E700BF2829012000B00250D0
:1054E00010B500220124074BC3F80045C3F8002182
:1054F0001C6028B1FFF7CCFF18B9034B83F8384084
:10550000002010BD00B00250282901202DE9F041F3
:10551000064617469846FFF799FF002863D106F024
:105520006043B3F1005F61D1B3075FD1324C94F8AF
:105530003030012B05D043455BD194F83830002B37
:1055400057D000232D4AB8F1020F0BBFC2F81075D7
:10555000C2F80475C2F81465C2F808650CBFC2F839
:105560001815C2F80C1584F8393023680CBF0825CB
:105570000425C3B994F838306BB100221F4B05F1F4
:10558000A045C3F80021012305F52C352B60BDE8AB
:10559000F041FFF77DBF0120FFF7A2FF10F1740F6C
:1055A000EBD1BDE8F081A36823B1E6606161E761FA
:1055B0000020F6E7114AA6602161A76184F83080D7
:1055C000C2F800310123C2F8043394F8382002F005
:1055D000FF0012B9FFF784FFEAE705F1A04505F5E2
:1055E0002C352B60E4E74FF0FF30DAE76FF00C006A
:1055F000D7E76FF00F00D4E72829012000B0025050
:10560000084B9A685A621A699A629A69DA62DA6889
:105610009A6032B15A691A61DA699A610022DA60D5
:10562000704770472829012000F01F0340090FD060
:1056300001280FD10A4A02EB8302D2F80002094B7B
:10564000034043EA012343F00203C2F800327047EB
:10565000054AF0E70022803352F82330FFDE00BF16
:1056600000288450F0F0FCFF0025845010B50E4B4C
:105670000238D3F83C26D3F83836072813D8DFE8A9
:1056800000F0110F0D0B0A080604100EC871100C63
:105690008871100A48710A711A0ECA701A0C8A7041
:1056A0001A0A4A700B7010BD00B002500238072869
:1056B0001FD8DFE800F02927251123211F04CB790B
:1056C0001B068A7943EA02434A7943EA02230A79AC
:1056D00013430E4AC2F83C36CB781B068A7843EA5D
:1056E00002434A7843EA02230A781343074AC2F87E
:1056F000383670470023E4E70023E5E70023E6E7B8
:105700000023EBE70023ECE70023EDE700B00250B5
:105710000268154BFF2A08BF4FF0FF32C3F824255B
:105720004268FF2A08BF4FF0FF32C3F8282582687D
:10573000FF2A08BF4FF0FF32C3F83025C268FF2AA6
:1057400008BF4FF0FF32C3F834250269FF2A08BFB3
:105750004FF0FF32C3F838254269FF2A08BF4FF0E7
:10576000FF32C3F83C25704700B0025030B5194DE8
:105770008DB006AC0FCD0FC495E8030084E803009C
:10578000154906A8D1F82435DBB20093D1F82835A5
:10579000DBB20193D1F83035DBB20293D1F8343566
:1057A000DBB20393D1F83835DBB20493D1F83C3542
:1057B000DBB20593FFF7ACFF0023C1F800310123F2
:1057C0000B60D1F80031002BFBD06846FFF7A0FF3B
:1057D0000DB030BDA8A3000000B0025070B590F825
:1057E000293004461BB190F82A20002A43D1606872
:1057F000FF2800F0A580A168FF2900F0A180E268E1
:10580000FF2A00F09D8025690E2D40F09980112817
:1058100040F09680122940F093800D2A40F090804D
:105820006269FF2A02D00F2A40F08A80A269FF2A0B
:1058300002D0102A40F08480BBB903211120FFF769
:10584000F3FEA068FFF7F0FEE068FFF7EDFE2069C9
:10585000FFF7EAFE6069FF2801D0FFF7E5FEA069C7
:10586000FF2802D00321FFF7DFFE94F82A3013B996
:10587000201DFFF74DFF636A334D344E6B6394F880
:10588000293085F83A304FF47F03D3F83021D3F82C
:105890003431072A04D10123C6F80833FFF766FF25
:1058A0002368C6F84035A37F617F227F9B0143EACE
:1058B000C1031343E27F43EAC213C6F844354FF4F1
:1058C0007F03D3F83021D3F83431072A13D1023BB8
:1058D000032B02D81E4AD35C6BB11C4A94F82310E8
:1058E000D2F8443519BB43F44033C2F844354FF481
:1058F000C063C2F84036154994F82030D1F800262C
:1059000022F07F4222F0FF02134394F8212043EA61
:10591000026394F8222043EA426394F8232043EA86
:105920000273C1F800362B6833B9002070BD23F430
:10593000003343F48033D8E72B20FCF7D5F9F4E7A4
:105940006FF01500F2E700BF2829012000B00250D7
:10595000FEAF000038B50C4C94F8305085B9C4E95E
:10596000001240B900200123C4E9020084F830305D
:1059700084F8380038BDFFF731FF0028F2D0F9E78E
:105980006FF07700F6E700BF282901202DE9F041EC
:1059900004460F461546FFF759FD002848D1DFF8A9
:1059A0009C8098F83000012845D198F8383093B39E
:1059B0000123234EC6F808334FF47F03D3F8302178
:1059C000D3F83431072A01D1FFF7D0FE1FB1394691
:1059D0006078FFF76BFE002788F83970C6F8007111
:1059E000A37862781B0343EA022322781343E27808
:1059F00043EA4233227943EA8233627943EAC2338B
:105A0000C6F83436FFF744FD743008D0C6F800718C
:105A10004DB9002005E0FFF763FD7430C8D16FF089
:105A20007300BDE8F08129466078FFF71FFEF0E7BC
:105A30004FF0FF30F5E76FF00F00F2E72829012063
:105A400000B00250044B93F838300BB9FFF748BD53
:105A50006FF07700704700BF2829012008B5064B7A
:105A600093F83030012B03D1FFF7DEFC002008BD96
:105A70006FF00F00FBE700BF28290120034B93F8CC
:105A80003000003818BF0120704700BF28290120CE
:105A900070B50546FFF7DAFC00283AD111F003068D
:105AA0003AD1204B1A68C2B193F83040012C36D15C
:105AB0001D4AC2F81C150421C2F8205583F839602C
:105AC00083F83010C2F80061C2F8044393F838300C
:105AD000EBB9FFF705FD002018E0134CC4F81C15C6
