:020000021000EC
:10020000F081022019630200915B02000563020085
:100210000563020005630200056302000563020036
:10022000000000000000000000000000D96402008F
:100230000563020000000000216402000563020063
:10024000D9670200D9670200D9670200D9670200A6
:10025000D9670200D9670200D9670200D967020096
:10026000D9670200D9670200D9670200D967020086
:10027000D9670200D9670200D9670200D967020076
:10028000D9670200D9670200D9670200D967020066
:10029000D9670200D9670200D9670200D967020056
:1002A000D9670200D9670200D9670200D967020046
:1002B000D9670200D9670200D9670200D967020036
:1002C000D9670200D9670200D9670200D967020026
:1002D000D9670200D9670200D9670200D967020016
:1002E000D9670200D9670200D9670200D967020006
:1002F000D9670200D9670200D9670200D9670200F6
:10030000D9670200D9670200D9670200D9670200E5
:10031000D9670200D9670200D9670200D9670200D5
:10032000D9670200D9670200D9670200D9670200C5
:10033000D9670200D9670200D9670200D9670200B5
:10034000D9670200D9670200D9670200D9670200A5
:04035000D967020067
:1003580080EA101404F0F01480EA0410604081EA86
:10036800111404F0F01481EA0411614082EA1214B5
:1003780004F0F01482EA0412624083EA131404F0D1
:10038800F01483EA0413634080EA102404F47F44E1
:1003980080EA0420604081EA112404F47F4481EA61
:1003A8000421614082EA122404F47F4482EA042290
:1003B800624083EA132404F47F4483EA04236340FD
:1003C80081EA500404F0553480EA4400614083EA2D
:1003D800520404F0553482EA4402634082EA9004ED
:1003E80004F0333480EA8400624083EA910404F024
:1003F800333481EA84016340704700BF82EA900485
:1004080004F0333480EA8400624083EA910404F003
:10041800333481EA8401634081EA500404F055349E
:1004280080EA4400614083EA520404F0553482EAC9
:100438004402634080EA102404F47F4480EA0420E4
:10044800604081EA112404F47F4481EA0421614078
:1004580082EA122404F47F4482EA0422624083EA96
:10046800132404F47F4483EA0423634080EA1014CD
:1004780004F0F01480EA0410604081EA111404F0DA
:10048800F01481EA0411614082EA121404F0F014B5
:1004980082EA0412624083EA131404F0F01483EA37
:1004A80004136340704700BF2DE9F14F94464FEAAB
:1004B800930B8A68CB6808684968FFF749FF0BF116
:1004C800060E33E083EA134480EA134582EA1347B1
:1004D80046BA96EA3444604000F00F1684EA0634BF
:1004E80020F00F1684EA161054BA94EA01067240F6
:1004F80002F00F1486EA043622F00F1486EA14126A
:100508004CBA6540694001F00F1485EA043521F0C2
:100518000F1485EA14115CBA67407B4003F00F148E
:1005280087EA043723F00F1487EA1413BCE8F000B5
:100538006040694072407B4000F0E03400F01035C4
:1005480000F00F3040EA540040EAC50080EA900409
:1005580004F0332480EA8400604001F0E03401F0C4
:10056800103501F00F3141EA540141EAC50181EA31
:10057800910404F0332481EA8401614002F0E034FC
:1005880002F0103502F00F3242EA540242EAC50284
:1005980082EA920404F0332482EA8402624003F07F
:1005A800E03403F0103503F00F3343EA540343EA11
:1005B800C50383EA930404F0332483EA8403634085
:1005C80081EA324787EA134581EA354690EA06040C
:1005D80084EA034B82EA1B4280EA044484EA054425
:1005E80083EA144A85EA14448BEA044B84EA3744C4
:1005F80081EA0B4181EA164104EA0A00454082EA91
:1006080004082BEA080041408AEA0B0602EA0600C1
:1006180084EA34438AEA3A4603EA060778404540C2
:10062800414088EA38478BEA3B4007EA000985EAF7
:10063800090583EA0709464006EA0906714085EA82
:10064800010005EA3546464006EA314181EA304173
:1006580081EA364606EA304686EA3546344008EAF4
:10066800010886EA01052A4086EA364003405A40D6
:1006780081EA31431F407C4080EA030709EA070901
:1006880088EA0908544088EA020806EA0A0601EAE4
:100698000B018AEA0B0215408AEA3A4210404540AB
:1006A8008BEA3B4003405E404240174079404D4052
:1006B8004E40E443F64386EA18435D4085EA054028
:1006C80083EA134386EA034183EA384284EA114302
:1006D80083EA04435FEA3343BEF1010E3FF6F2AE0C
:1006E8001ED4BCE8F0006040694072407B4020BCEA
:1006F800FFF784FE28606960AA60EB60BDE8F08FB0
:100708002DE9E0414FF2F00280EA1031114080EA11
:100718000130484041088208C3084FF0000E4FE7F7
:1007280000F0113001F0113102F0113203F01133F1
:1007380040EA410040EA820040EAC3004FF2F0027A
:1007480080EA1031114080EA01304840BDE8E0817C
:100758002DE9F04F02F11C050646074600EB850817
:1007680051F8040B043A46F8040BF9D14FF0010C88
:10077800FFF7C6FF5FEA302080EA0C001ECF414039
:100788004A4053405C401EC62000464517D04FEAF9
:100798004C0C1CF4807F18BFACF1E50C2C2DE7D075
:1007A8003C2D06D1FFF7ACFF06CF41404A4006C6B4
:1007B800100006CF41404A4006C61000D8E736E987
:1007C8000F00FFF7C5FD043D86E80F00F7D1BDE82F
:1007D800F08F00BF2DE9F14F03F11C0402EB840CEC
:1007E8004FEA930B8A68CB6808684968FFF7B0FD41
:1007F8003CE9F0006040694072407B400BF1060E16
:100808004EE083EA134480EA134582EA134746BA66
:1008180096EA3444604000F00F1684EA063420F06B
:100828000F1684EA161054BA94EA0106724002F0D0
:100838000F1486EA043622F00F1486EA14124CBA12
:100848006540694001F00F1485EA043521F00F1462
:1008580085EA14115CBA67407B4003F00F1487EAFD
:10086800043723F00F1487EA141344BA44404DBAEE
:100878004D4056BA56405FBA5F4087EA174886EA45
:10088800174B84EA17464FEA38488BEA1B4485EA37
:100898001B4788EA1B4580EA3440694072407B4028
:1008A80000F0703400F0803500F00F3040EA44006A
:1008B80040EAD50080EA900404F0332480EA8400FA
:1008C800604001F0703401F0803501F00F3141EAE9
:1008D800440141EAD50181EA910404F0332481EA14
:1008E8008401614002F0703402F0803502F00F326A
:1008F80042EA440242EAD50282EA920404F033242E
:1009080082EA8402624003F0703403F0803503F019
:100918000F3343EA440343EAD50383EA930404F01C
:10092800332483EA84036340C943DB4381EA000438
:1009380083EA044686EA020183EA014382EA3345F0
:1009480083EA14435C4084EA00077FEA040A8AEADF
:10095800024A8AEA010B87EA11488AEA374A80EA9A
:10096800060181EA1A418AEA030A04EA0A004540B4
:1009780088EA040707EA0B0041408AEA0B0608EAFE
:10098800060084EA34428AEA3A4602EA06035840F4
:100998004540414087EA37438BEA3B4003EA000978
:1009A80085EA090582EA0309464006EA0906714014
:1009B80085EA010005EA3546464006EA314181EA02
:1009C800304181EA364606EA304686EA3546344002
:1009D8000F4086EA010508EA050886EA3640024023
:1009E80088EA020881EA314213405C4080EA020347
:1009F80009EA030987EA0907674088EA040806EA5A
:100A08000A0601EA0B018AEA0B0425408AEA3A44FD
:100A1800204045408BEA3B4B02EA0B02564084EAF1
:100A28000B04234059406E40694087EA364080EA0B
:100A3800384080EA060380EA104481EA134585EAD3
:100A4800344585EA17427D4082EA354180EA05400F
:100A58003CE9F0006040694072407B40BEF1010E05
:100A68003FF6CFAE20BCFFF7C9FC28606960AA60DA
:100A7800EB60BDE8F08F00BFFFF76ABE2DE9F00715
:100A880091E8F807B2E802105B1854EB0C04B2E8DE
:100A980002104D4156EB0C06B2E802104F4158EBDC
:100AA8000C08B2E8021059EB01095AEB0C0A80E86D
:100AB800F80780410130BDE8F00770472DE9F007DD
:100AC80091E8F807B2E802105B1A74EB0C04B2E87C
:100AD80002108D4176EB0C06B2E802108F4178EBDC
:100AE8000C08B2E8021079EB01097AEB0C0A80E8ED
:100AF800F80780414042BDE8F00770472DE9F0074C
:100B0800524290E87800B1E880071740DB1918EAEC
:100B1800020854EB080419EA020955EB09051AEA18
:100B2800020A56EB0A0678C090E87800B1E8800718
:100B380017407B4118EA020854EB080419EA020935
:100B480055EB09051AEA020A56EB0A0678C08041F5
:100B58000130BDE8F00770472DE9F007524290E8F0
:100B68007800B1E880071740DB1B18EA020874EB2D
:100B7800080419EA020975EB09051AEA020A76EB74
:100B88000A0678C090E87800B1E880071740BB41B2
:100B980018EA020874EB080419EA020975EB09055A
:100BA8001AEA020A76EB0A0678C080414042BDE89C
:100BB800F00770472DE9F00152424FF0040890E821
:100BC800300091E8C000A31B1340E41AF618EB1B91
:100BD8001340ED1AFF1830C0C0C1B8F10108EED1BA
:100BE800BDE8F001704700BF00B592EC080AB1E813
:100BF800805707EE101A53EC102A56EC114AA7FB3F
:100C08000251A8FB020BE7FB6310E9FB62B041EC61
:100C1800145AA8FB0351EAFB6201E7FB64B5E7FB42
:100C28006605E8FB661505EE10BAA9FB03B6EAFBF4
:100C38006316ECFB6356E8FB640BE9FB641BEAFBF9
:100C4800645BECFB646B05EE900AACFB023012EEC1
:100C5800104AEEFB6250E9FB6460EAFB64B0E7FB14
:100C68006431E8FB645112EE904AE8FB6461E9FBE9
:100C780064B1EAFB640106EE103AA7FB043213EEF6
:100C8800104AE7FB6462E8FB64B2E9FB6402EAFB32
:100C9800641211EE904AE9FB6453EAFB646313EEB5
:100CA800904AE7FB64B3E8FB6403E9FB6413EAFBDF
:100CB800642306EE905A17EE109A99E8000610EE93
:100CC800108AA9FB0854EAFB68B412EE108AECFB00
:100CD8006804EEFB6814E9FB6824EAFB683410EE4C
:100CE800908AEEFB6865E9FB68B5EAFB680512EED9
:100CF800908AECFB6815EEFB6825E9FB6835EAFB92
:100D0800684507EE106A11EE108AAEFB0876E9FB1B
:100D18006806EAFB681613EE108AECFB6826EEFB01
:100D28006836E9FB6846EAFB685611EE908AECFBE8
:100D380068B7EEFB6807E9FB6817EAFB682713EE5C
:100D4800908AECFB6837EEFB6847E9FB6857EAFBDB
:100D5800686700BD2DE9F04F07EE900AFFF744FFE2
:100D680017EE908A07EE90BAA8EC084A88E8FF00C8
:100D7800BDE8F08F00B591E89857A3FB0352A3FB99
:100D88000401E3FB6420E3FB671042EC145AA3FB65
:100D98000752E3FB6802E4FB6415E3FB6805E3FB29
:100DA8006925A4FB07B6E3FB6926E3FB6A56E4FB67
:100DB800670BE4FB682BE3FB6A5BE3FB6C6B40ECC3
:100DC800151AA4FB0810E4FB6950E3FB6C60E3FB15
:100DD8006EB0E7FB6721E4FB6951E4FB6A61E3FB62
:100DE8006EB1E4FB6E0106EE102AA7FB0832E4FBA5
:100DF8006A62E4FB6CB2E4FB6E02E7FB6E12E7FB8F
:100E08006853E7FB6963E4FB6CB3E7FB6C03E7FB40
:100E18006E13E8FB6E2306EE905AA7FB0954E7FB16
:100E28006AB4E7FB6C04E8FB6C14E8FB6E24E9FB8E
:100E38006E34E8FB6865E7FB6AB5E8FB6A05E8FB22
:100E48006C15E9FB6C25E9FB6E35EAFB6E4507EE90
:100E5800106AA8FB0976E8FB6A06E9FB6A16E9FB53
:100E68006C26EAFB6C36EAFB6E46ECFB6E56E8FB3A
:100E780069B7E9FB6907E9FB6A17EAFB6A27EAFB36
:100E88006C37ECFB6C47ECFB6E57EEFB6E6700BDF6
:100E98002DE9F04F07EE900AFFF76CFF17EE908AE6
:100EA80007EE90BAA8EC084A88E8FF00BDE8F08F82
:100EB80030B44FF0000310F8014B11F8015B013A10
:100EC80084EA050443EA0403F5D1A3F101034FEAD8
:100ED800D37030BC704700BF4FF0000310F8012BEF
:100EE800013943EA0203F9D1A3F101034FEAD370B0
:100EF800704700BF30B411F8014B12F8015B6C4029
:100F080000F8014B013BF6D130BC70472DE9F007E2
:100F180091E8F807B2E802105B1854EB0C04B2E849
:100F280002104D4156EB0C06B2E802104F4158EB47
:100F38000C08B2E8021059EB01095AEB0C0A894176
:100F4800B3F1FF3374F1FF3475F1FF3576F1000624
:100F580077F1000778F1000879F101097AF1FF3A91
:100F680051F100015B184C414D4156F1000657F113
:100F7800000758F1000859EBD1795AEB010A80E8CB
:100F8800F807BDE8F00770472DE9F00791E8F80782
:100F9800B2E802105B1A74EB0C04B2E802108D413F
:100FA80076EB0C06B2E802108F4178EB0C08B2E839
:100FB800021079EB01097AEB0C0A89415B184C4164
:100FC8004D4156F1000657F1000758F1000859EB5A
:100FD800D1795AEB010A80E8F807BDE8F0077047B5
:100FE80018EB040859EB05095AEB060A5BEB070BEB
:100FF8005FF0000C4CF1000C18EB050859EB0609E2
:101008005AEB070A5BEB070B50EB0C005FF0000C88
:1010180051EB0C0152EB0C0263414CF1000CB8EBA4
:10102800070879F100097AF1000A7BEB040BA84163
:10103800B141A241B3416CF1000CBBEB050BB041CF
:10104800B941AA41BB416CF1000C4CF001068CF08F
:10105800020718EB060859EB6C095AEB6C0A7BEB94
:101068006C0B70EB6C0471EB6C0572EB670653EB61
:101078006C076CEB6C0C18EB0C0059EB0C015AEB81
:101088000C025BF1000354F1000455F1000556EB26
:10109800DC7657EB0C0770472DE9F04F07EE900A06
:1010A800FFF7A2FD59EC168A17EE10AAFFF798FF72
:1010B80059EC148A5BEC15AAFFF792FF17EE908A99
:1010C80088E8FF00BDE8F08F2DE9F04F07EE900AA1
:1010D800FFF750FE59EC168A17EE10AAFFF780FFAB
:1010E80059EC148A5BEC15AAFFF77AFF17EE908A81
:1010F80088E8FF00BDE8F08F81F0004102E000BF02
:1011080083F0004330B54FEA41044FEA430594EABF
:10111800050F08BF90EA020F1FBF54EA000C55EAFA
:10112800020C7FEA645C7FEA655C00F0E2804FEACB
:101138005454D4EB5555B8BF6D420CDD2C4480EAAD
:10114800020281EA030382EA000083EA010180EADD
:10115800020281EA0303362D88BF30BD11F0004F2B
:101168004FEA01314FF4801C4CEA113102D0404261
:1011780061EB410113F0004F4FEA03334CEA13339C
:1011880002D0524263EB430394EA050F00F0A780B4
:10119800A4F10104D5F1200E0DDB02FA0EFC22FAAF
:1011A80005F2801841F1000103FA0EF2801843FAA3
:1011B80005F359410EE0A5F120050EF1200E012A94
:1011C80003FA0EFC28BF4CF0020C43FA05F3C018D2
:1011D80051EBE37101F0004507D54FF0000EDCF14B
:1011E800000C7EEB00006EEB0101B1F5801F1BD3F4
:1011F800B1F5001F0CD349085FEA30004FEA3C0CF8
:1012080004F101044FEA445212F5800F80F09A80ED
:10121800BCF1004F08BF5FEA500C50F1000041EBF1
:10122800045141EA050130BD5FEA4C0C404141EBF5
:101238000101013C28BFB1F5801FE9D291F0000FF0
:1012480004BF01460020B1FA81F308BF2033A3F19F
:101258000B03B3F120020CDA0C3208DD02F1140C96
:10126800C2F10C0201FA0CF021FA02F10CE002F1D1
:101278001402D8BFC2F1200C01FA02F120FA0CFCCA
:10128800DCBF41EA0C019040E41AA2BF01EB045113
:10129800294330BD6FEA04041F3C1CDA0C340EDC11
:1012A80004F11404C4F1200220FA04F001FA02F354
:1012B80040EA030021FA04F345EA030130BDC4F112
:1012C8000C04C4F1200220FA02F001FA04F340EA07
:1012D8000300294630BD21FA04F0294630BD94F0B8
:1012E800000F83F4801306BF81F480110134013D9F
:1012F8004EE77FEA645C18BF7FEA655C29D094EA10
:10130800050F08BF90EA020F05D054EA000C04BF8D
:101318001946104630BD91EA030F1EBF0021002078
:1013280030BD5FEA545C05D14000494128BF41F017
:10133800004130BD14F580043CBF01F5801130BD7B
:1013480001F0004545F0FE4141F470014FF0000006
:1013580030BD7FEA645C1ABF194610467FEA655CB7
:101368001CBF0B46024650EA013406BF52EA033559
:1013780091EA030F41F4002130BD00BF90F0000F47
:1013880004BF0021704730B54FF4806404F1320483
:101398004FF000054FF0000150E700BF90F0000F3C
:1013A80004BF0021704730B54FF4806404F1320463
:1013B80010F0004548BF40424FF000013EE700BF33
:1013C80042004FEAE2014FEA31014FEA02701FBFC3
:1013D80012F07F4393F07F4F81F06051704732F0F5
:1013E8007F4208BF704793F07F4F04BF41F400214C
:1013F800704730B54FF4607401F0004521F00041AA
:101408001CE700BF50EA010208BF704730B54FF033
:1014180000050AE050EA010208BF704730B511F034
:10142800004502D5404261EB41014FF4806404F16C
:1014380032045FEA915C3FF4D8AE4FF003025FEAF2
:10144800DC0C18BF03325FEADC0C18BF033202EB76
:10145800DC02C2F1200300FA03FC20FA02F001FAD0
:1014680003FE40EA0E0021FA02F11444BDE600BF73
:101478007BB972B90029BEBF00204FF0004106E0D9
:1014880008BF00281CBF6FF000414FF0FF3000F08C
:1014980057B8ADF1080C6DE904CE002909DB002B23
:1014A8001ADB00F07CF8DDF804E0DDE9022304B083
:1014B8007047404261EB4101002B1BDB00F06FF8E5
:1014C800DDF804E0DDE9022304B0404261EB4101AC
:1014D800524263EB43037047524263EB430300F00D
:1014E8005EF8DDF804E0DDE9022304B0404261EB78
:1014F80041017047524263EB430300F050F8DDF8B6
:1015080004E0DDE9022304B0524263EB4303704771
:1015180053B94AB9002908BF00281CBF4FF0FF3152
:101528004FF0FF3000F00CB8ADF1080C6DE904CEB7
:1015380000F035F8DDF804E0DDE9022304B0704777
:10154800704700BF10F8012B11F8013B012A28BF92
:101558009A42F7D0D01A7047034611F8012B03F8C6
:10156800012B002AF9D17047034613F8012B002AF2
:10157800FBD1181A01387047430803F05533C01AD5
:1015880000F03333800800F0333018444FF0013353
:1015980000EB101000F00F305843000E70472DE993
:1015A800F04786468C460846089E154674461946F6
:1015B800002B40F0C1808542B2FA82F245D94AB187
:1015C800C2F1200300FA02FC954094402EFA03F37E
:1015D80043EA0C0C4FEA154EA8B2230CBCFBFEF8EC
:1015E8000EFB18CC08FB00F943EA0C43994528D9AF
:1015F800EB1808F1FF3704D2994502D9A8F1020780
:101608002B44A3EB0903A4B2B3FBFEFC0EFB1C3373
:101618000CFB00F044EA0344A04214D92C190CF145
:10162800FF3304D2A04202D9ACF102032C44241A9D
:1016380043EA07401EB1D440002334607360BDE81C
:10164800F0874746DDE76346F1E792BB431B01217C
:101658004FEA154EAFB2200CB3FBFEFC0EFB1C3359
:101668000CFB07F840EA0343984561D9EB180CF1E5
:10167800FF3004D2984502D9ACF102002B44A3EB09
:101688000803A4B2B3FBFEFC0EFB1C330CFB07F7EC
:1016980044EA0344A7424DD92C190CF1FF3304D274
:1016A800A74202D9ACF102032C44E41B43EA0040F0
:1016B800C0E7C2F120039540944020FA03F12EFAC6
:1016C80003F34FEA154E9040AFB20343B1FBFEFC63
:1016D8000EFB1C10190C0CFB07F841EA0041884569
:1016E80022D969180CF1FF3004D2884502D9ACF12F
:1016F80002002944A1EB08019BB2B1FBFEFC0EFBE2
:101708001C110CFB07F743EA01439F420ED9EB1863
:101718000CF1FF3104D29F4202D9ACF102012B44F3
:10172800DB1B41EA004193E76046E3E76146F7E7E0
:101738006046A4E76346B8E7834206D916B9002194
:1017480008467CE7C6E900E0F9E7B3FA83F78FB902
:10175800834201D3724508D8BEEB020460EB030351
:1017680001209C461EB9002169E73846FAE7C6E918
:10177800004CF8E7C7F1200CBB400EFA07F522FA37
:101788000CF42EFA0CF1BA401C4320FA0CF3B840C2
:101798004FEA144901431FFA84FEB3FBF9F809FB29
:1017A80018300B0C08FB0EFA43EA00439A4540D95F
:1017B800E31808F1FF3004D29A4502D9A8F10200D3
:1017C8002344A3EB0A0389B2B3FBF9F809FB1833E6
:1017D80008FB0EFE41EA03418E452CD9611808F139
:1017E800FF3304D28E4502D9A8F10203214443EA0B
:1017F8000040A1EB0E01A0FB02984145CE464346AE
:1018080002D306D14D4504D20138B9EB020E68EB7C
:101818000403002EA7D0B5EB0E0261EB030101FA19
:101828000CFC22FA07F3F9404CEA0303C6E900313D
:1018380099E74046C5E74346D9E7000000000000A5
:1018480038B50124144B15481968D1F80425013A14
:10185800C1F8442504601968D1F844359A42FBD090
:1018680007210F4A0F48104CD4F844451568A3FBCC
:10187800000201FB032106A3D3E90023FFF748FE7A
:101888000A4B03FB0544204438BD00BFAFF300807A
:1018980000CA9A3B00000000E029002000B0015077
:1018A800B0F800208D49FD1A000001500080841E08
:1018B8002DE9F04705460F46164688B047F08EFAE0
:1018C80044014B01241A43EAD06363EB0103A200ED
:1018D8009B00121843EA947341EB0303DB0043EACD
:1018E8005273C2F31038012F48EA43484FEAD33401
:1018F80043D0766833782D2B38D031462848FFF707
:1019080021FE002840D124A3D3E9002340462146E4
:10191800FFF7AEFD06460C4610461946214A00233D
:10192800FFF7A6FD80460F46104619464EF6602280
:101938000023FFF79DFD82468946104619464FF45D
:101948007A720023FFF794FDCDE902A9CDE90401DD
:10195800CDE90623284632462346CDE900871249B9
:1019680011F002FE002008B0BDE8F0877378702BF4
:10197800C3D1B378002BC6D0BFE7424623462846DA
:101988000A4911F0F1FDEDE728463246084911F001
:101998002DFE6FF00400E6E7005C2605000000005D
:1019A800A4DD070080EE3600C8DD070090DD0700E3
:1019B800B0DD0700000000002DE9F04FD0F81080DE
:1019C8001C46D8F804300546187FD8F8106085B052
:1019D800002800F00E8193469A690F460023013AC9
:1019E80003E00133834200F0048112F8011FA14291
:1019F800F7D1984240F2FD805A094FEA820C06EB73
:101A080082020832D2E8AF2F03F01F031A41D2072F
:101A180002D405B0BDE8F08F4FF0010909FA03F9C7
:101A280006F10C03634419460293D1E8EF3F43EAF9
:101A38000902C1E8E02F0028F7D119EA030F44D1C1
:101A480033685A46D3F808A0214640467368D04701
:101A58008246002867D010F00303039340F0D58036
:101A68009FED6B7B5A4601468DED007B6A4815F069
:101A780063FC834600283BD03A06077601D4039BD3
:101A880003822846594619F0E3FB0028C1D0634871
:101A980003685B077ED16FEA0909584615F030FDE7
:101AA8002146D6E900340094DC68524640460023BB
:101AB800A0470299D1E8EF3F03EA0903C1E8E23FF2
:101AC800002AF7D105B0BDE8F08F06F11003634492
:101AD80018460293D0E8EF3F43EA0902C0E8E12F35
:101AE8000029F7D119EA030FAAD005B0BDE8F08F95
:101AF8004A480368590753D16FEA09092146D6E9CC
:101B080000340094DC68524640460023A0470299FE
:101B1800D1E8EF3F03EA0903C1E8E23F002AF7D121
:101B280005B0BDE8F08F47F059F947014A013F1A5F
:101B380042EAD0624FEA870362EB01061A184FEABD
:101B4800860343EA977341EB0303DB0043EA5273CE
:101B5800C2F31032324D42EA4342D5E8AF3F41F278
:101B68008731D01A884220D82E4BD3E8EF1F013195
:101B7800C3E8E21F002AF8D16FEA09090299D1E8FF
:101B8800EF3F03EA0903C1E8E23F002AF7D105B0B5
:101B9800BDE8F08F01213B46234A0EF0FFF87AE7B3
:101BA8000121224A0EF0E0F8A6E7D5E8EF1F994296
:101BB80003D1C5E8E02F0028F7D1D5D1194AD2E8DA
:101BC800EF3FC2E8E1AF0029F9D1144D3BB12A68D3
:101BD8005607D1D001212846154A0EF0DFF82B68A8
:101BE8005807C9D001212346124A0C480EF0D6F8EE
:101BF800C2E71149114840F26913114A0AF0B6F8D0
:101C080040F269110E4808F0B1FB19F08DFD00BFD4
:101C180000000000000000005C4000202836002082
:101C28003C03012038030120C00C0800D80D08002F
:101C3800A40D0800B80D0800780D08006CA2070074
:101C4800640C0800000000002DE9F04FD0F8048073
:101C5800174698F81C2006460D469946D0F810A05D
:101C680083B0AAB3D8F81830002403F1FF3C02E08F
:101C7800013494422CD01CF8013FAB42F8D1D8F87B
:101C8800003022461969586819F006FE002800F04D
:101C9800828090F802B0BBF1000F7CD063099A00F3
:101CA8000AEB83030833D3E8AF3F04F01F04234152
:101CB800D90710D4DAF800303A461C69294630466C
:101CC800DAF80430A0470026304603B0BDE8F08FAC
:101CD8006FF00104D3E70125A5400AF10C04144470
:101CE800D4E8EF3F43EA0501C4E8E01F0028F7D134
:101CF8001D420CD00AF110041444D4E8EF3F43EA23
:101D08000502C4E8E12F0029F7D11D4250D117F090
:101D1800030655D19FED2C7B39464A468DED007B55
:101D28002B4815F009FB074630B31BF0800F80F8ED
:101D380018B000D106823946D8F8000019F088FAA0
:101D480006460028BFD0234803685B070ED13846F3
:101D580015F0D6FBED43D4E8EF3F2B40C4E8E23F53
:101D6800002AF8D1304603B0BDE8F08F01215B4668
:101D7800194A0EF013F8EAE7164803685A071AD109
:101D8800ED43D4E8EF3F2B40C4E8E23F002AF8D106
:101D98006FF00B0698E70F4803685C0702D16FF0F5
:101DA800010691E701212B460C4A0DF0F7FFF6E7F3
:101DB8006FF00A0688E70121094A0DF0D5FFDFE731
:101DC80019F0B2FCAFF30080000000000000000032
:101DD8005C40002028360020C00C0800BC0F08001A
:101DE800D80F0800000000002DE9F04F2DED028B00
:101DF80005469FEDC78BDFF8508385B000224FF072
:101E0800FF318DED008BC44848F01EF84FF0FF31CC
:101E1800C14848F015F80407074638D5D8F8003007
:101E280003F00703022B00F2E0814FF0FF324FF07E
:101E3800FF33BA4843F0B4FDEFF31182202383F354
:101E48001288BFF36F8FB64B1B7883B1B549D1F8B1
:101E5800003413F400730AD10120C1F82C05D1F81D
:101E68002C05D1F80004800548BFC1F82C3582F351
:101E78001188BFF36F8FA94800F046FF012128465B
:101E880030F030FA00220321284630F0E5FAF9064E
:101E98000FD5D8F8003003F00703022B00F2AB810E
:101EA8000021284630F01EFA00220221284630F090
:101EB800D3FABA060FD5D8F8003003F00703022B7F
:101EC80000F28D810021284630F00CFA0022022110
:101ED800284630F0C1FABB0700F1E180FE0700F1A7
:101EE800B780790600F1A6807A0787D500212846B1
:101EF80030F042FA80210646284630F03DFA044682
:101F0800304630F06FFA08B115F0FAFA204630F092
:101F180069FA08B115F0F4FA0021304630F03CFABD
:101F28002046002130F038FA08220021284630F0F7
:101F380015FD0446002800F07E8130F06FFA794BD9
:101F4800E268D3F88064F6B21670D3F88474FFB2EE
:101F58005770D3F88814D3F88C0441EA00215180D3
:101F6800D3F890C4D3F894E488B24CEA0E21918057
:101F7800D3F89814D3F89C3441EA032399B2D38058
:101F880016B9052F00F0198100236748674E654987
:101F980003703778D1F87064B74200F017810126D2
:101FA8004FF4A067DFF8A4C106708CF800601780B2
:101FB800D1F870141371518053719371D371082142
:101FC80004F10C0015F0DCFC2846214630F050FEE8
:101FD800284630F025FE002800F013810026544AD8
:101FE800E368167031462846DF8830F0C5F90346A5
:101FF8003A46314628461F4630F0B0FC01460028D4
:1020080000F01281384630F007FA4A4B1B78002B53
:1020180000F0378166F09EFA474A484B12589A42B8
:1020280040F023813146284631F0B0FA01223D4B79
:10203800DA64E3E68021284630F09EF930F0CEF9E4
:10204800014600283FF450AF284630F02BFF4BE7FD
:1020580000223B4BD3E8EF4FC3E8E12F0029F9D129
:10206800002C3FF43EAF012694FAA4F3B3FA83F3AD
:1020780006FA03F20F2B24EA020407DC284643F091
:10208800800131F06BFA002CEED12AE7A3F11001A0
:102098002846C9B231F07AFA002CE5D121E70022AE
:1020A800284BD3E8EF6FC3E8E12F0029F9D1002EC0
:1020B8003FF414AF4FF00109039796FAA6F4B4FA67
:1020C80084F409FA04F30F2C26EA030640DC44F0F2
:1020D800800A5146284630F04FF9834630F07EF9A1
:1020E8000746002800F0B1800021584630F054F926
:1020F800002C5DD000223946284630F0BDF9514603
:10210800284631F02BFA002ED7D1039FE6E600BF10
:10211800FFFFFFFFFFFFFFFF383B0020C03A002012
:10212800B8D3012000600350BBD30120B9D30120EC
:10213800B7D30120C1D3012008000000006E0020A1
:1021480018B7012014B70120FC350020BAD30120AC
:10215800103CE4B22146284630F00EF9834630F0B0
:102168003DF98246C8B10021584630F015F974B9D6
:102178002846514630F07CFD284630F065FD48BBC6
:102188002146284631F002FA002E96D1BDE70022FA
:102198005146284630F070F9F2E7D8F80030580771
:1021A800EED0012123464046404A0DF0F7FDE7E70F
:1021B8003946284630F076FEA1E701263C4B1E70D2
:1021C80071BB00F07F005080117151710022394BB2
:1021D8001A70F4E65146284630F0A2FCD0E70321F5
:1021E8004046354A0DF0C0FD6CE603214046334AAF
:1021F8000DF0BAFD19E603214046314A0DF0B4FD51
:102208004EE6284630F016FD30B180222D4B284688
:102218001A7030F0AFFCF1E5284630F0D1FCEDE55E
:10222800204615F06DF9E9E56FF00B0221462846C6
:1022380030F022F9E2E5244803685B073FF4DEAD9D
:102248000121224A0DF090FDD8E51F4803685D077B
:1022580026D11F491F4840F2D7431F4A09F086FD7F
:1022680040F2D7411C4808F081F81C49194840F24F
:102278002653194A09F07AFD40F22651164808F00B
:1022880075F8174940F24633164A124809F06EFDB0
:10229800154809F06BFD40F24631124808F066F81F
:1022A80001215346114A0DF079FDD2E7405D08003F
:1022B800BBD30120BAD301200C5D0800DC5C080008
:1022C800F45C0800B7D30120FC350020605D0800ED
:1022D80024A508006CA20700745A0800805D080055
:1022E800C8D207009CD20700DCD20700245D080092
:1022F8002DE9F84300229FED2C7B02204FF4803615
:102308004FF400182A4C2B4B2B4FC4F80833C4F851
:1023180048332A4BC4F80825012183ED027BC4F811
:102328000463C4F804031520C7F8808114F012F977
:10233800152014F0DFF80123214DA36023602B60E2
:10234800D5E8EF9F29F00103C5E8E23F002AF7D15D
:10235800C4F80863BFF35F8FBFF36F8F002119487C
:1023680036F0F2F819F0010F05D1022032F0EAFF39
:102378000020BDE8F883D5E8EF3F43F00103C5E846
:10238800E23F002AF7D1104BC4F80463D3E8AF3F0B
:10239800DB074FF0020048BFC7F8008132F0D2FFD8
:1023A8000020BDE8F88300BFFFFFFFFFFFFFFFFF2E
:1023B8000050015003000F0000E100E0186F0020FA
:1023C8003CB90120FFFF7F0038B901200000000060
:1023D800414BD3F80423900705D43F4BD3F804238B
:1023E800D10312D47047D3F80421002AF5D0002174
:1023F8003A4AC3F80411D3F804311368013313605F
:10240800354BD3F80423D103ECD5F0B5344A83B067
:10241800D2E8EF1F21F00100C2E8E40F002CF7D149
:10242800CA0704D4D3F840310BB903B0F0BD00217A
:10243800294A2A4BC2F84011D2F840111B68190AE0
:102448001B06BFF35F8FD2F80425D31841F10001B2
:10245800B2F5801F0AD2234AD2E90067B34271EB72
:10246800070203D213F1807341F10001EFF3118CDD
:10247800202282F31288BFF36F8F1B4CD4E90267C6
:10248800B342B9411CD39FED127B00204FF4803238
:1024980084ED027B104B216865682060C3F84823EF
:1024A800C3F84001D3F840318CF31188BFF36F8F24
:1024B8000029BAD032463B460095884703B0F0BDA4
:1024C8008CF31188BFF36F8F03B0F0BDAFF30080BA
:1024D800FFFFFFFFFFFFFFFF0050015040B9012041
:1024E80038B90120306F0020186F0020000000006C
:1024F8002DE9F04F85B003A904461546984637F0F4
:1025080063F8064640BB94F831602EBBDDF80CB08A
:102518009BF80030042B00F0C5804FF0FF33B8F172
:10252800000F18BF1D464FF0000318BF9846D4E9A6
:102538000412D4E90E03A94272EB080705D294F8F5
:102548003070BF070CD40D4690469FED757B55EA59
:10255800080284ED0E7B07D1304605B0BDE8F08F48
:102568009FED6F7B84ED0E7BBBF80A7050EA030287
:102578004FEA47273ED0421E43F1FF39681E68F1F3
:102588000001002300923A46FEF7C2FF844600236A
:102598008A463A4649460098CDF804C0FEF7B8FF87
:1025A800019B83427AEB010124D34B4600997A427E
:1025B8000A40AD1A216CA263C4F83C9068EB090884
:1025C800F1B9D4E904509542984107D2C4E90423EB
:1025D80094F8303043F0400384F83030C2F30802F6
:1025E800002AB9D0636C8B42B6D03046616405B01E
:1025F800BDE8F08FA168002942D00022134621646B
:102608000020AF4270EB080038BF019623D380E06A
:1026180066694CF0400C0096266920469642009E5A
:102628009E413CBFC4E9042384F830C037F030FC35
:102638000146002867D04B1C43D001292DD9DBF86F
:1026480018308B4229D9D4E90E2300204F4570EB6E
:102658000A0021643AD2B5EB070994F830C068F152
:10266800000ABA1843F100031CF0020F4D46D04689
:10267800C4E90E23CCD1204637F096FA0146DAE7B2
:10268800204637F005FC0128014606D0421C18D028
:10269800D4E90E23A060206492E702231E4684F842
:1026A800313059E74FF0FF322046216C37F038FAC5
:1026B80028B99BF80030042B3FF439AF2DE70646C4
:1026C8004AE701231E4684F8313045E719EB020238
:1026D800019E43EB0A03C9F30800C4E90E23B0B115
:1026E800DBF81800023902388142D6D2BBF80A70EA
:1026F800DBF8300001FB07010029CED06D0A45EA5E
:10270800C85529445DE7019ED4E90E2359E70146DF
:1027180057E7521943EB0803C5F30800DDE700BF8C
:10272800000000000000000010B5A8B1124C94F899
:10273800303073B9C4E900123DF0A0F940B99FEDFB
:102748000C7B012384ED027B84F8380084F8303058
:1027580010BD6FF0770010BD0849094840F2A71373
:10276800084A09F003FB40F2A711064807F0FEFDEE
:102778000000000000000000386F002054820800AC
:102788006CA20700608408002DE9F043C36883B099
:10279800CB1A31D40D46D0E9052101FB02F29A4249
:1027A800044629D9B3FBF1F201FB123323BB00F134
:1027B8000806EFF311894FF0200888F31288BFF359
:1027C8006F8F304645F0DEFF002869D0304645F06F
:1027D800FFFF2769FFB12F60E3693046013B2561A0
:1027E800E36145F0DDFF00284AD089F31188BFF383
:1027F8006F8F03B0BDE8F0833F494FF489733F4AB8
:102808003F4809F0B3FA3F4809F0B0FA4FF489712C
:102818003A4807F0ABFDEFF3118388F31288BFF352
:102828006F8F83F31188BFF36F8F002B46D0236817
:102838009C4200D00BB92769CDE79A68002A4AD094
:10284800D3E900219FED2A7B0A6051605A7B83ED12
:10285800007B22F002025A739F6003F11800019373
:1028680046F0D6F9019B1846C3F8D0701D6144F0B4
:1028780063FB4946304603B0BDE8F04344F0ACBFC3
:102888004FF49A73204A1E48204909F06FFA3146DE
:102898001F4809F06BFA4FF49A711B4807F066FD60
:1028A8008823194A16481B4909F060FA31461A4824
:1028B80009F05CFA8821144807F058FD1749A62347
:1028C800174A0F4809F052FA164809F04FFAA6219C
:1028D800134807F04BFD144909488F23104A09F0A3
:1028E80045FA8F210E4807F041FD00BFAFF3008085
:1028F800000000000000000024A50800A4970800BC
:102908006CA2070084980800B0D1070010D2070015
:1029180028D20700E0D10700F8D10700D4980800B2
:10292800A898080084970800EC98080000000000A8
:10293800F8B5EFF30583002B6FD183680446002BAD
:1029480068D05F4A9268934261D1C368002B71D006
:10295800012B03D0013BC3600020F8BDEFF31186C3
:10296800202383F31288BFF36F8F564845F00AFF80
:10297800002876D0534845F02BFFA068216990F9CC
:102988000E3099421DD1EFF31183202282F3128871
:10299800BFF36F8F83F31188BFF36F8F002B53D072
:1029A8002568A54200D07DB900234648C4E9023312
:1029B80045F0F6FE002862D086F31188BFF36F8FCA
:1029C800CAE744F007FEDEE7AB68002B67D0D5E91D
:1029D80000329FED397B002713605A606B7B85EDD1
:1029E800007B23F002036B7305F11800AF6046F01B
:1029F8000FF9A56095F90E3028462361C5F8D07007
:102A080044F09AFA31462F4844F0E6FEA4E74FF026
:102A1800FF30F8BD6FF01500F8BD2B49D7232B4ABE
:102A28002B4809F0A3F92B4809F0A0F9D72127482A
:102A380007F09CFC28492648EF23244A09F096F918
:102A4800EF21224807F092FC2449A623244A204873
:102A580009F08CF9234809F089F9A621204807F0E4
:102A680085FC8823204A2149194809F07FF915492E
:102A78001F4809F07BF988211B4807F077FC4FF4C1
:102A88009A73194A1B49124809F070F90D491A48F6
:102A980009F06CF94FF49A71134807F067FC17496D
:102AA8000B488F230E4A09F061F98F210C4807F073
:102AB8005DFC00BFAFF300800000000000000000D4
:102AC800A8710020E8C10120E4990800C099080015
:102AD8006CA20700F8990800209A0800D49808000A
:102AE800A898080084970800B0D10700E0D1070033
:102AF800F8D1070010D2070028D20700EC98080088
:102B08002DE9F04782B00446894690461D469DF857
:102B180028A000F10806EFF31187202383F3128819
:102B2800BFF36F8F304645F02DFE002800F09D80E2
:102B3800304645F04DFEBAF1000F3FD1EFF3118357
:102B4800202282F31288BFF36F8F83F31188BFF3BB
:102B58006F8F002B00F09780234653F80C2F9A4272
:102B680000D072BB002D53D1C8F80050B9F1000F46
:102B78005AD0D9F80030032B62D923F003032B4332
:102B8800C8F80030D9F8003003F0030348EA03031B
:102B9800C9F80030042104F1140046F057FF70BB57
:102BA8000446304645F0FCFD002879D087F31188AB
:102BB800BFF36F8F204602B0BDE8F087D4F80490C9
:102BC800BCE79368002B7BD000249FED437B136800
:102BD800516802F118000B605960537B82ED007B4D
:102BE80023F0020353739460019246F011F8019A9E
:102BF8001046C2F8D040C2F8108044F09DF9002475
:102C08003046394644F0E8FD204602B0BDE8F0877A
:102C1800082047F03BFB28B30125C0F80480056075
:102C28008046B9F1000FA4D123682B43C8F80030BF
:102C38006368C4F80080002BACD1C4F80480A9E70D
:102C4800C8F80050626842B1136803F0030348EA09
:102C580003031360C4F804809CE7C4F80080C4F838
:102C6800048097E76FF00B049BE788231C4A1D48F4
:102C78001D4909F07BF831461C4809F077F888218E
:102C8800174807F073FB1A49A6231A4A154809F092
:102C98006DF8194809F06AF8A621164807F066FB8E
:102CA8004FF49A730E4A0F48144909F05FF83146F9
:102CB800134809F05BF84FF49A71094807F056FB7E
:102CC800104908488F230B4A09F050F88F2109480A
:102CD80007F04CFBAFF3008000000000000000008C
:102CE800B0D107006CA20700E0D10700F8D10700B7
:102CF800D4980800A89808008497080010D2070004
:102D080028D20700EC98080070B50446EFF3118646
:102D1800202585F31288BFF36F8F434845F032FDB5
:102D2800002864D0404845F053FDEFF3118385F344
:102D38001288BFF36F8F83F31188BFF36F8F002B57
:102D480048D02568AC4200D0A5B9D4E902329A42ED
:102D580018BF0133022104F11000A36046F076FE8B
:102D680010BB314845F01CFD20B386F31188BFF332
:102D78006F8F70BDAB68002B47D0D5E900320024B7
:102D88009FED277B13605A606B7B85ED007B23F0FA
:102D980002036B7305F11800AC6045F039FF284653
:102DA800C5F8D04044F0C8F83146BDE870401E4828
:102DB80044F012BD4FF49A731C4A1D491D4808F08F
:102DC800D5FF19491C4808F0D1FF4FF49A711748EC
:102DD80007F0CCFA1949A623194A164808F0C6FF85
:102DE800184808F0C3FFA621154807F0BFFA882342
:102DF8000E4A15490F4808F0B9FF0B49134808F067
:102E0800B5FF8821094807F0B1FA114909488F230D
:102E18000B4A08F0ABFF8F21094807F0A7FA00BF5B
:102E28000000000000000000ECC10120B0D1070044
:102E380010D207006CA2070028D20700D498080017
:102E4800A898080084970800E0D10700F8D1070087
:102E5800EC980800000000002DE9F04781462DEDB0
:102E6800028BEFF31188202484F31288BFF36F8F4D
:102E78004F4845F087FC00286DD005464C4845F082
:102E8800A7FCEFF3118384F31288BFF36F8F83F3EA
:102E98001188BFF36F8F002B50D04FF0000A9FEDC1
:102EA800428B6FF00A075646D9F80040A14500D07A
:102EB8009CB90023022109F11000C9F8083046F036
:102EC800C5FD10B9BAF1000F2CD0BDEC028B4146FC
:102ED800BDE8F047364844F07FBCA368002B48D0D3
:102EE800D4E9003213605A60637B84ED008B23F0D1
:102EF8000203637304F11800A66045F089FE2046BA
:102F0800C4F8D07044F018F8EFF31183202282F34C
:102F18001288BFF36F8F83F31188BFF36F8F6BB184
:102F2800AA46C1E7224845F03BFC60B388F3118804
:102F3800BFF36F8FBDEC028BBDE8F0871D49A62358
:102F48001D4A1E4808F012FF1D4808F00FFFA62171
:102F5800194807F00BFA88231A4A1B49174808F042
:102F680005FF1349194808F001FF8821154807F0A3
:102F7800FDF9174911488F230F4A08F0F7FE8F21F2
:102F88000D4807F0F3F94FF49A730E4A11490B48AC
:102F980008F0ECFE0649104808F0E8FE4FF49A7174
:102FA800084807F0E3F900BF000000000000000037
:102FB800ECC10120D4980800A89808006CA207006A
:102FC80084970800B0D10700E0D10700F8D10700C6
:102FD800EC98080010D2070028D207000000000073
:102FE80070B588B00C9D00283FD0002955D0044604
:102FF800D0F8340110F0010043D1C4F81C01C4F822
:10300800200104F59270C4E9490004F59670C4E9FA
:103018004B0045B32E7940F20110002E08BF012065
:103028009FED257BC4F83401002603938DED067BC4
:103038002046CDE90166224B0094049643F040FDFA
:1030480055B1296811B1204643F0CAFC6B791BB110
:10305800237B43F001032373204644F0D1FFC4F8D7
:10306800184108B070BD0120DAE71649164840F249
:103078003233164A08F07AFE40F23231134807F02C
:1030880075F9134910484FF44D73104A08F06EFE55
:103098004FF44D710D4807F069F90E490A4840F29E
:1030A80033330A4A08F062FE40F23331074807F02A
:1030B8005DF900BFAFF30080FFFFFFFFFFFFFFFFD9
:1030C800D55A0500DC9B08006CA20700C09A0800CE
:1030D800A89B0800E49B080070B584B0002863D062
:1030E80004460D4643F072FC002851D1EFF31186D7
:1030F800202383F31288BFF36F8F3B4845F042FBD0
:10310800C0B3394845F064FBD4F8343113F0060FE6
:103118001BD105BBD4F81C5115B343F00403C4F804
:103128003431002204F59270114645F057F99FEDAD
:103138002C7B002331468DED007B2B4804F59672DD
:10314800029345F0BDF904B070BD43F00402C4F821
:103158003421002DE5D043F00C03C4F83431E0E706
:10316800214845F01DFB58B386F31188BFF36F8FD4
:103178002846E8E788231D4A1D491E4808F0F6FD41
:1031880019491D4808F0F2FD8821184807F0EEF8A3
:103198001A49184840F26633194A08F0E7FD40F228
:1031A8006631174807F0E2F81649124840F26533CD
:1031B800134A08F0DBFD40F26531114807F0D6F8F4
:1031C8004FF49A73094A10490A4808F0CFFD064996
:1031D8000E4808F0CBFD4FF49A71044807F0C6F882
:1031E800FFFFFFFFFFFFFFFFF0C10120B0D1070085
:1031F800E0D107006CA20700F8D10700C8ED07006E
:10320800C09A0800DC9B080010D2070028D20700EB
:103218002DE9F04F85B0119D04460F2D88461F46B5
:10322800DDF838A0DDF84CB000F08C8005F1100115
:103238001E2900F28B80042100269FED5D7B129BE6
:10324800073222F00709617304F168014A4684EDE8
:10325800067B2373C4E91A11A573AA214046A66008
:10326800E67364F09AFE4FF0F03108EB0905C8F8F0
:1032780000102046294612F093FC8446109B0CF15E
:103288000702C4E92E8922F0070202930F9BAD1AA8
:10329800CDE900A341463B46C4F8C02020462A4653
:1032A80013F0C4F90F9BC4E9217AC4F88C30109B41
:1032B800666684F88060C4F89030EFF311882023A4
:1032C80083F31288BFF36F8F3B4845F05BFA002801
:1032D8005FD03A4F384845F07BFAFB6A3648C4F865
:1032E8009430FC6245F05CFA002842D088F31188DB
:1032F800BFF36F8FBBF1000F19D01F22594604F19D
:10330800980064F081FEBA6884F8B760A2B1D2F878
:10331800C40000230121C4F8C4002846C4E90E33C0
:10332800C4E90C3384F8381005B0BDE8F08FBA68EA
:1033380084F898B0002AEAD12846C4F8C42005B019
:10334800BDE8F08F1E498B423FF475AF40F24B2326
:103358001C4A1D491D4808F009FD29461C486FF004
:103368000F030E2208F002FD40F24B21154806F02B
:10337800FDFF4FF49A73174A1749144808F0F6FCF2
:103388000D49164808F0F2FC4FF49A71114806F0FE
:10339800EDFF88230F4A12490C4808F0E7FC06495C
:1033A800104808F0E3FC88210A4806F0DFFF00BF58
:1033B800000000000000000008C20120A8710020E1
:1033C80035500500089C08002C9C08006CA20700DA
:1033D800AC9C0800B0D1070010D2070028D2070023
:1033E800E0D10700F8D107002DE9F04F2DED028B51
:1033F800054683B0EFF311874FF0200B8BF312884B
:10340800BFF36F8F6C4845F0BDF9002800F0A0802D
:10341800DFF8C481684845F0DBF9D8F80040DFF8E8
:10342800BC914445C9F8005000F08F80002C00F092
:10343800AD80CDF804B09FED5E8BDFF898B1DFF872
:1034480078A102E0002C00F0AE80D4E90462E9170C
:10345800B54271EB020052DBDBE90021921941EB26
:10346800E671204684ED048BCBE9002145F0AAFAE9
:10347800504645F095F9002878D087F31188BFF3B6
:103488006F8F2046A2689047EFF31187019B83F363
:103498001288BFF36F8F504645F074F9002857D053
:1034A800504645F095F9D9F80050D8F80040AD1BC2
:1034B8004445C9F80050C5D100216FF00040DBF841
:1034C8000020C9F800105219CBF80020DBF80420BE
:1034D80042EBE572CBF80420002135F0D3F83648EA
:1034E80045F05EF9002841D087F31188BFF36F8F4C
:1034F80003B0BDEC028BBDE8F04F45F0CBB8761BAE
:1035080062EB010226616261D8F800400022C9F826
:103518000020DBF800205219CBF80020DBF804204B
:1035280042EB01024445CBF804200BD054B1D4E956
:103538000403B0F1004F73F1000203DA002BB8BFA7
:103548000020C9E76FF00040C6E7DFF888B0B3E7AE
:1035580088231A4A1A491B4808F008FC16491A48D1
:1035680008F004FC8821154806F000FF4FF49A7310
:10357800124A1649134808F0F9FB0F49144808F095
:10358800F5FB4FF49A710D4806F0F0FE114A6FF002
:103598000040D2E900315B1941EBE571C2E9003125
:1035A800C9F8004098E7E917B0E700BFAFF300801B
:1035B800000000000000000010C20120B0D1070088
:1035C800E0D107006CA20700F8D1070010D207006D
:1035D80028D2070058740020AC3300200CC2012008
:1035E80000239FED077BC0E9081200F1180280ED67
:1035F800007BC0E90622036343637047AFF3008092
:103608000000000000000000704700BF2DE9F047EF
:1036180082B0994D00AF2B6803F00703022B00F22C
:10362800E0803C46204606F09BFE3B68002B00F0FD
:1036380079810024DFF8DC92DFF8DC828E4E02E02C
:103648000134202C54D023FA04F2D207F8D52A6882
:1036580002F00702022AF3D901230E2C03FA04F31D
:1036680000F05E81B3F5804F65D8072C00F0EA8042
:10367800802B53D8202B4BD8013B1F2B21D8DFE8B8
:1036880013F0F200DD002000EA00200020002000F6
:10369800EE00200020002000200020002000200054
:1036A800F000200020002000200020002000200042
:1036B8002000200020002000200020002000200002
:1036C800EC006E4BEA4688B069464FF400700A4633
:1036D800C1E90593888342F8108F00234FF4E6511F
:1036E800304601340CF096FB202CD5463B68AAD115
:1036F800012B00F0A980022B00F0B780032B0CBF30
:103708005F4860480CF0A0F90837BD46BDE8F0876F
:103718005D4B5A4A062C18BF1346D3E70B2C5CD0D6
:10372800B3F5006F1AD90C2C4DD0584B534A0D2CB9
:1037380018BF1346C6E7152C00F08280B3F5001FAA
:1037480018D9192C4BD0B3F1007F0DD91A2C36D0CB
:103758004F4B4A4A1B2C18BF1346B3E7092C34D0E9
:103768000A2C14D14B4BADE7172C32D0182C14D19E
:10377800494BA7E7122C2ED0B3F5802F13D9132C61
:103788001FD0464B3D4A142C18BF13469AE7444BAA
:103798003A4A082C18BF134694E7424B374A162C6E
:1037A80018BF13468EE7102C11D0112C01D13E4BB7
:1037B80088E73E4B314A0F2C18BF134682E73C4B33
:1037C80080E73C4B7EE73C4B7CE73C4B7AE73C4B45
:1037D80078E73C4B76E73C4B74E73C4B72E73C4B55
:1037E80070E76E468CB06B463A4A40F202413A6046
:1037F800394A3A48DA613A4A58611A621A463948E7
:10380800DFF818C1B98098613C46D7E900015862D1
:10381800198542F810CF00234FF4535128460CF075
:10382800F9FA2B68B54603F00703022B7FF6FAAEC8
:10383800032128462C4A0CF097FAF3E62B4B41E774
:103848002B4B3FE72B4B3DE72B480CF0FDF8083797
:10385800BD46BDE8F087294B34E7294B32E7294BB1
:1038680030E7294B2EE7294B2CE729480CF0ECF8D8
:103878000837BD46BDE8F087703500201896070068
:103888000C99070008990700889607000497070015
:1038980038960700DC960700C09707007497070062
:1038A800B8960700989707004497070028970700DD
:1038B800E097070064970700F4960700C49607008E
:1038C80034970700AC97070054970700E89607005D
:1038D800D09707000002010348980700FC970700EB
:1038E800E4980700BC98070050980700F097070075
:1038F80084970700A09607001499070048960700C8
:103908007C96070058960700709607002C960700CB
:10391800109907009C9807000300000105000003A8
:103928000D4BCFE62A68510713D06C4688B069461C
:103938004FF400750A4609488D8348610848886134
:10394800084842F8100F4FF4E25107480CF062FAA9
:10395800A5466FF01500D7E6149707006C98070086
:103968009498070003000001703500202DE9F04D00
:103978004FF0FF3A4FF0FF3B594C5A4F5A4E5B4DB0
:10398800DFF888818EB02846CDE900AB04AA03A9E8
:103998002EF032FA50B123685B077FD1002383F3FE
:1039A8001188BFF36F8F0323184602DF9DF810308C
:1039B8009A1E082A55D801A151F822F08F39010022
:1039C8008F3901006B3A01006B3A01007F3A010020
:1039D800293A01008F3901000D3A0100E939010047
:1039E800414803F07DFE306805F0D6F90028CAD0BA
:1039F80023685B07C7D0012103463D4A38480CF0CD
:103A0800CDF9C0E705F050FA0028BCD023685A0762
:103A1800B9D001210346374A31480CF0BFF9B2E763
:103A2800236803F00703022B46D89DF82830162B8D
:103A3800A9D000234FF08070022200901946184642
:103A480003F0C4FE00283FD010F1780F9BD1236803
:103A5800590798D001210346274A21480CF09EF9BE
:103A680091E7226812F0060F8DD00221234A1C48E4
:103A78000CF094F987E7DDE9080105F01BF9C0B1FE
:103A88004FF0807223683A6013F0060F3FF47BAF63
:103A980002211B4A12480CF067F974E740F2471CF0
:103AA8000346424601210E48CDF800C00CF092F9B9
:103AB80074E7099B3B6066E79DF828300321114AAB
:103AC80007480CF06BF9B0E7236803F00703022BF3
:103AD8007FF659AF03210C4A01480CF045F952E72B
:103AE8009C3500204027002060740020BC9007000F
:103AF800E0990700B499070070990700049A070035
:103B08003C990700549907009099070018990700F5
:103B18002DE9F04F4FF0FF3A4FF0FF3B9F4CA04E7E
:103B2800DFF8AC829F4DA04F8FB02846CDE900AB9F
:103B380007AA06A92EF060F958B12368590740F082
:103B4800B180002383F31188BFF36F8F03231846D6
:103B580002DF9DF81C305A1E062A00F2988001A147
:103B680051F822F0713C0100973C0100093C01002A
:103B7800373C0100333B0100AF3B0100893B0100AA
:103B8800236813F0060F40F0E28005F08DF9002855
:103B9800CBD023685B07C8D001210346834A7F48FE
:103BA8000CF0FCF8C1E7236803F00703022B00F2CE
:103BB800B080099803F0B8F920B1236813F0060F14
:103BC80040F0CB8096F80090B9F1000F00F0A78084
:103BD800D8F800300222009300231946184603F053
:103BE800F5FD002867D010F1780F9ED023685A079A
:103BF8009BD0012103466E4A68480CF0CFF894E741
:103C08003378002B91D000F0C7FF0020307005F00A
:103C180063FE002889D023685A071CD0D3220346A4
:103C280000920121604A5D480CF0D4F813E0337823
:103C3800012B3FF47AAF4FF0010986F8009001F0AC
:103C48007BF8002005F0D6FD00283FF46EAF23680E
:103C58005B0740F08880002383F31188BFF36F8FE0
:103C68000323184602DF60E705A903AA04A804F0A5
:103C7800F9FF014658B3236813F0060F3FF455AF18
:103C8800022103464B4A45480CF088F84DE7226864
:103C980012F0060F3FF449AF0221474A3F480CF0A3
:103CA8007DF842E7C3220346009201213A463B4889
:103CB8000CF090F845E7236803F00703022B7FF622
:103CC80034AF03213D4A35480CF04EF82DE7059AEC
:103CD80000F020FE50B12368590756D1002383F322
:103CE8001188BFF36F8F0323184602DF039801F092
:103CF800A1FA00287FF419AF236803F00703022B09
:103D08007FF613AF039B03212D4A24480CF046F895
:103D18000BE703212B4A21480CF026F849E701213B
:103D2800317001F009F8484605F064FD00283FF4B9
:103D38004FAF2268012112F0070F1DD1002383F332
:103D48001188BFF36F8F0323184602DF40E7022173
:103D58001D4A12480CF008F817E702211B4A0F48C1
:103D68000CF002F82EE7E2220346009249463A4652
:103D78000A480CF02FF86EE74FF48672034600925B
:103D88000648094A0CF026F8D8E7F52203460092BF
:103D98000121054A01480CF01DF89FE79C350020D9
:103DA80038340020D490070018990700B499070008
:103DB800709907002C9A0700CC9A07009099070081
:103DC800489A0700689A0700909A0700749A0700B3
:103DD800402700202DE9F04101277A4CDFF81C82AA
:103DE800794D7A4E86B04FF0FF324FF0FF332846B8
:103DF80003A92DF085FF58B12368590740F0878043
:103E0800002383F31188BFF36F8F0323184602DF63
:103E180040F6CD420023039804A92DF007FF50B1C6
:103E280023685A077ED1002383F31188BFF36F8F6D
:103E38000323184602DF9DF81430012B09D02368AC
:103E480013F0060FCFD002212046614A0BF08CFFF9
:103E5800C9E7049B182B10D8072B10D9A3F1080227
:103E6800102A0CD8DFE802F042240B0B0B0B0B0BCB
:103E78000B0B0B0B0B0B0B331500FF2BB3D022686E
:103E880012F0060FAFD002212046524A0BF086FFEF
:103E9800A9E704F0FDF80028A5D0236813F0060F61
:103EA800A1D0022103464C4A46480BF077FF9AE717
:103EB80004F0FAFF014600283FD023685B0792D040
:103EC80001210346454A3F480BF068FF8BE704F0A1
:103ED800F1F8002887D0236813F0060F83D0022159
:103EE80003463F4A37480BF059FF7CE798F8003003
:103EF800002B3AD0012B53D0226812F0060F3FF462
:103F080072AF02212046374A0BF048FF6BE74FF0AB
:103F1800540C0346324601212046CDF800C00BF070
:103F280059FF6DE74FF0590C0346324601212046F0
:103F3800CDF800C00BF04EFF75E73FB34FF080732C
:103F480002220093284B074603F040FC00283FF468
:103F58004AAF236813F0060F3FF445AF022103462A
:103F6800224A18480BF01AFF3DE704F053FF0028D7
:103F78003FF439AF236813F0060F3FF434AF022142
:103F880003461B4A0F480BF009FF2CE74FF08073DC
:103F9800394600930222174B03F018FC0127D5E796
:103FA80004F01CFF00283FF41EAF236813F0060F2F
:103FB8003FF419AF022103460F4A02480BF0EEFE08
:103FC80011E700BF9C350020C8900700189907002A
:103FD800F49A0700089C07006C9B0700B499070037
:103FE8008C9B0700549B0700AC9B0700D89B0700DD
:103FF8000C9B0700C49B0700309B07003834002047
:10400800014B1878704700BF383400200448036813
:1040180013F0060F00D170470221024A0BF0A4BE2C
:104028009C3500202C9C07002DE9F04389B008AF8F
:1040380006F0BEFA68B103469F480268550740F08B
:104048001782002383F31188BFF36F8F0323184669
:1040580002DFFFF7DBFA034660B1974802685407AE
:1040680040F00E82002383F31188BFF36F8F032380
:10407800184602DF02F06EFF034660B18E48026800
:10408800510740F0ED81002383F31188BFF36F8F50
:104098000323184602DF00F065FE034660B1864838
:1040A8000268520740F0F481002383F31188BFF3BC
:1040B8006F8F0323184602DF4FF000084FF0000906
:1040C800002405254FF40062CDE90689CDE90354A3
:1040D800CDE90144794B7A4900947A4842F0F0FCE2
:1040E800794942F07DFC0446002800F00981724DB0
:1040F8002B685B0740F08681002383F31188BFF3A8
:104108006F8F0323184602DF41F69A1200236F4986
:104118006F482DF019FF0446002800F0B780664D5F
:104128002B685B0740F04081002383F31188BFF3BD
:104138006F8F0323184602DF02F04EF9044658B188
:104148005D4D2B685B077CD1002383F31188BFF397
:104158006F8F0323184602DF5E4804F0FBFE044617
:1041680058B1554D2B68580747D1002383F3118860
:10417800BFF36F8F0323184602DF00214FF08074CE
:10418800022200940846544B03F020FB044658B121
:10419800494D2B685A070CD1002383F31188BFF3CC
:1041A8006F8F0323184602DF00200437BD46BDE8A1
:1041B800F083E84688B04FF4007142464748A8F8B3
:1041C8001C10C8F8140046494648C8F8180042F8B8
:1041D800101F00234FF4E25128460BF01BFE2B68FA
:1041E800C5465B07D8D040F26626234601212846FB
:1041F8003D4A00960BF0EEFDCEE7E84688B04FF456
:10420800007142463548A8F81C10C8F81400344913
:104218003648C8F8180042F8101F00234FF4E2513E
:1042280028460BF0F7FD2B68C54659079DD040F28C
:1042380053262346012128462B4A00960BF0CAFD37
:1042480093E7E84688B04FF4007142462348A8F83F
:104258001C10C8F8140022492548C8F8180042F86C
:10426800101F00234FF4E25128460BF0D3FD2B68B2
:10427800C5465E073FF468AF4FF414762346012124
:104288002846194A00960BF0A5FD5DE741F69A12FB
:104298000023184918482DF057FE044600284DD031
:1042A800054D2B685E073FF43FAF01212846134AAE
:1042B8000BF05AFD7DE000BF9C350020DD3D01007C
:1042C800C8E30120A8430020589C0700C8900700B5
:1042D8006C900700915F0100C49B070058B6070067
:1042E80003000001EC9D070018990700CC9D07000A
:1042F800AC9D0700D490070094900700489D0700E4
:104308004FF40062CDE90350CDE901000090CDE9FA
:104318000689634B6349644842F0D2FB634942F023
:104328005FFB044600B3624D2B685E073FF4E4AEC2
:10433800012128465F4A0BF017FD68E041F69A1202
:1043480000235D495D482DF0FFFD044600283FF439
:10435800F3AE574D2B6858073FF4E6AE01212846C7
:10436800574A0BF001FD24E04FF40062CDE90350F9
:10437800CDE901000090CDE90689524B52495348D6
:1043880042F09EFB524942F02BFB044600283FF4C2
:10439800BBAE474D2B6858073FF4AEAE0121284607
:1043A8004C4A0BF0E1FC32E0012128464A4A0BF066
:1043B800DBFC2B6859073FF4B7AEE84688B04FF4EA
:1043C800007142464548A8F81C10C8F81400444932
:1043D8004448C8F8180042F8101F00234FF4E2516F
:1043E80033480BF017FD2B68C5465A073FF49CAEBF
:1043F80040F24D25234601213B4A2D4800950BF0FC
:10440800E9FC91E601212846384A0BF0ADFC2B68FF
:1044180059073FF471AEE84688B04FF40071424640
:104428002E48A8F81C10C8F814002D493048C8F8C0
:10443800180042F8101F00234FF4E2511C480BF0FB
:10444800E9FC2B68C5465A073FF456AE40F24A25A8
:1044580023460121244A164800950BF0BBFC4BE685
:104468004FF411740121204A00940BF0B3FC0AE6C2
:1044780040F23E2401211C4A00940BF0ABFCE0E51D
:1044880040F241240121184A00940BF0A3FCE9E50D
:1044980040F247240121144A00940BF09BFC03E6E8
:1044A800193B0100C8DB012090420020889C0700CE
:1044B8009C3500209C9C0700BC9007005890070082
:1044C800649D070075390100C8D301207841002098
:1044D800C49C0700D49C07002C9D070058B6070011
:1044E80003000001809D070018990700649C0700DD
:1044F800009D07002DE9F04F00263446ADF5757D87
:10450800DFF8DC92AD4D02AF01214FF0FF324FF0E2
:10451800FF33AB4845F05EF9804658B1D9F8003012
:104528005A077BD1002383F31188BFF36F8F0323CE
:10453800184602DF4FF0FF3239464FF0FF33A148EB
:1045480040F0B8FE804660B1D9F80030580740F016
:104558008880002383F31188BFF36F8F03231846E5
:1045680002DF2B7E002B47D000220023964812F052
:10457800DFFE0446002800F0BB804FF0020B4FF02E
:10458800000AD7F8008000F1180C08F1180EBEE8F0
:104598000F00ACE80F00BEE80F00ACE80F009EE883
:1045A8000F008CE80F0084F818B0EB69E269236308
:1045B80002FB03F3854AA2FB0323AA6A5B0DA362ED
:1045C800226284F834A06B6AA363814B1B68002BBA
:1045D80040F097804046214600F08CFE804658B156
:1045E800D9F800305A075FD1002383F31188BFF34D
:1045F8006F8F0323184602DF3868013612F080FFF8
:10460800B6F57A7F72DA2B7E002B3FF47DAF204619
:10461800FFF7FCFC204612F073FF75E7EA4688B006
:1046280002AB6C4A4FF400715A616B4A99839A61E4
:104638001A466A4B42F8103F00234FF4E25168488B
:104648000BF0E8FBD9F80030D5465B073FF46AAFBA
:104658009A22434600920121624A61480BF0BAFB54
:1046680060E7EA4688B002AB5A4A4FF400715A61D3
:104678005D4A99839A611A46584B42F8103F0023C5
:104688004FF4E25156480BF0C5FBD9F80030D54637
:1046980059073FF45EAFA022434600920121514AD8
:1046A8004F480BF097FB54E7EA4688B002AB494AFB
:1046B8004FF400715A614D4A99839A611A46474BE3
:1046C80042F8103F00234FF4E25145480BF0A2FB9B
:1046D800D9F80030D5465B0786D0D12243460092F0
:1046E8000121404A3E480BF075FB7DE700268AE72A
:1046F800D9F8003013F0060F48D1386812F000FFDF
:1047080002E73B4AC7F804A04FF47071009207F122
:104718000800384A34F08CF858B1D9F800305A07F4
:1047280043D1002383F31188BFF36F8F0323184607
:1047380002DF3B683A1DDB684FF47071009207F1A5
:104748000800102234F0CCF858B1D9F800305B07D3
:1047580022D1002383F31188BFF36F8F03231846F8
:1047680002DFD7E90082B8F8103093423FF432AF45
:10477800D9F8001049073FF42DAF012100921848DD
:104788001D4A0BF027FBD7F8008023E702211B4ABC
:1047980013480BF0E9FAB0E7C8220346009201215A
:1047A800104A0F480BF016FBD3E7C32203460092CA
:1047B80001210C4A0A480BF00DFBB2E7D074002027
:1047C80044270020883900201C3D002083DE1B433D
:1047D8006C74002058B60700109E07000300000103
:1047E800B434002018990700249E0700A09E0700F3
:1047F8006474002070740020709E0700589E0700A3
:104808002DE9F0418AB00AAF05F062FCEC46254C70
:1048180004F1100EBEE80F00ACE80F00BEE80F0070
:10482800ACE80F009EE803008CE8030094E80F0052
:1048380001F08AF958B11C4E33685A070DD100238C
:1048480083F31188BFF36F8F0323184602DF002319
:1048580084F83430BD46BDE8F081E84688B00546A6
:104868000AAB124A4FF400705A61114A11499A6111
:104878001A46988342F8101F00234FF4E25130463D
:104888000BF0C8FA3368C5465B07D8D04FF4FB7CF9
:104898002B4601213046084ACDF800C00BF09AFAA1
:1048A800CDE700BFD0740020B434002058B607000C
:1048B800B09E0700030000011899070010B5114BBE
:1048C800044693F8343053B90F48036813F0060FC1
:1048D8000DD120460D490EF047FE002010BDFFF710
:1048E8008FFF204609490EF03FFE002010BD084A00
:1048F80002210BF039FA204604490EF035FE00205B
:1049080010BD00BFD0740020B4340020E49E07001E
:10491800C89E0700B0F57A5F08B513D045F6C053B6
:1049280098420FD04BF6803398420BD060B11A4AA8
:104938001368590726D0012103461046174A0BF081
:104948002DFA1FE0164B9862B2F57A5F0FD045F644
:10495800C0539A420BD04BF680339A4207D06AB9BB
:1049680019B101220E4BD9611A76002008BD012029
:104978000B4BDA6018710029F3D1F6E70648036893
:104988005B0702D16FF0150008BD01211346034AE9
:104998000BF004FAF6E700BFB4340020FC9E0700D1
:1049A800D07400202DE9F047DFF8E08182B098F854
:1049B8003430002B00F0BA800746002800F0C18090
:1049C80000220023674812F0B3FC0446002800F0D8
:1049D800B080654E00F118050FCE0FC50FCE0FC57C
:1049E80096E80F0085E80F00FB693846E361FB6B2A
:1049F8002146E3633B6C23647B6C6364D8F808301E
:104A0800A36300F079FE0746002857D1574D0AE006
:104A180000220023284601A940F04CFC233007D08F
:104A2800019812F06DFD2B696A6A9B1A092BEFD960
:104A3800DFF85C91DFF85C81DFF830A10022002309
:104A4800484612F075FC05460C300195002D41D002
:104A5800228AE168A8FB0232D20807FB021112F091
:104A6800B3FF2146019812F08FFEE369A8FB0323E8
:104A7800DB08EB61268AA06BA8FB0636F60818B19E
:104A8800FCF77AFDB6FBF0F6AE6200220023504632
:104A980001A940F007FC0137054640BB0A2FCDD1DC
:104AA800334A1368B3F57A7F2FD001332046136059
:104AB80012F026FD284602B0BDE8F0872D480368AD
:104AC800590724D13D46204612F01AFD284602B067
:104AD800BDE8F087274803685A071DD16FF00B051A
:104AE800204612F00DFD284602B0BDE8F0872148A7
:104AF80003685B0715D1019812F002FD204612F0F9
:104B0800FFFC284602B0BDE8F0870346CEE7012146
:104B1800194A0BF029F9D5E70121184A0BF024F9B5
:104B2800DCE70121164A0BF01FF9E4E74FF0FF35E7
:104B3800C0E71048036813F0060F09D16FF01B0592
:104B4800B8E70C4803685C0707D16FF01505B1E7B3
:104B580002210C4A0BF008F9F0E701210A4A0BF090
:104B680003F9F2E7DC3C002014A10700BC3900205F
:104B780068740020B4340020489F07005C9F070039
:104B8800709F0700349F07001C9F0700D074002007
:104B98009C3D0020CDCCCCCC2DE9F041524D0124D8
:104BA80028468AB000F8084B0AAF05F0D9FBA86878
:104BB80000283FD0FCF7E0FCC0B2EC464B4C6871D3
:104BC8000FCCACE80F000FCCACE80F0094E8030062
:104BD8008CE8030095E80F0001F018F8044658B176
:104BE800434E33685B0727D1002383F31188BFF353
:104BF8006F8F0323184602DF01242B7E85F834408B
:104C08001BB13C4D2968002941D03B493B4805F080
:104C180035FA034658B13648026852072FD10023A7
:104C280083F31188BFF36F8F0323184602DFBD4655
:104C3800BDE8F0812046C0E7E84688B00AAB304AB4
:104C48004FF400705A612F4A2F499A611A46988387
:104C580042F8101F002330464FF4E2510BF0DAF807
:104C68003368C5465807BFD040F2C31C234601210C
:104C78003046264ACDF800C00BF0ACF8B4E74FF444
:104C8800E9740121214A00940BF0A4F8C7E7002237
:104C980000230326CDE90623CDE9011104910091F3
:104CA80042F6F8221A4B1B4903961B4841F008FFAD
:104CB80028601A4941F094FE03460028A5D00C4804
:104CC8000268510708D1002383F31188BFF36F8F5F
:104CD8000323184602DF98E740F2CD1521460B4A18
:104CE80000950BF077F8EEE7D0740020E074002010
:104CF800B43400201875002088390020BC39002001
:104D080058B60700909F0700030000011899070094
:104D1800FD440100C8EB0120C0440020A89F070003
:104D280010B50446FFF738FF204602490EF01CFC78
:104D3800002010BDB09F0700074B93F834302BB903
:104D48000648036813F0060F02D17047FFF758BDF5
:104D58000221034A0BF008B8D0740020B4340020B4
:104D6800C89E070010B504F09BFF044628B11148FF
:104D780003685A0716D1204610BD0146012005F0E8
:104D8800B5F9044648B10B4803685B07F3D0012125
:104D98002346094A0BF002F8EDE7084844F0B0FE54
:104DA800204610BD01212346054A0AF0F7FF204698
:104DB80010BD00BFB4340020F09F07000875002024
:104DC800C89F07000021034B4FF470720248197006
:104DD80063F0E3B88CD3012020750020014841F02E
:104DE800E5B900BF60270020284B93F8102C8242B9
:104DF80040D0F0B583B0264D83F8100C2B680446DC
:104E080003F00703022B02AF14D8032C4FF0010064
:104E18002BD004F037FD50B12B685B072BD1002352
:104E280083F31188BFF36F8F0323184602DF04371B
:104E3800BD46F0BD174B6E4688B053F8201002AB44
:104E4800154A4FF400705A611A46996113499883BC
:104E580042F8101F002328464FF4E6510AF0DAFF03
:104E6800032CB5464FF00100D3D104F0C3FC002851
:104E7800DDD0D1E770474FF4C77403460121084AD3
:104E8800034800940AF0A6FFC9E700BFE0C8002065
:104E9800AC340020C4A7070094A107000300000158
:104EA8001899070038B500240546064B204683F8B4
:104EB8001C4CFFF799FF284603490EF055FB204686
:104EC80038BD00BFE0C80020A8A10700012208B52E
:104ED800034B044983F80C2C0EF046FB002008BD58
:104EE800E0C80020CCA107000448036813F0060FAF
:104EF80000D170470221024A0AF036BFAC340020C4
:104F0800F4A1070010B5002836D0234A036850786A
:104F1800D3E900141B7A30B102F5A042C2F8F41BA1
:104F280003B121B910BDBDE81040FFF7DDBF1B4A32
:104F3800091B63EB0303914273F1FF3202DA013973
:104F480043F1000341F289341548B1F5FA7102685A
:104F580043F1FF33A14202F1010273F10003026041
:104F6800E0D301220F4BD3E8EF1FC3E8E42F002C56
:104F7800F9D10023036010BD0B4940F25B330B4AA3
:104F88000B4806F0F3FE0B4806F0F0FE40F25B31EA
:104F9800064805F0EBF900BFE0780020010000802A
:104FA8001C75002000D5002058A2070028A2070081
:104FB8006CA207008CA2070098B50C4A00AF88B015
:104FC8006B4652F820104FF4007C1A46084C0948EA
:104FD800C3E90541A3F81CC04FF4E65142F8100F8D
:104FE800002305480AF016FFBD4698BDD4A7070060
:104FF800A0A2070003000001AC34002010B40F4940
:105008000F4C91F800CC226884450CD002F00702BE
:10501800022A81F8000C02D85DF8044B70475DF84D
:10502800044BFFF7C9BF12F0060FF5D00221204646
:10503800044A5DF8044B0AF097BE00BFE0C80020A0
:10504800AC340020B4A2070008B5084B93F80C2C28
:105058003AB10122064983F81C2C0EF085FA00208B
:1050680008BD04490EF080FA002008BDE0C8002001
:10507800ECA2070010A3070010B50B4A92F81C3CDD
:1050880023B10A490EF070FA002010BD04461846F4
:1050980082F80C3CA2F8023CFFF7B0FF2046044916
:1050A8000EF062FA002010BDE0C8002040A30700FF
:1050B80074A3070008B5074803685B0702D16FF0BF
:1050C800050008BD0121044A0AF04EFE6FF00500F4
:1050D80008BD00BFAC3400209CA3070010B50446EF
:1050E800054844F015F8054841F060F820460449A1
:1050F8000EF03AFA002010BDD836002060270020B4
:10510800B8A307002DE9F0432DED028B042983B0E5
:1051180072D1556814463C4B2A789A5C52076FD571
:10512800A26812789B5C5B0762D50A2200210746B9
:10513800284660F089FF0A2200210646A06860F030
:1051480083FF00210546E06860F05EFDB5EEC00A09
:10515800F1EE10FAB0EE408A43D9F7EE007AB4EED9
:10516800E70AF1EE10FA3CDCDFF8C480B4B2ADB265
:105178002B462246384625490EF0F6F998F80030B5
:105188005BB1234843F0C4FF224841F00FF898F878
:10519800003013B36FF00F0606E0FFF78BFF10F136
:1051A800100F0646EDD026B1324638461A490EF0A1
:1051B800DBF918EE100AFCF703F9804689462B46FE
:1051C80022463846CDE9008914490EF0CDF930461B
:1051D80003B0BDEC028BBDE8F083FFF76BFF06461A
:1051E800E1E738460E490EF001FA6FF01506EEE7D2
:1051F8000C490EF0FBF9F8E70B490EF0F7F9F4E764
:105208000A490EF0F3F9F0E7911A090074A40700AF
:10521800D83600206027002094A40700B0A4070017
:1052280048A407002CA40700C4A3070010A4070083
:105238008CD301204DF6A862A0F6B83191420346FE
:1052480004D8104A0020C2F8183C704710B50E4C1C
:10525800226812F0060F02D16FF0150010BD02216E
:1052680020460A4A0AF09AFD236813F0060FF3D085
:10527800044BD3F8183C02212046054A0AF08EFD5B
:10528800EAE700BFE0C80020AC340020E4A407002F
:105298000CA5070030B5914287B008D10C9A13606D
:1052A8000D9B0A9A1A600024204607B030BD1446A8
:1052B8004FF470751A460D9B049403930B9B02954B
:1052C800CDE9001302210A9B33F0F4FB044618B918
:1052D800DDE90B231A60E6E7044803685B07E3D0BF
:1052E80001212346024A0AF059FDDDE7EC3500208A
:1052F8000CA807002DE9F04FADF2B47DB34A04AF16
:10530800147E002C00F08B818346002800F0748105
:105318008846002900F070811278012A40F0C9817E
:1053280000219BF81830C068012BD8F80CA0B86190
:10533800F96140F0688198F81810022940F06381FB
:10534800DBF83890B9F1000F00F009814846FCF706
:1053580013F90446C3B2DBF82810BBF8105001FB60
:1053680004F4A542C0F08581D8F83840B8F8126036
:10537800D8F82850002C00F0F480FB602046FCF799
:10538800FBF800FB05F5AE42FB68C0F082814E4693
:10539800012E38BF01260025BB6050E0DBF828C08D
:1053A8000CFB0503D8F82020DBF82010CDF800C04E
:1053B80040F6540C07F11C00039007F11800029006
:1053C80007F57870019082480CFB0500FFF762FF33
:1053D800814658B17F4B1B685B0776D1002383F366
:1053E8001188BFF36F8F0323184602DFFB69D8F8D3
:1053F8003020FB60194607F11603B869CDE901A30F
:10540800BBF8283000932B4610F02CF8814658B191
:10541800704B1B6859077DD1002383F31188BFF3B4
:105428006F8F0323184602DFFB8A9A4404F00103B6
:105438002B4464084FEA5606DDB22CD05EB306EA68
:105448000403D807F2D59BF83430DBF80C00002BA6
:10545800A4D04FF4707307F12009BBF81010CDE900
:1054680001939BF82C300093BA682B4633F0D2FA9C
:10547800F86060B157480368590740F0D7800023A7
:1054880083F31188BFF36F8F0323184602DF4B465F
:10549800DBF828C086E7FC8AD8F83800C8F8284026
:1054A800DBF838301840C8F8380018B1FCF764F851
:1054B80000FB04F4214608F10C0012F061FA002008
:1054C80007F2A477BD46BDE8F08FC7F80CD088B0C6
:1054D80004AB4FF400729A831A463F4959613F4919
:1054E80099613F4B42F8103F00233A484FF4E2518C
:1054F8000AF090FC374BD7F80CD01B6858073FF4DC
:105508006DAFC0224B4600920121364A31480AF05D
:1055180061FC63E7C7F80CD088B004AB4FF40072A5
:105528009A831A462C4959612F4999612C4B42F8A4
:10553800103F00234FF4E25126480AF06BFC254B3C
:10554800D7F80CD01B685A073FF466AFC5224B4604
:1055580000920121234A1F480AF03CFC5CE71C46E4
:10556800F9E6AE42C0F095804E46012E38BF0126BE
:1055780019F001047FF40FAF2021012403E014EA9D
:10558800090F7FF408AF01394FEA4404F7D1114CF1
:105598002268530734D0154A012120460AF0E4FB5B
:1055A800226856072CD0DBF8383001212046104AF3
:1055B8000AF0F4FB23685D0722D0D8F838300121BF
:1055C80020460C4A0AF0EAFB1AE000BF54F6002015
:1055D800ACE50020EC35002058B60700A0A907006C
:1055E8000300000118990700A09E070020A90700E2
:1055F80048A9070064A90700344803685D0743D138
:105608006FF015005CE7314802685407F8D098F845
:10561800184001212E4A00940AF0DCFBF0E72B48E1
:1056280003685E0740D16FF0050049E7C7F804D06A
:1056380088B004AB4FF400729A831A462549596121
:1056480025499961254B42F8103F00234FF4E25158
:105658000AF0E0FB1D48D7F804D003685A073FF466
:105668000EAFB322FB68012100921D4A0AF0B2FB7B
:1056780005E7164803685907C2D001212B46194A85
:1056880000940AF0A7FBBBE70121174A0AF06CFB5C
:10569800B6E70E4803685A07B2D001213346134AC9
:1056A80000950AF097FBABE70121114A0AF05CFB71
:1056B800B9E7064803685B0702D16FF01200FFE6FE
:1056C8000B7E01210B4A0AF069FBF6E7EC35002056
:1056D80078A8070058B6070080A907000300000152
:1056E80018990700C8A8070054A80700F4A80700DD
:1056F80030A80700C8A90700002800F00B822DE990
:10570800F04FADF2BC7D884604AF002900F0E3807D
:10571800A54B1A79002A00F0CB811B788146012B12
:1057280040F0B8810022037E07F12804022BC7E964
:10573800084240F0A2810A7E012A7A6040F09D81E9
:10574800866BB0F810A0856A26B13046FBF714FFC7
:1057580000FB05F5AA45C0F0B281D8F83850002DF5
:1057680000F05B812846FBF707FF0346C2B27A6068
:10577800D8F82820B8F812B002FB03F39B45C0F014
:10578800AA81002E40F09680002D40F09C800125D3
:105798002E46AA4698F83410D8F80C30002940F064
:1057A800D680D8F82020D9F8200090425A4600F038
:1057B8003B811846FC6062F0F0FB034600224FF084
:1057C800010B14467A613E61BB6015E07A6905F009
:1057D80001031A44D3B23A697B6102F001032344FE
:1057E800DCB253084FEA4B0B4FEA55053B6175D0C5
:1057F800002D73D003EA050A1AF0010FE6D0D9F894
:105808004430D9F828101BEA030F14BF01260026DC
:1058180007F11E03D9F80C00B8F812200193FB68B1
:1058280004FB0100009389B2234602960FF080FE24
:10583800824660B15D4B1B68590740F09180002398
:1058480083F31188BFF36F8F0323184602DF40F6F6
:10585800540007F12403D8F82020D9F82010039326
:1058680007F120030293BB68514E0193FB8B00FBA9
:1058780004600093FB68FFF70DFD824660B14B4B57
:105888001B685B0740F0A080002383F31188BFF3F7
:105898006F8F0323184602DF98F83430796A93BB78
:1058A800D9F82020D8F820309A424CD0BB680B4455
:1058B800BB608BE7002D40F0AB803046FBF75CFE09
:1058C800012800F0AC80394803685C0703D0012147
:1058D800384A0AF049FA6FF015000FE07C6AD8F8E8
:1058E8003800C8F8284018B1FBF746FE00FB04F45E
:1058F800214608F10C0012F043F8002007F2AC77BB
:10590800BD46BDE8F08F7A6898F82C30386A029264
:10591800B8F812200192D8F80C2000927A6933F076
:1059280029F8824600283FF451AF204803685907F8
:1059380040F08180002383F31188BFF36F8F032326
:10594800184602DF42E7FB680B44FB603EE7184657
:105958005A460021FC6062F020FB07F57A732DE7B8
:105968006E4688B004AB4FF400729A831A46124907
:10597800596112499961124B42F8103F00234FF4C4
:10598800E2510A480AF046FA084BB5461B685A071E
:105998003FF455AF4FF4AB72534600920121094AC8
:1059A80002480AF017FA4AE754F60020EC350020BE
:1059B80004D5002020A9070058B60700BCAA070094
:1059C80003000001189907006E4688B004AB4FF435
:1059D80000729A831A465149596151499961514B4C
:1059E80042F8103F002350484FF4E2510AF012FAEF
:1059F8004D4BB5461B6858073FF446AF4FF4AE729F
:105A0800534600920121494A47480AF0E3F93BE727
:105A180016EA050A7FF4BEAE55E70123A8E64FF65D
:105A2800FF751FFA86FAB5E6184662F0B6FA07F56A
:105A38007A73F860C2E66E4688B004AB4FF4007221
:105A48009A831A463549596139499961354B42F863
:105A5800103F00234FF4E2510AF0DCF93248B54612
:105A680003685A073FF466AF40F263125346009248
:105A780001212E4A0AF0AEF95CE72B48026852076A
:105A88003FF429AF98F8184001212A4A00940AF0F7
:105A9800A1F920E7244803685B0702D16FF01200E0
:105AA8002CE799F818300121234A0AF077F9F5E72D
:105AB8001D480368590728D16FF005001EE71A48EA
:105AC80003685E073FF407AF012153461B4A009560
:105AD8000AF080F9FFE61448026855073FF4FBAE68
:105AE8006C468AB004A905250A46CB617B68C1F8D3
:105AF80018B00B62124B4B6142F8105F00234FF451
:105B080021510AF087F9A546E5E601210D4A0AF078
:105B18002BF9D1E76FF01500704700BF58B60700A2
:105B2800CCAA070003000001EC35002018990700F3
:105B3800F4AA070004AA0700C8A9070054AA070086
:105B480080AA0700E0A9070084B010B502AC84E879
:105B58000F00284C9DF808302278934227D1012B5A
:105B68000DD025480268520704D10020BDE8104036
:105B780004B070470121214A0AF010F9F5E79DF8B1
:105B8800202032B1227EF2B10FF01AFD0028EDD1AB
:105B980020769DF80C3033B12379DBB10FF040FD4E
:105BA8000028E3D12071002384F83430DDE712485F
:105BB80003685C0702D16FF01200D7E70121104A91
:105BC8000AF0D2F8F7E70C48026851070CD16FF0D9
:105BD8007700CBE70848036813F0060FF7D00221D7
:105BE800084A0AF0C1F8F2E7074A19460AF0BCF871
:105BF800EDE700BF54F60020EC350020C8A90700E7
:105C080010AB070080AB070048AB070084B02DE954
:105C1800F04784B00CAC84E80F009DF830309DF854
:105C28004850012B9DF850609DF834909DF83570D0
:105C38000ED076480268550703D00121744A0AF04D
:105C4800ADF80024204604B0BDE8F04704B0704722
:105C5800DFF8C08198F80030012B1ED1AA4645BB59
:105C6800B9F1000F31D1022E00F2BC80022F00F2F0
:105C7800A1800125674C0DF1300CBCE80F000FC462
:105C8800BCE80F000FC4BCE80F000FC49CE8030079
:105C980084E8030088F83450D3E7002142F21072F8
:105CA80008460FF0EDFC04460028CBD1AA46002D8B
:105CB800D6D098F81830002B39D05448036813F020
:105CC800060F4DD16FF07704BCE798F80430002B2D
